:020000021000EC
:10400000002B0010B9890100B1890100DD5D0100BC
:10401000B3890100B3890100B389010000000000E9
:10402000000000000000000000000000F18F02000E
:10403000B58901000000000061900200C5900200F7
:10404000B5890100B5890100B5890100B589010074
:10405000B5890100B5890100B5890100B589010064
:104060004DC00100B5890100B5890100B589010085
:1040700029960100DD1D040009AE010085CC010078
:104080008DCD0100B58901002D190400B58901000D
:10409000B5890100B58901004DAE010061920200B1
:1040A00081920200B5890100B5890100B58901003E
:1040B000B5890100B5890100B5890100B589010004
:1040C00000000000000000000000000000000000F0
:1040D00000000000000000000000000000000000E0
:1040E00000000000000000000000000000000000D0
:1040F00000000000000000000000000000000000C0
:10410000034613F8012B002AFBD1181A0138704717
:1041100001F0FF01102A2BDB10F0070F08D010F878
:10412000013B013A8B422DD010F0070F42B3F6D17C
:10413000F0B441EA012141EA014122F007047FF095
:1041400000070023F0E80256083C85EA010586EAEC
:10415000010685FA47F5A3FA87F586FA47F6A5FA28
:1041600087F68EB9EED1F0BC01F0FF0102F0070234
:1041700032B110F8013B013A83EA010313B1F8D1DF
:104180000020704701387047002D06BF35460338C0
:10419000073815F0010F07D1013015F4807F02BFF9
:1041A000013015F4C03F0130F0BC0138704700BF4A
:1041B00010F8012B11F8013B012A28BF9A42F7D0D1
:1041C000D01A704781F0004102E000BF83F0004345
:1041D00030B54FEA41044FEA430594EA050F08BFA2
:1041E00090EA020F1FBF54EA000C55EA020C7FEA66
:1041F000645C7FEA655C00F0E2804FEA5454D4EBE3
:104200005555B8BF6D420CDD2C4480EA020281EAAC
:10421000030382EA000083EA010180EA020281EAE4
:104220000303362D88BF30BD11F0004F4FEA013136
:104230004FF4801C4CEA113102D0404261EB410145
:1042400013F0004F4FEA03334CEA133302D05242CB
:1042500063EB430394EA050F00F0A780A4F1010487
:10426000D5F1200E0DDB02FA0EFC22FA05F28018C1
:1042700041F1000103FA0EF2801843FA05F35941A7
:104280000EE0A5F120050EF1200E012A03FA0EFC26
:1042900028BF4CF0020C43FA05F3C01851EBE37150
:1042A00001F0004507D54FF0000EDCF1000C7EEB6D
:1042B00000006EEB0101B1F5801F1BD3B1F5001FAB
:1042C0000CD349085FEA30004FEA3C0C04F10104CA
:1042D0004FEA445212F5800F80F09A80BCF1004FF3
:1042E00008BF5FEA500C50F1000041EB045141EA75
:1042F000050130BD5FEA4C0C404141EB0101013C3E
:1043000028BFB1F5801FE9D291F0000F04BF01462C
:104310000020B1FA81F308BF2033A3F10B03B3F1FE
:1043200020020CDA0C3208DD02F1140CC2F10C028E
:1043300001FA0CF021FA02F10CE002F11402D8BFEC
:10434000C2F1200C01FA02F120FA0CFCDCBF41EAB8
:104350000C019040E41AA2BF01EB0451294330BD87
:104360006FEA04041F3C1CDA0C340EDC04F1140464
:10437000C4F1200220FA04F001FA02F340EA03003B
:1043800021FA04F345EA030130BDC4F10C04C4F181
:10439000200220FA02F001FA04F340EA0300294661
:1043A00030BD21FA04F0294630BD94F0000F83F4AB
:1043B000801306BF81F480110134013D4EE77FEA8E
:1043C000645C18BF7FEA655C29D094EA050F08BFDA
:1043D00090EA020F05D054EA000C04BF19461046BB
:1043E00030BD91EA030F1EBF0021002030BD5FEAFF
:1043F000545C05D14000494128BF41F0004130BD27
:1044000014F580043CBF01F5801130BD01F000457A
:1044100045F0FE4141F470014FF0000030BD7FEAED
:10442000645C1ABF194610467FEA655C1CBF0B46E8
:10443000024650EA013406BF52EA033591EA030FFF
:1044400041F4002130BD00BF90F0000F04BF0021F7
:10445000704730B54FF4806404F132044FF000052A
:104460004FF0000150E700BF90F0000F04BF0021A3
:10447000704730B54FF4806404F1320410F0004509
:1044800048BF40424FF000013EE700BF42004FEA04
:10449000E2014FEA31014FEA02701FBF12F07F4381
:1044A00093F07F4F81F06051704732F07F4208BF38
:1044B000704793F07F4F04BF41F40021704730B53F
:1044C0004FF4607401F0004521F000411CE700BF8B
:1044D00050EA010208BF704730B54FF000050AE00E
:1044E00050EA010208BF704730B511F0004502D50F
:1044F000404261EB41014FF4806404F132045FEA11
:10450000915C3FF4D8AE4FF003025FEADC0C18BFB9
:1045100003325FEADC0C18BF033202EBDC02C2F1AB
:10452000200300FA03FC20FA02F001FA03FE40EA3D
:104530000E0021FA02F11444BDE600BF70B54FF041
:10454000FF0C4CF4E06C1CEA11541DBF1CEA13551F
:1045500094EA0C0F95EA0C0F00F0DEF82C4481EA87
:10456000030621EA4C5123EA4C5350EA013518BFA7
:1045700052EA033541F4801143F4801338D0A0FB94
:1045800002CE4FF00005E1FB02E506F00042E0FB41
:1045900003E54FF00006E1FB03569CF0000F18BF47
:1045A0004EF0010EA4F1FF04B6F5007F64F54074EF
:1045B00004D25FEA4E0E6D4146EB060642EAC62182
:1045C00041EA55514FEAC52040EA5E504FEACE2EEF
:1045D000B4F1FD0C88BFBCF5E06F1ED8BEF1004FF2
:1045E00008BF5FEA500E50F1000041EB045170BD6E
:1045F00006F0004646EA010140EA020081EA0301B2
:10460000B4EB5C04C2BFD4EB0C0541EA045170BDAD
:1046100041F480114FF0000E013C00F3AB8014F127
:10462000360FDEBF002001F0004170BDC4F1000470
:10463000203C35DA0C341BDC04F11404C4F12005F1
:1046400000FA05F320FA04F001FA05F240EA02004C
:1046500001F0004221F0004110EBD37021FA04F682
:1046600042EB06015EEA430E08BF20EAD37070BD3C
:10467000C4F10C04C4F1200500FA04F320FA05F09B
:1046800001FA04F240EA020001F0004110EBD3709D
:1046900041F100015EEA430E08BF20EAD37070BD0D
:1046A000C4F1200500FA05F24EEA020E20FA04F3E6
:1046B00001FA05F243EA020321FA04F001F0004195
:1046C00021FA04F220EA020000EBD3705EEA430E06
:1046D00008BF20EAD37070BD94F0000F0FD101F035
:1046E0000046400041EB010111F4801F08BF013C6E
:1046F000F7D041EA060195F0000F18BF704703F0AC
:104700000046520043EB030313F4801F08BF013D32
:10471000F7D043EA0603704794EA0C0F0CEA1355EE
:1047200018BF95EA0C0F0CD050EA410618BF52EAA8
:104730004306D1D181EA030101F000414FF00000AE
:1047400070BD50EA410606BF1046194652EA4306BC
:1047500019D094EA0C0F02D150EA013613D195EA30
:104760000C0F05D152EA03361CBF104619460AD178
:1047700081EA030101F0004141F0FE4141F4700182
:104780004FF0000070BD41F0FE4141F4780170BD72
:1047900070B54FF0FF0C4CF4E06C1CEA11541DBFD7
:1047A0001CEA135594EA0C0F95EA0C0F00F0A7F8D9
:1047B000A4EB050481EA030E52EA03354FEA013106
:1047C00000F088804FEA03334FF0805545EA131319
:1047D00043EA12634FEA022245EA111545EA1065E1
:1047E0004FEA00260EF000419D4208BF964244F178
:1047F000FD0404F5407402D25B084FEA3202B61A97
:1048000065EB03055B084FEA32024FF480104FF46A
:10481000002CB6EB020E75EB030E22BFB61A7546DE
:1048200040EA0C005B084FEA3202B6EB020E75EB71
:10483000030E22BFB61A754640EA5C005B084FEAD9
:104840003202B6EB020E75EB030E22BFB61A7546A6
:1048500040EA9C005B084FEA3202B6EB020E75EBB1
:10486000030E22BFB61A754640EADC0055EA060E72
:1048700018D04FEA051545EA16754FEA06164FEAB5
:10488000C30343EA52734FEAC2025FEA1C1CC0D161
:1048900011F4801F0BD141EA00014FF000004FF0EE
:1048A000004CB6E711F4801F04BF01430020B4F1AF
:1048B000FD0C88BFBCF5E06F3FF6AFAEB5EB030C67
:1048C00004BFB6EB020C5FEA500C50F1000041EB64
:1048D000045170BD0EF0004E4EEA113114EB5C0431
:1048E000C2BFD4EB0C0541EA045170BD41F4801104
:1048F0004FF0000E013C90E645EA060E8DE60CEA0C
:10490000135594EA0C0F08BF95EA0C0F3FF43BAF28
:1049100094EA0C0F0AD150EA01347FF434AF95EADF
:104920000C0F7FF425AF104619462CE795EA0C0FC3
:1049300006D152EA03353FF4FDAE1046194622E790
:1049400050EA410618BF52EA43067FF4C5AE50EA6A
:1049500041047FF40DAF52EA43057FF4EBAE12E75A
:104960004FF0FF3C06E000BF4FF0010C02E000BF3B
:104970004FF0010C4DF804CD4FEA410C7FEA6C5C1E
:104980004FEA430C18BF7FEA6C5C1BD001B050EAC1
:10499000410C0CBF52EA430C91EA030F02BF90EAAC
:1049A000020F0020704710F1000F91EA030F58BF6B
:1049B000994208BF90422CBFD8176FEAE37040F0CD
:1049C000010070474FEA410C7FEA6C5C02D150EA6B
:1049D000013C07D14FEA430C7FEA6C5CD6D152EA26
:1049E000033CD3D05DF8040B704700BF84461046EB
:1049F00062468C461946634600E000BF01B5FFF7EA
:104A0000B7FF002848BF10F1000F01BD4DF808EDB9
:104A1000FFF7F4FF0CBF012000205DF808FB00BF8A
:104A20004DF808EDFFF7EAFF34BF012000205DF8E4
:104A300008FB00BF4DF808EDFFF7E0FF94BF012031
:104A400000205DF808FB00BF4DF808EDFFF7CEFF32
:104A500094BF012000205DF808FB00BF4DF808ED71
:104A6000FFF7C4FF34BF012000205DF808FB00BF42
:104A70004FEA410C7FEA6C5C02D150EA013C0AD15A
:104A80004FEA430C7FEA6C5C02D152EA033C02D14C
:104A90004FF0000070474FF0010070474FEA4102AD
:104AA00012F5001215D211D56FF47873B3EB625280
:104AB00012D94FEAC12343F0004343EA505311F0A7
:104AC000004F23FA02F018BF404270474FF0000039
:104AD000704750EA013005D111F0004008BF6FF077
:104AE000004070474FF00000704700BF53B94AB90B
:104AF000002908BF00281CBF4FF0FF314FF0FF30E6
:104B000000F06EB9ADF1080C6DE904CE00F006F8C6
:104B1000DDF804E0DDE9022304B070472DE9F04739
:104B2000089D04468C46002B40F083808A4217463D
:104B300047D9B2FA82F242B1C2F1200024FA00F061
:104B40009140974040EA010C94404FEA1748230CEB
:104B5000BCFBF8F61FFA87FE08FB16C143EA0143C7
:104B600006FB0EF1994209D9FB1806F1FF3080F0DF
:104B70001981994240F21681023E3B445B1AA4B26D
:104B8000B3FBF8F008FB103344EA034400FB0EFECD
:104B9000A64509D93C1900F1FF3380F00581A645EF
:104BA00040F2028102383C4440EA0640A4EB0E0485
:104BB00000261DB1D4400023C5E900433146BDE8BD
:104BC000F08702B9FFDEB2FA82F2002A50D1CB1B85
:104BD0004FEA174E1FFA87F80126B3FBFEFC210CA3
:104BE0000EFB1C3341EA034108FB0CF38B4207D94F
:104BF00079180CF1FF3002D28B4200F2E980844632
:104C0000C91AA3B2B1FBFEF00EFB101143EA014436
:104C100008FB00F8A04507D93C1900F1FF3302D288
:104C2000A04500F2D9801846A4EB080440EA0C40E5
:104C3000BFE78B4209D9002D00F0B1800026C5E9FD
:104C4000000130463146BDE8F087B3FA83F6002E06
:104C50004AD18B4202D3824200F2B880841A61EBBF
:104C6000030101208C46002DA8D0C5E9004CA5E722
:104C7000C2F1200320FA03F6974001FA02F04FEA4E
:104C8000174ED9403043030CB1FBFEF61FFA87F8EC
:104C90000EFB161143EA014306FB08F1994204FAA0
:104CA00002F409D9FB1806F1FF3C80F08D8099428F
:104CB00040F28A80023E3B445B1A81B2B3FBFEF0B5
:104CC0000EFB103341EA034100FB08F38B4207D986
:104CD000791800F1FF3C73D28B4271D90238394404
:104CE000CB1A40EA064678E7C6F1200C03FA06F430
:104CF00022FA0CF31C4320FA0CF701FA06F34FEAF0
:104D0000144E21FA0CF11F433B0CB1FBFEF91FFAC4
:104D100084F80EFB191143EA014109FB08FA8A45A0
:104D200002FA06F200FA06F308D9611809F1FF3019
:104D300048D28A4546D9A9F102092144A1EB0A01CA
:104D4000BFB2B1FBFEF00EFB101147EA014700FBBA
:104D500008F8B84507D9E71900F1FF312ED2B84558
:104D60002CD90238274440EA0940A7EB0807A0FBEA
:104D700002894F45C64649461AD317D05DB1B3EBF9
:104D80000E0267EB010707FA0CFCF2404CEA020244
:104D9000F740C5E9002700263146BDE8F0872E46DA
:104DA00028460BE70646E9E61846FDE64345E5D208
:104DB000B8EB020E69EB04010138DFE70846D2E7E1
:104DC00060468DE78146B9E7664675E730464AE7B3
:104DD000ACF1020C394413E702383C4424E700BF2D
:104DE000704700BF284B294870B593E8060008F0CB
:104DF00027FB0021012008F000FD9F21234808F037
:104E000060FB0021214808F05CFB002106461F489A
:104E100008F057FB002105461C4808F052FB012111
:104E20000446084608F0E9FC184808F038FB184921
:104E3000184808F03FFC1849164808F018FC1022E2
:104E40003146144808F0AEFC1449124808F00FFC33
:104E5000102229460F4808F0A5FC11490D4808F01A
:104E600006FC0C481022214608F09CFC682E09D153
:104E7000402D07D1182C05D10A490648BDE87040DD
:104E800008F018BC0849F8E7505200108073001071
:104E900084AD04001C73001098AD0400ACAD040098
:104EA000BFAD0400D2AD0400E7AD040008B51C4856
:104EB00008F066FB062202234FF4E131194808F09E
:104EC00047FA4FF4FA600EF077FB1749154808F0DF
:104ED000F1FB1649134808F0EDFB154B012118783A
:104EE00008F074FC134B0121187808F06FFC0121C5
:104EF000084608F06BFC0121084608F07EFC0E48CD
:104F000008F090FAFFF76EFF0C4800F0EBF828B9B4
:104F1000BDE808400A49034808F0CCBB08BD00BF03
:104F2000847300101C7300100FAE040039AE04002F
:104F3000002B0010012B001080730010485200104D
:104F400070AE04002DE9F041434B444F1878DFF870
:104F50004881434D002108F050FC1F2008F02CFC34
:104F6000404B014618600A223D4808F005FC3E49C6
:104F70003B4808F09FFB002601242146384608F0F4
:104F800037FB0121384608F03FFB10F0FF004AD103
:104F90003649284608F06BFB0F2C03D834492846C5
:104FA00008F065FB10222146284608F0F9FB31493C
:104FB000284608F07FFB01360134E4B27F2CDCD1B7
:104FC000002E42D12C4926482C4C08F073FB2C4B68
:104FD00018782368002B3AD1012108F00EFC012338
:104FE0002360FFF7FFFE274800F070F8A8B12548BE
:104FF00000F0E0F888B1234800F0D4F822491848BE
:1050000008F035FB1F4800F0D2F8204A204900285C
:1050100018BF1146124808F04DFBBDE8F04141F2BF
:1050200088300EF0C9BA0428C6D14146284608F097
:105030001EFB0F2C03D80E49284608F018FB10223F
:105040002146284608F0AEFBB6E71249BBE700212F
:1050500008F0D3FB0023C3E7012B0010847300107A
:105060001C7300105C5200109AAE0400B2AE040033
:105070007ACE0400D1AE0400F1AE04005852001004
:10508000002B0010485200100DAF040097AE040032
:10509000BD28050007AF0400D5AE0400044B054A47
:1050A0001A604FF4807204489A8000F007B800BF7D
:1050B0005052001040420F004852001010B50446F4
:1050C00000F044F90023A380204610BD08B500F08D
:1050D00057F9003818BF012008BD0A464171072161
:1050E00000F013BA38B52A4A3421044600F065F9B5
:1050F000054628B92749284808F0DCFA284638BD73
:105100002649254808F0D6FA04221146204600F028
:10511000A9F901220721204600F016FA00212046B5
:10512000FFF7DBFF00220421204600F00DFA0022E9
:105130000521204600F008FA00220621204600F052
:1051400003FA00220C21204600F0FEF900220D2176
:10515000204600F0F9F900220E21204600F0F4F973
:1051600000220F21204600F0EFF9002210212046F6
:1051700000F0EAF911210022204600F0E5F920466E
:1051800000F017FA204600F0A3F90549B3E700BF85
:105190008473001053AF04001C73001078AF040038
:1051A000A1AF0400417981F00101FFF796BF40797A
:1051B000704700002DE9F74F8146FFF787FF07464C
:1051C000002800F09F80484600F0DAF84F49DFF8E9
:1051D00078B104464E4808F04AFA21460A224C4863
:1051E0004B4C08F0C7FA4B49494808F063FA0027CE
:1051F0004846FFF76BFF0090002800F08380484688
:1052000000F0C5F800F07F03013BDBB24FF00A0865
:105210004F2BB3FBF8F55FFA85FA08FB1535064608
:10522000EDB21FD93C49204608F021FA1022314640
:10523000204608F0B5FA3949204608F018FA4246E7
:105240005146204608F0ACFA5946204608F00FFABD
:1052500029464246204608F0A3FA3149204608F084
:1052600029FAC5E7272B01D8032D13D92D4920464C
:1052700008F0FDF90A225146204608F091FA5946F5
:10528000204608F0F4F929460A22204608F088FA58
:105290002549E3E7254B264903EB8A0346B25B5DCC
:1052A0000193204608F0E3F942465146204608F0B3
:1052B00077FA5946204608F0DAF942462946204650
:1052C00008F06EFA1B49204608F0D1F91A4A1B492A
:1052D000204611EA260138BF114608F0C8F91849DE
:1052E000204608F0C4F9019B2046194608F0CFF982
:1052F0001449204608F0DEF9009B37EA260728BF4C
:105300001F4675E7384603B0BDE8F08FF7AF0400DD
:105310001C73001003B004000CB004003AAF04008A
:1053200024B0040046B0040056B0040077B0040076
:105330006CB0040073B00400EEAF0400E6AF0400EC
:1053400050AF0400AE2F050043AF040000220260FE
:10535000704730B501248BB00025CDE900540A46D2
:105360002346016803A800F036F9224602A903A8E3
:105370008DF8085000F0A5F99DF808000BB030BD7D
:1053800008B50321FFF7E5FF00F00F0008BD042179
:10539000FFF7DFBF30B501238BB00025CDE9005307
:1053A00014460A46016803A800F015F92A4621466A
:1053B00003A800F068F90BB030BDF8B504460068EA
:1053C0000E46174608B103F0D3FA102003F0D2FAC4
:1053D0003A460546314600F0DAF9256028460121B3
:1053E00000F0F2F90546D8B3002223212046FFF74A
:1053F000D1FF002224212046FFF7CCFF00222521E7
:105400002046FFF7C7FFFF2220212046FFF7C2FFFB
:10541000FF2221212046FFF7BDFFFF222221204647
:10542000FFF7B8FF002226212046FFF7B3FF002236
:1054300027212046FFF7AEFF002228212046FFF754
:10544000A9FFFF221A212046FFF7A4FFFF221B21FC
:105450002046FFF79FFFFF221C212046FFF79AFFFF
:105460002846F8BD082913B514462FD80A2A2DD886
:1054700011B9012002B010BD002AFAD000231A464B
:1054800052000133D2B2994242F00102F8DC1D21F0
:105490000190FFF77FFF002301981A465200013365
:1054A000D2B29C4242F0010201DD082BF6D11E214E
:1054B0000190FFF76FFF082C0198DAD9092C0CBF77
:1054C000012203221F21FFF765FFD2E70020D1E769
:1054D00070B5044600252046FFF759FFEEB20135AE
:1054E0000028F8D111212046FFF733FF1221204672
:1054F000FFF72FFF13212046FFF72BFF2046032243
:105500000221FFF747FF304670BD112973B50B46E6
:105510000446164616D8C908173103F007030125BB
:1055200001919D40FFF715FF019946B920EA050258
:105530002046D2B2FFF72EFF012002B070BD40EA34
:105540000502F5E70020F8E711292DE9F3410546AA
:10555000884617462BD8CE0806F12301012208F011
:10556000070802FA08F80191FFF7F3FE5FFA88F4E2
:10557000012F0CBF44EA000320EA0803DAB20199C4
:105580002846FFF707FF06F12C0128460191FFF797
:10559000E0FE022F0CBF20EA08002043C2B20199AE
:1055A0002846FFF7F7FE012002B0BDE8F081002099
:1055B000FAE710B5002204462921FFF7EBFE20464A
:1055C00000222A21FFF7E6FE20460022BDE8104017
:1055D0002B21FFF7DFBE30B50025C0E90015C281E1
:1055E0009DF810109DF80C2085614174827403743D
:1055F00030BDF0B5044685B0C089ADF80C004FEA67
:10560000102C2068A37B0D46164640B1637C0193A5
:1056100003AB0093012300F0E6F805B0F0BD60682D
:1056200038B3277B647C032F0BD12CF0010C0134A1
:105630008DF80D308DF80CC0009403AB00F031FAFA
:10564000EBE747B903F07F038DF80C30009403AB10
:1056500032462946F2E7022F02D163F07F03F3E7D7
:10566000012FF3D19DF80C3003F07F0343F040038A
:10567000EAE7A0680028D0D000920B46627C03A91C
:1056800000F076F8C9E7F0B40B4602B9027C042AB0
:1056900014D800F11305836184182946844209D087
:1056A000877CDEB227B92E701B0A0135013CF5E775
:1056B000A674F9E72046F0BCFFF79BBF0020F0BCC2
:1056C00070477FB5857B04460B46C1890068ADF8FD
:1056D0000C100E0A40B10021CDE9002103A9627C23
:1056E00000F0EDF804B070BD606848B3217B647CC5
:1056F00003290DD146F00106FF21CDE900218DF8E7
:105700000C608DF80D50621C03A900F0ECF9E9E77C
:1057100041B965F07F058DF80C50FF21CDE90021DE
:105720002246F1E7022902D105F07F05F3E70129BE
:1057300002BF9DF80C1061F03F018DF80C10ECE7F2
:10574000A0680028CED00092627C03A900F001F886
:10575000C8E730B4047CBDF8085034B1846824B183
:105760000295A446406930BC6047002030BC7047B9
:1057700030B4047CBDF8085034B1C46824B102953B
:10578000A446406930BC6047002030BC704742608E
:105790000022027220220170C2607047037A10B5A5
:1057A00004465BB12178606807F022FF6068012140
:1057B00007F02AFFB0FA80F0400910BD012100F087
:1057C00003F80028EED1F8E738B5044640680D46E6
:1057D00007F0D6FE0120207225B12046BDE83840F2
:1057E000FFF7DCBF38BD2DE9F843DDE908961F4619
:1057F000C368154632449A420446884602D90020BE
:10580000BDE8F8830178406807F0F2FE7EB9606871
:1058100003682A465B68414698478542EFD1606835
:10582000394607F0F1FEB0FA80F04009E8E7B9F137
:10583000000FECD06068036832465B6849469847C1
:10584000B042DCD1E3E72DE9F041154604460F46AE
:10585000D2B20178406807F0C1FE85420BD1002624
:10586000B54206F1010809D9606803685B69984789
:10587000B8554646F4E70020BDE8F0810120FBE77B
:105880002DE9F84307468846164699460025B54255
:1058900012D2FA68741B944228BF1446331BAB42E1
:1058A00094BF4B460023224608EB05013846FFF71C
:1058B000CAFF10B12544EAE70120BDE8F88373B5BB
:1058C0001D460023CDE900339DF81C30069E04469A
:1058D000FFF789FF40B1012332462946204602B036
:1058E000BDE87040FFF7CCBF02B070BD2DE9F74FA7
:1058F000044600680E46134620B103B0BDE8F04FE1
:1059000007F0DBBD227BA068494FB7FBF0F7002A08
:105910000A780CBF4FF0010B4FF0800B1BEA020F0F
:105920000B440CBF4FF001094FF00009FFB2019387
:10593000019BB34279D096F800A05D464FF0000875
:1059400017B138460DF04DFE637BA26913F0FD0FD1
:1059500042D194F91030591C11D01AEA050014BF35
:10596000012300234B450AD06369D4F824C0196889
:1059700000282CD041EA0C0119604FF00109116890
:10598000E36A0B43136017B138460DF02AFE94F911
:105990001130013306D0E3691A68A36A1A4218BFAE
:1059A00045EA0808A169E36A0A6822EA03030B6072
:1059B00094F91130013318BF86F80080237B002B47
:1059C00031D16D00EDB2002DBAD10136B0E721EA38
:1059D0000C0119608146D2E71168E36A0B4313603A
:1059E00017B138460DF0FDFD94F91030013308D0A1
:1059F0006369616A1A681AEA050F14BF0A438A4389
:105A00001A60A169E36A0A6822EA03030B6094F949
:105A100011300133CCD0E3691A68A36A1A4218BF67
:105A200045EA0808C4E76D08CDE703B0BDE8F08F8C
:105A300020A1070007B501228DF807100DF107011D
:105A4000FFF754FF9DF8070003B05DF804FB0368FF
:105A500023B14268184606CA07F0F2BC70470068D6
:105A600008B107F01CBD704790F90E00431C03D02D
:105A7000C9B2C0B207F0C1BE704710B50446FFF707
:105A8000E6FF20460021BDE81040FFF7EDBF10B54E
:105A900001210446FFF7E8FF2046BDE81040FFF76C
:105AA000DEBF2DE9F0411C4606460D461746FFF7BE
:105AB000E4FF069B04EB0308444508D12F44BD4294
:105AC0000BD015F8011B3046FFF7B4FFF7E714F8C9
:105AD000011B3046FFF7AEFFEEE73046FFF7D7FF7A
:105AE0000120BDE8F0812DE9F0410D4617469DF8F3
:105AF0001C8006461C46FFF7C0FF2F44BD420AD15A
:105B0000069BE518AC420CD041463046FFF792FFA9
:105B100004F8010BF6E715F8011B3046FFF78AFF82
:105B2000ECE73046FFF7B3FF0120BDE8F08105F058
:105B3000C7BE05F0CABE000013B50B4C23780BB9E5
:105B400000F090F808230B22CDE900320748092322
:105B50000A22002100F052FB00F090FB23780BB9E1
:105B60000123237002B010BD605200106482021045
:105B7000BFF34F8F0549064BCA6802F4E062134336
:105B8000CB60BFF34F8F00BFFDE700BF00ED00E02B
:105B90000400FA05292070470DF047BDF8B50C4602
:105BA0002F2C9DF81850079F0646114605DC631CF4
:105BB000047002D012B1012A12D0F8BD012D0DD00F
:105BC000022D01D025B9022120460DF083FEB572C9
:105BD00020460021BDE8F8400DF07ABE2946F3E7E3
:105BE00020460DF075FE391E204618BF0121BDE884
:105BF000F8400DF071BE38B5044690F900002F282A
:105C00001D4615DCA3B1022923610DD003290DD057
:105C100001290DD103210DF063FE94F900002946FE
:105C2000BDE838400DF05EBE0521F4E70621F2E73D
:105C300038BD90F900002F2806DC431C04D0003941
:105C400018BF01210DF048BE704708B590F900005B
:105C50002F2804DC431C02D00DF040FE08BD0020BC
:105C6000FCE7000010B5054C23782BB9044902204D
:105C70000DF046FF0123237010BD00BF61520010DC
:105C8000FD16040010B502200DF042FF064B1A6805
:105C90001860044600219442596002D205F0EEF9E2
:105CA0000444204610BD00BF68520010014B186824
:105CB000704700BF685200100A2070470DF01EBFE9
:105CC0000DF01ABF02200DF021BF000007B50190B2
:105CD000022005F09BF9044A0199022003B05DF807
:105CE00004EB0DF011BF00BF68520010FFF7EEBFCC
:105CF000022005F0A1B9000008B5034B02201A6884
:105D000000230DF009FF08BD6852001070B506466B
:105D100002200DF0FFFE4FF47A72002305460C4678
:105D2000FEF7E4FE0023328028464FF47A722146C3
:105D3000FEF7DCFE70BD10B50C460CF029FA2046CB
:105D4000BDE810400CF036BA38B50C4605460CF0EC
:105D500019FA28600CF028FA206038BD704708B5A1
:105D6000012012F0E5FC002008BD704700BEFDE7F1
:105D7000FEE70000BFF34F8F0549064BCA6802F4E7
:105D8000E0621343CB60BFF34F8F00BFFDE700BF5E
:105D900000ED00E00400FA0570B50C4D0C4C641BDE
:105DA000A4100026A64207D10A4D0B4C641BA41078
:105DB0000026A64205D170BD55F8043B9847013630
:105DC000F0E755F8043B98470136F2E70000000081
:105DD000000000003CAC04004CAC040008B5FFF728
:105DE000C9FF08B5FFF7C6FF13B50378092B11D813
:105DF000DFE803F0126A909910A1A105A5A9047922
:105E000020460CF01FF920460CF0C4F80021204673
:105E10000CF020F902B010BD01200CF013F901289C
:105E200023D100200CF00EF90128F3D0484B1B7849
:105E30001BB142F2107004F043FB00200EF08CF80E
:105E40000028E7DD012201A900200DF04BFF002012
:105E50000CF0F8F804460028EFD10EF05BF858BBC0
:105E60009DF804100CF002F8E7E7394B1B781BB1E2
:105E700042F2107004F024FB01200EF06DF80028AF
:105E8000CFDD012201A910460DF02CFF01200CF0FE
:105E9000D9F80028F0D101200EF03CF828B99DF87F
:105EA000041001200BF0E2FFE6E70128E4D19DF8A1
:105EB00004100DF085FFDFE70128BED19DF8041026
:105EC00020460DF07DFFB8E703200CF0BBF8012859
:105ED000A0D003200EF040F800289BDD012201A98C
:105EE00003200DF0FFFE03200CF0ACF80028F0D1E9
:105EF00003200EF00FF828B99DF8041003200BF0D2
:105F0000B5FFE6E70128E4D19DF8041003200DF069
:105F100057FFDEE70F4B1B6E03B1984720F0FEFDE5
:105F200007F088FC76E70C4B1B68002B3FF472AF40
:105F3000406898476EE740680EF022F96AE7002053
:105F40000DF0F4FD66E740680DF0D2FC62E700BF9B
:105F500074520010F4120500C828021030B5474BE7
:105F6000474A1B68474999B000240193464B009368
:105F7000204640F2CD13CDE903441EF0EFF80EF0B9
:105F8000F3F80DF055FB0DF05DFA0CF033F92346F4
:105F90000146054603222046CDE900440DF0C8FD28
:105FA00023462946CDE90044032201200DF0C0FD1F
:105FB00036494FF478231A68501C0ED002F00300C3
:105FC000012810D022F00302B2F5801F0BD2043357
:105FD0008B42F0D11B68013305D108AA08214FF488
:105FE000782012F019FB0DF085FA03F039FB0DF063
:105FF000B7FA082103A807F047FE9DF813309DF873
:1060000011202349009308A89DF8123000F0E2FF08
:1060100008A8FEF775F8C1B208A80DF075FA0C21B2
:1060200005A80CF0BFF905A80DF070FA00210320B7
:106030000CF010F800240322234629461046CDE92F
:1060400000440DF075FD0BF0C9FF0CF0BBF909F031
:1060500073FBE5B228460BF0F5FF10B928460BF0AC
:1060600099FF0134042CF4D10EF062F80CF0B2FE6A
:10607000012801D109F0CCFE19B030BD6C2C001004
:10608000A8B0040028B1040030B1040024800F003F
:1060900040B1040008B5044B1B6E03B19847BDE83E
:1060A00008400EF053B800BFF4120500F8B5FFF732
:1060B00055FF02F079FC1D480DF0D8FD07F0CAFE2F
:1060C000012822D0022822D010B919480DF0CEFDA7
:1060D000184F194D194EFFF7DDFF3C78CCB92B78DE
:1060E00083B142F210700DF067FA23460722314661
:1060F00020462C7006F0ECFE234607223146012094
:1061000006F0E6FE02F052FCE5E70D48DEE70D483A
:10611000DCE70BF0DBFF0028DDD02B7803F0FF007D
:10612000002BD8D10DF0A8FCD5E700BF51B1040079
:1061300065B10400745200105460001088B104006E
:1061400071B104007CB1040007B5FFF725FE1DF016
:10615000F9FF234B234A2449009300204FF4217375
:106160001DF0FCFF002108460FF016FF024620B18B
:106170001C4940F28E201EF019F81C480FF03CFE1E
:10618000024620B117494FF425701EF00FF80FF0AA
:1061900055FE024620B1134940F296201EF006F843
:1061A00012F026FB012012F02BFB12F00FF9024631
:1061B00020B10C4940F2A7201DF0F8FF12F0C6F9FB
:1061C0000B4B019301230B4900934FF480520023A2
:1061D000094813F043FD13F04BFEFFF7CBFD00BF62
:1061E00090B10400A8B0040028B1040010F4040029
:1061F00070520010A9B10400AD6001002DE9F34117
:106200000C460025064600F8044B02249DF9208028
:1062100011461F4622462B46CDE900452BF06EF86D
:106220002B462246394606F11800CDE900452BF0F1
:1062300065F806F12C00CDE900452B462246414683
:106240002BF05CF8012002B0BDE8F0410DF0F4BE87
:106250007FB501220023ADF80E108DF817300193A1
:1062600000920DF117030DF10E0110460DF048FFDD
:106270009DF8170007B05DF804FB000073B5174EDA
:106280000024012523462A463046CDE900450B214E
:106290002BF034F823462A46A6F1A400CDE90045A8
:1062A00011212BF02BF823462246A6F19000CDE9D0
:1062B000004410212BF022F823462246A6F17C0050
:1062C000CDE900440F212BF019F82B460222294674
:1062D000122002B0BDE870400DF0F8BAA48202109E
:1062E00003460322014801212BF010B82882021036
:1062F0004FF4207101202AF02BBE0A2070470120A4
:106300002AF01ABE014B1878704700BF7552001072
:10631000014B1870704700BF7552001010B50A4C41
:106320000A202AF0E9FF002120462AF0F1FF14207C
:106330002AF0E2FF204601212AF0EAFFBDE81040E2
:106340000A202AF0D9BF00BF0082021010B5034C0A
:1063500020462AF0DFFF0128FAD010BD1482021077
:1063600038B50C4C00212046A4F140052AF0D0FF9E
:10637000C0212846FFF76CFF00212846FFF768FF81
:10638000012120462AF0C4FFFFF7E0FF024B012263
:106390001A7038BDA482021075520010F8B5154667
:1063A00006460C462AF0BCFB0E480F4F00212AF08F
:1063B000AFFF0D483146FFF74BFF2544AC4209D1F2
:1063C000084801212AF0A4FF842E09D0BDE8F84036
:1063D000FFF7BCBF14F8011B3846FFF739FFEDE7A4
:1063E000F8BD00BFA482021064820210F8B5154601
:1063F00006460C462AF094FB0F48104F00212AF065
:1064000087FF31460D48FFF723FF0C480021FFF7B7
:106410001FFF2544C6B2AC4207D1074801212AF02C
:1064200077FFFFF793FF3046F8BD00213846FFF7AE
:106430000FFF04F8010BEEE7A48202106482021041
:1064400070B5154606460C462AF06AFB1048002136
:106450002AF05EFF0D210F48FFF7FAFE310A0D48C2
:10646000FFF7F6FEF1B20B480A4EFFF7F1FE2544A6
:10647000AC4207D1064801212AF04AFFBDE870402E
:10648000FFF764BF14F8011B3046FFF7E1FEEFE7AA
:10649000A48202106482021007B501228DF8071051
:1064A0000DF10701FFF7CCFF03B05DF804FB00001E
:1064B00070B5154606460C462AF032FB13480021FB
:1064C0002AF026FF1D211248FFF7C2FE310A1048AC
:1064D000FFF7BEFEF1B20E480D4EFFF7B9FE0C48B5
:1064E0000021FFF7B5FE2544AC4207D10748012142
:1064F0002AF00EFFBDE87040FFF728BF00213046AC
:10650000FFF7A6FE04F8010BEEE700BFA48202101D
:106510006482021007B501220DF10701FFF7C8FFE1
:106520009DF8070003B05DF804FB0000F8B51446C1
:1065300005460E462AF0F4FA0F48104F00212AF0C3
:10654000E7FE0E210D48FFF783FE29460B48FFF7B3
:106550007FFE0025A4B2ABB29C4207D806480121B9
:106560002AF0D6FEBDE8F840FFF7F0BE715D384670
:10657000FFF76EFE0135EEE7A4820210648202107E
:10658000F8B5144605460E462AF0CAFA1248134FCB
:1065900000212AF0BDFE1E211048FFF759FE2946B2
:1065A0000E48FFF755FE0D480021FFF751FE00256C
:1065B000A4B2ABB29C4207D8074801212AF0A8FE3A
:1065C000BDE8F840FFF7C2BE00213846FFF740FEA5
:1065D00070550135EDE700BFA482021064820210FD
:1065E00002212AF003BD70477047704701482AF026
:1065F00091BE00BF28820210074B0849186843F279
:10660000390201FB002018606FF00043B0FBF3F388
:10661000C3EBC373C01A70474C2C00106D4EC641BB
:10662000014B1860704700BF4C2C001038B5054670
:106630000C46FFF7E1FF611B013190FBF1F303FB17
:106640001100284438BD01380A44914200D17047F6
:1066500011F8013B00F8013FF7E710440A4491426A
:1066600000D1704711F8013B00F8013DF7E7024403
:10667000904200D1704700F8011BF9E730B530B106
:106680000A4D01444FF0FF33814201D1D84330BD60
:1066900010F8012B5340082243F30004013A2C4028
:1066A00092B284EA5303002AF6D1EDE72083B8EDD5
:1066B0004FF0FF307047000030B591B10A4D0A44E9
:1066C000914200D130BD11F8013B5840082340F3FE
:1066D0000004013B2C409BB284EA5000002BF6D111
:1066E000EEE70846EEE700BF2083B8EDC0437047F1
:1066F00002440346934200D1704703F8011BF9E7B7
:106700002DE9FF4755EC104B002D0E4619462B4640
:10671000BBBF05F100431D4600232D230B700D9BCD
:10672000DDF830A0914623F02008BCBF2246144675
:10673000B8F1460F05D0B8F1450F00D1013602215E
:1067400000E0032103AB019302AB009345EC104B37
:106750005346324600F0ECFCB8F1470F074602D131
:1067600019F0010F22D0B8F1460F07EB060910D13E
:106770003B78302B0AD10022002320462946FEF721
:1067800045F918B9C6F10106CAF80060DAF8003018
:1067900099440022002320462946FEF737F908B124
:1067A000CDF80C903022039B4B4507D3039B0E9AE8
:1067B000DB1B3846136004B0BDE8F087591C039119
:1067C0001A70F0E7F7B503460029B8BF494203F84D
:1067D000022BB4BF2D222B22092942702ADD0DF194
:1067E0000704A4460A27A6460A4691FBF7F607FBCC
:1067F00016153035632A04F1FF340EF8015C31467A
:10680000F1DC3031AEF1020504F8011C441C2946CC
:1068100061450AD30DF10902A2EB0E02654588BF5E
:1068200000221344181A03B0F0BD11F8012B04F82C
:10683000012FEDE7302330318370C170031DF1E784
:106840002DE9F04F2DED028B8DB00C46DDF8608008
:1068500016461F46054601F049FAD0F800A05046FA
:10686000FDF74EFC00230A9323680593D8F8003007
:1068700094F818B0073323F0070303F10802C8F8AF
:106880000020D3E90023C4E91223D4E9128929F0B6
:1068900000430793CDF8188008EE100A9F4BDDE9FE
:1068A00006014FF0FF32FEF7E3F888BBDDE9060191
:1068B0009A4B4FF0FF32FEF7BDF848BB0022002391
:1068C00040464946FEF7ACF810B12D2384F843301A
:1068D000934B9448BBF1470F94BF984680460323DF
:1068E0002361059B23F0040222604FF0000900970A
:1068F00033460BAA2146284600F0D8F9013040F073
:1069000090804FF0FF300DB0BDEC028BBDE8F08FF2
:1069100042464B4640464946FEF7AAF840B14B4630
:10692000002BBCBF2D2384F843307F487F4BD1E739
:1069300063680BF0DF0206925A1C3FD106236360A6
:10694000059B616843F48062002303930AABCDE9A1
:1069500001B309AB49EC108B009322600DF12303C6
:106960002846FFF7CDFE069B0999472B804608D1A4
:10697000C81C02DB6368994241DDABF1020B5FFA90
:106980008BFBBBF1650F20D801395A4604F150004A
:106990000991FFF717FF0A9A1318012A814623610C
:1069A00002DC2268D20701D5013323619DF8233030
:1069B000002B9CD02D2384F8433098E7069A472A71
:1069C000BED1002BBCD10123B9E7BBF1660F18D1B2
:1069D000002963680BDD216113B92268D00702D555
:1069E00001330B442361A1654FF00009DEE713B9C1
:1069F0002268D20701D50233F4E70123F2E74FF012
:106A0000670B0A9B994205DB23682161D807EAD509
:106A10004B1CE7E70029D4BFC1F102020122134455
:106A2000E0E723685A0507D42369424631462846E1
:106A3000B84701302CD164E7BBF1650F40F2E0802C
:106A4000D4E9120100220023FDF7E0FF002834D032
:106A5000374A012331462846B84701303FF451AF49
:106A6000DDE909239A4202DB2368D80710D518EE26
:106A7000103A524631462846B84701303FF441AFFC
:106A80004FF0000804F11A090A9B013B434509DC59
:106A900023689B0700F10581E0680B9B9842B8BF13
:106AA000184630E701234A4631462846B8470130A8
:106AB0003FF427AF08F10108E6E7099B002B39DC1A
:106AC0001B4A012331462846B84701303FF419AF2D
:106AD000DDE90923134302D12368D907D8D518EE7D
:106AE000103A524631462846B84701303FF409AFC4
:106AF0004FF0000904F11A0A099B5B424B4501DC87
:106B00000A9B92E70123524631462846B847013096
:106B10003FF4F7AE09F10109EEE700BFFFFFEF7F99
:106B2000ADB20400B1B20400B9B20400B5B20400C1
:106B30007ACE04000A9AA36D9A42A8BF1A46002A88
:106B4000914637DC4FF0000B29EAE97904F11A028B
:106B5000A36D0593A3EB09035B4533DCDDE9092352
:106B60009A423BDB2368DA0738D40A9A059B0999D5
:106B7000D31AA2EB01099945A8BF9946B9F1000FB4
:106B800035DC4FF0000829EAE97904F11A0ADDE959
:106B900009239B1AA3EB090343457FF779AF012330
:106BA000524631462846B84701303FF4AAAE08F1B4
:106BB0000108ECE71346314642462846B847013003
:106BC000C0D19EE60123314628460592B8470130E0
:106BD0003FF497AE059A0BF1010BB9E718EE103AA6
:106BE000524631462846B8470130BED189E6059A5B
:106BF0004B46424431462846B8470130C1D180E671
:106C00000A9A012A01DCDB0738D5012342463146C6
:106C10002846B84701303FF474AE18EE103A524699
:106C200031462846B84701303FF46BAED4E9120133
:106C300000220023FDF7EAFED8B90A9B08F1010201
:106C4000013B31462846B84701300ED159E60123B1
:106C5000524631462846B84701303FF452AE08F15B
:106C600001080A9B013B4345F1DC4B4604F150020D
:106C7000DCE64FF0000804F11A0AF2E7012342466D
:106C8000DFE701234A4631462846B84701303FF442
:106C900038AE08F10108E3680B995B1A4345F0DC54
:106CA000FAE64FF0000804F11909F4E72DE9F0477E
:106CB000164699468A680B69DDF820809342B8BF72
:106CC0001346336091F8432007460C460AB101335E
:106CD00033602368990642BF336802333360256806
:106CE00015F0060506D104F1190AE36832689B1A0B
:106CF000AB4226DC94F84320131E226818BF012300
:106D000092062BD404F1430249463846C04701306D
:106D10001ED02368E568326803F00603042B08BF21
:106D2000AD1AA36822690CBF25EAE57500259342D8
:106D3000C4BF9B1AED1800261A34B5421AD10020A0
:106D400008E00123524649463846C047013003D186
:106D50004FF0FF30BDE8F0870135C6E7E1185A1C57
:106D6000302081F84300224494F8451082F8431003
:106D70000233C7E70123224649463846C04701305F
:106D8000E6D00136D9E700002DE9FF470C469146D1
:106D9000277E0C99782F80469A4604F1430207D843
:106DA000622F0AD8002F00F0D880582F00F0A3805F
:106DB00004F1420684F842703AE0A7F16303152B10
:106DC000F6D801A050F823F0216E0100356E0100C5
:106DD000B16D0100B16D0100B16D0100B16D010037
:106DE000356E0100B16D0100B16D0100B16D0100A2
:106DF000B16D0100416F0100656E0100236F01005C
:106E0000B16D0100B16D0100636F0100B16D010052
:106E1000656E0100B16D0100B16D01002B6F0100C5
:106E20000B681A1D1B680A6004F1420684F84230A0
:106E30000123A3E0256808682E0600F104030AD5A3
:106E400005680B60002D03DA2D236D4284F8433072
:106E50005E480A2319E015F0400F05680B6018BF63
:106E60002DB2EFE70B682568181D0860280601D5CC
:106E70001D6802E06906FBD51D8854486F2F0CBFC2
:106E800008230A23002184F843106668A660002EB8
:106E9000A2BF216821F0040121600DB9002E4DD060
:106EA0001646B5FBF3F103FB1157C75D06F8017DEC
:106EB0002F46BB420D46F4D9082B0BD12368DF07C0
:106EC00008D5236961689942DEBF302306F8013C8A
:106ED00006F1FF36921B2261CDF800A04B4603AAB3
:106EE00021464046FFF7E2FE01304CD14FF0FF3023
:106EF00004B0BDE8F087354884F8457023680E6813
:106F00001F0656F8045B0E6014D5D90744BF43F042
:106F1000200323601DB9236823F02003236010237E
:106F2000B0E7236843F0200323607823284884F8DF
:106F30004530E3E75E0648BFADB2E6E71646BBE77D
:106F40000B68266860691D1D0D6035061B6801D53C
:106F5000186002E07106FBD51880002323611646F5
:106F6000BAE70B681A1D0A601E6862680021304685
:106F7000FDF7CEF808B1801B6060636823610023D1
:106F800084F84330A8E72369324649464046D04753
:106F90000130ABD023689B0713D4E068039B984271
:106FA000B8BF1846A4E70123324649464046D047B9
:106FB00001309BD00135E36803995B1AAB42F2DCE8
:106FC000EBE7002504F11906F5E700BFBDB20400A8
:106FD000CEB204000EB400B59CB01DAB029006907A
:106FE0006FF00041094807910491094953F8042BB7
:106FF00005910068019302A901F0BCFA029B0022EE
:107000001A701CB05DF804EB03B07047702C0010D0
:107010000802FFFF2DE9F74F03690C69A3420746F9
:10702000C0F28180013C01F1140800F1140505EB68
:107030008403019358F8243055F8242001339A42F0
:107040004FEA840B08EB8409B2FBF3F631D34FF01F
:10705000000E4046AC46F24650F8042B93B206FBB5
:1070600003E34FEA134E9BB2AAEB0303120CDCF8C6
:1070700000A006FB02E213FA8AF34FEA124E1FFA4F
:1070800082FADCF80020CAEB124202EB23429BB2E8
:1070900043EA024381454CF8043B4FEA224ADBD2E3
:1070A00055F80B302BB9019B043B9D421A462ED359
:1070B0003C61384601F067F8002824DB0136284699
:1070C0004FF0000C58F8042BD0F800E093B2ACEB72
:1070D0000303120C13FA8EF3C2EB1E4202EB23429F
:1070E0009BB243EA0243C14540F8043B4FEA224CBD
:1070F000E8D255F8242005EB840322B9043B9D42D5
:107100001A460AD33C61304603B0BDE8F08F1268DE
:10711000043B002ACCD1013CC7E71268043B002A9B
:10712000F0D1013CEBE70020EEE70000000000009A
:107130002DE9F04F2DED028B57EC106B95B0456AA1
:10714000DDF880800591CDE90267044609920F932E
:107150003DB9102000F0CEFDC0E901556062056028
:10716000C560636A196851B15A684A600123934047
:107170008B60204600F010FE636A00221A603B1EFE
:10718000B9BF23F0004303930023C8F80030DDF8B3
:107190000C90B74BBCBF0122C8F8002033EA0903AA
:1071A0001BD10F9A42F20F731360C9F313033343D9
:1071B00000F07585219B63B9AE4B25E0AE4B009383
:1071C0000833219A1360009815B0BDEC028BBDE81E
:1071D000F08FA84B00930333F3E79DED027B002271
:1071E00051EC170B00238DED0A7BFDF70FFC804659
:1071F00060B10F9A01231360219B002B00F04C8596
:107200009E4B219A1360013B0093DCE79DED0A0B36
:1072100012AA13A9204601F048F8C9F30A5582467C
:10722000002D7ED00B9BCDF84080C3F31303DDE926
:107230000A6743F07F5747F44017A5F2FF35904B9C
:10724000002230463946FCF7C1FF83A3D3E900236F
:10725000FDF774F982A3D3E90023FCF7B9FF0646D2
:1072600028460F46FDF700F97FA3D3E90023FDF779
:1072700065F902460B4630463946FCF7A9FF06463B
:107280000F46FDF70BFC00228146002330463946AD
:10729000FDF7C6FB48B14846FDF7E6F832463B46E7
:1072A000FDF7B4FB08B909F1FF39B9F1160F56D84B
:1072B000744B03EBC903D3E90023DDE90A01FDF7B1
:1072C000AFFB00284DD009F1FF3900230E93129B2C
:1072D0005D1B6B1E049343BF0023C5F1010804939B
:1072E0004FF00008B9F1000F3DDB049BCDF834905E
:1072F0004B44049300230693059B092B00F29A80CC
:10730000052BC4BF043B0593059BA3F10203CCBF2F
:1073100000250125032B00F29980DFE803F02C7D86
:107320007B89DDE912531D4405F23243202BC1BF96
:10733000C3F1400305F2124009FA03F326FA00F004
:10734000DABFC3F1200306FA03F01843FDF77CF817
:1073500001230646A1F1F877013D10936FE7012361
:10736000B4E70E90B3E7C9F1000306930023A8EB3E
:1073700009080D93C0E700230893099B002B00F335
:1073800085804FF0010BCDF804B05B46CDF824B0FA
:10739000666A00227260042202F114009842716849
:1073A0007AD9204600F0C4FC636A30601B68009301
:1073B000019B0E2B00F2F580002D00F0F280B9F158
:1073C000000F7DDD2F4A09F00F0302EBC30393ED9D
:1073D000007B19F4807F4FEA2917B0EE478AF0EE60
:1073E000678A5DD0284BDDE90A01D3E90823FDF760
:1073F000CFF9CDE9020107F00F070325224E002F38
:1074000050D1DDE9020153EC182BFDF7C1F9CDE9AC
:1074100002016FE00123AFE700230893099B09EB0A
:10742000030B0BF10103012B0193B8BF0123AFE75D
:107430000123F2E701250023059308954FF0FF3B58
:107440000022CDF804B012230992A1E7012308938A
:10745000F4E700BFAFF3008061436F63A787D23FBB
:10746000B3C8608B288AC63FFB799F501344D33F33
:107470000000F07FE8B20400DFB204007BCE04001D
:107480000000F83F18B30400F0B20400DDF824B0A7
:10749000CDF804B05B467BE70131716052007BE7B9
:1074A0000225ABE7F90708D551EC180BD6E9002304
:1074B000FDF744F841EC180B01357F1008369EE7C4
:1074C00000F0AB80C9F10006AA4BAB4F06F00F02EB
:1074D00003EBC203D3E90023DDE90A01FDF72EF82F
:1074E000CDE90201361100230225002E40F08A80EA
:1074F000002B8CD10E9B002B00F09180DDE9026700
:107500009E4B002230463946FDF78AFA002800F0EB
:107510008680019B002B00F08280BBF1000F3CDDD8
:1075200009F1FF3307930022954B30463946FDF7AA
:1075300005F8CDE902010135CDF830B0DDE902678B
:107540002846FCF791FF32463B46FCF7F7FF8D4B90
:107550000022FCF73DFEA1F15073CDE90201039337
:107560000C9B002B60D1884B002230463946FCF73B
:107570002DFEDDE9022306460F46FDF76FFA0028CF
:1075800040F09982DDE90221304601F1004339469D
:10759000FDF746FA002840F08B82DDE90A23CDE9A9
:1075A0000223139B002BC0F25B81B9F10E0F00F395
:1075B0005781704B03EBC90393ED007B099BB0EE41
:1075C000478AF0EE678A002B80F2E280019B002B55
:1075D00000F3DE8040F06C826B4B51EC170B002205
:1075E000FCF7ACFFDDE90223FDF72EFA019E3746DA
:1075F000002840F04282009D312305F8013B09F14B
:1076000001093EE2F20705D5D7E90023FCF796FF12
:10761000013501237610083767E702256AE7019BE9
:10762000CDF81C900C9389E700990C980C9A514B5B
:107630009DED027B014402910899B0EE478AF0EE7D
:10764000678A03EBC20353E90223002945D04F495F
:107650000020FDF79DF853EC182BFCF7B7FD009DBB
:1076600041EC180B39463046FDF718FA0C90FCF740
:10767000FBFE02460B4630463946FCF7A7FD0C9B45
:10768000303305F8013B53EC182B06460F46FDF747
:10769000C7F9002865D132463B4638490020FCF73F
:1076A00095FD53EC182BFDF7BBF9002840F0B8808E
:1076B000029B9D423FF471AF314B51EC180B0022FD
:1076C000FCF73CFF2E4B41EC180B002230463946AC
:1076D000FCF734FF06460F46C4E751EC170BFCF7E6
:1076E0002DFF029B009D0C9341EC180B3946304650
:1076F000FDF7D4F91190FCF7B7FE02460B46304671
:107700003946FCF763FD119B303305F8013B029BC2
:107710009D4206460F464FF0000225D11B4B51EC0F
:10772000180BFCF755FD02460B4630463946FDF76F
:1077300095F9002874D153EC182B14490020FCF75C
:1077400045FD02460B4630463946FDF769F90028EB
:107750003FF423AF0C9D6B1E0C9315F8013C302BAE
:10776000F8D0DDF81C9049E0054BFCF7E7FE064633
:107770000F46BBE718B30400F0B204000000F03F6E
:107780000000244000001C40000014400000E03FC6
:10779000DDE90267009D53EC182B30463946FCF7B3
:1077A000F7FFFDF77BF98046FCF75EFE53EC182BE4
:1077B000FCF7C4FE02460B463046394608F1300657
:1077C000FCF704FD05F8016B009E019FAE1BB7425C
:1077D00002460B4637D1FCF7FBFC53EC182B064650
:1077E0000F46FDF73BF9C8B953EC182B3046394624
:1077F000FDF70CF910B118F0010F0FD120465146DA
:1078000000F0CAFA00232B700F9B09F101001860E9
:10781000219B002B3FF4D7AC1D60D4E4CDF81C9025
:107820002B461D4613F8012D392A08D1009A9A4299
:10783000F7D1079A00990132079230220A701A781C
:1078400001321A708DE79E4B0022FCF777FE002272
:10785000002306460F46FDF7D9F800289BD0CDE758
:10786000089A002A00F0C680059A012A00F3AA802F
:10787000109A002A00F0A28003F23343069E454688
:10788000049A01211A4420469844049200F029FBEE
:107890000746002D0BDD049B002B08DDAB42049A4C
:1078A000A8BF2B46A8EB0308ED1AD31A0493069B36
:1078B000FBB1089B002B00F0A180002E11DD3946A2
:1078C0003246204600F0B2FB5246014607462046AB
:1078D00000F010FB51460790204600F05DFA079B30
:1078E0009A46069B9A1B04D05146204600F09EFB08
:1078F00082460121204600F0F4FA0D9B002B06463B
:107900007EDD1A460146204600F090FB059B012BC8
:10791000064678DD00230693336906EB8303186976
:1079200000F08FFAC0F12000049B184410F01F00F3
:1079300000F08880C0F12003042B40F38180C0F167
:107940001C00049B0344804405440493B8F1000FD9
:1079500005DD51464246204600F0B6FB8246049BB8
:10796000002B05DD31461A46204600F0ADFB0646E9
:107970000E9B002B68D03146504600F004FC0028D6
:1079800062DA002351460A22204600F01CFA089BC6
:1079900009F1FF398246002B00F088813946002327
:1079A0000A22204600F00FFABBF1000F074600F351
:1079B0008F80059B022B40F38B804DE0129BC3F11F
:1079C00036035BE7019B5E1E069BB342BFBF069B6F
:1079D0000696F21A0D9BB6BF9B189E1B0D93019B3A
:1079E000B8BF0026002BB5BFA8EB0305019B002301
:1079F000454645E7069E089F45464AE7069A73E7CF
:107A0000059B012B18DC029BB3B9039BC3F3130343
:107A1000A3B9039B23F000431B0D1B052BB1049B53
:107A20000133049308F10108012306930D9B002BF9
:107A30007FF472AF012077E70023F6E7029BF4E7BB
:107A400084D018461C307CE7019B002B3ADC059B58
:107A5000022B37DDDDF804B0BBF1000F0DD131464C
:107A60005B460522204600F0AEF901460646504628
:107A700000F089FB00283FF7BEAD099B009D6FEA2F
:107A800003094FF000083146204600F085F9002F29
:107A90003FF4B4AEB8F1000F05D0B84503D041466D
:107AA000204600F079F93946204600F075F9A5E640
:107AB00000263746E1E70C9EDDF81C9037469AE534
:107AC00000002440089BDDF804B0002B00F0F58096
:107AD000002D05DD39462A46204600F0F5FA074616
:107AE000069B002B55D07968204600F021F93A69B1
:107AF00002320546920007F10C010C3000F00AF941
:107B000001222946204600F0DFFA009B0133019351
:107B1000009B5B440793029B03F00103B846069366
:107B20000746019B3146504603F1FF3BFFF772FACF
:107B300003463033029041465046089300F023FB41
:107B40003A4604903146204600F039FBC268089B53
:107B5000054602BB0146504600F015FB089B024655
:107B600029462046CDE9083200F016F9059B099A0E
:107B7000019D43EA0201069B0B43089B0DD1392B63
:107B800027D0049A002A01DD029B31338BF80030A4
:107B900079E73846B9E70122E2E70499002904DBD6
:107BA000059801430698014320D1002AEEDD514695
:107BB00001222046019300F087FA3146824600F008
:107BC000E2FA0028019B02DCE0D1DA07DED5392B8E
:107BD000DAD139238BF800302B461D46013B15F8CE
:107BE000012C392A50D001321A704CE7002A03DDEB
:107BF000392BEED00133C9E7019A079902F8013C0D
:107C00008A422AD0514600230A22204600F0DBF89F
:107C1000B84582464FF000034FF00A024146204625
:107C200007D100F0D0F880460746019B013301934D
:107C300077E700F0C8F83946804600230A2220463C
:107C400000F0C1F80746F0E7BBF1000F009ACCBF87
:107C50005D46012515444FF000085146012220469B
:107C6000019300F031FA3146824600F08CFA002888
:107C7000B2DC02D1019BDB07AED42B461D4613F8C4
:107C8000012D302AFAD0FEE6009A9A42A5D131237E
:107C900009F101091370F6E6124BFFF7B5BA219B03
:107CA000002B7FF48BAA104BFFF7AEBABBF1000F8D
:107CB00003DC059B022B3FF7CFAE009D31465046BB
:107CC000FFF7A8F900F1300305F8013B009AAA1A62
:107CD0009345B9DD514600230A22204600F073F88F
:107CE0008246EBE77ACE0400DFB20400004870471A
:107CF000C42D0010024B0146186800F085BB00BF80
:107D0000702C0010024B0146186800F02DBB00BF1C
:107D1000702C00100A44914200F1FF3300D17047EB
:107D200010B511F8014B03F8014F9142F9D110BD84
:107D300070B5466A04460D463EB91020FFF7DAFFDB
:107D4000C0E9016660620660C660666AF36883B176
:107D5000636ADB6853F82500B8B9012101FA05F61A
:107D6000721D9200204600F0F0FA60B1C0E90156A1
:107D70000EE021220421204600F0E7FA636AF06059
:107D8000DB68002BE4D1002070BD026843F8252099
:107D90000023C0E90333F7E770B5466A05460C4691
:107DA0003EB91020FFF7A6FFC0E9016668620660D1
:107DB000C6603CB16B6A6268DB6853F822102160D0
:107DC00043F8224070BD2DE9F0410E690746984600
:107DD0000C4601F1140000230568A9B202FB0181E1
:107DE0004FEA114C2D0C02FB05C589B2013301EBA2
:107DF00005419E4240F8041B4FEA1548ECDCB8F1FF
:107E0000000F1BD0A368B34212DC61683846013111
:107E1000FFF78EFF2269023204F10C010546920041
:107E20000C30FFF777FF21463846FFF7B5FF2C46A9
:107E300004EB86030136C3F8148026612046BDE8B2
:107E4000F081030C1B04D3B90004102310F07F4F02
:107E500004BF0002083310F0704F04BF0001043368
:107E600010F0404F04BF80000233002805DB10F003
:107E7000804F03F1010308BF2023184670470023F9
:107E8000E4E7036813F0070201460BD0DA0724D4B5
:107E9000980749BF5B089B0801200B605CBF0B6023
:107EA0000220704798B2B0B91B0C102013F0FF0FDE
:107EB00004BF1B0A08301A0704BF1B0904309A07C5
:107EC00004BF9B080230DA0703D45B0800F101000D
:107ED00005D00B6070471046E8E70020704720206F
:107EE000704710B50C460121FFF722FF01224461C3
:107EF000026110BD2DE9F04F15460A692B699A42BF
:107F0000B8BF0B460C46BCBF2C461D462769D5F8AA
:107F10001090A368616807EB0906B342B8BF01314E
:107F200085B0FFF705FF00F1140101EB86080B4651
:107F3000002243451DD304F1140305F1140203EBA1
:107F4000870702EB890302933B1B153B23F00303D6
:107F5000043304F11505AF4238BF04230193029B9B
:107F60000392934208D8002E5ADC066105B0BDE8A2
:107F7000F08F43F8042BDCE7B2F800A0BAF1000F51
:107F800024D004F1140E89464FF0000C5EF8045B17
:107F9000D9F800B0ABB21FFA8BFB0AFB03B34FEA70
:107FA000154BD9F8005063444FEA154C0AFB0BC53A
:107FB00005EB13459BB243EA0543774549F8043B7B
:107FC0004FEA154CE2D8019B41F803C0039BB3F87C
:107FD00002900432B9F1000F20D00B6804F1140CA8
:107FE0008E464FF0000ABCF80050BEF802B009FB04
:107FF00005B5AA449BB243EA0A434EF8043B5CF839
:10800000043BBEF800501B0C09FB035303EB1A435F
:1080100067454FEA134AE6D8019D4B5104319EE76C
:1080200058F8043D002BA0D1013E9CE72DE9F84310
:10803000154612F0030206460F4607D0214C013ABE
:10804000002354F82220FFF7BEFE0746AD1035D0BE
:10805000746A3CB91020FFF74DFEC0E9014470621C
:108060000460C460D6F82480D8F808404CB940F2C7
:1080700071213046FFF735FF0023C8F80800044699
:1080800003604FF00009EB070AD539462246304617
:10809000FFF730FF394680463046FFF77DFE474602
:1080A0006D100BD0206838B9224621463046FFF7C4
:1080B00021FF2060C0F800900446E4E73846BDE8A0
:1080C000F88300BFE0B304002DE9F0470C4649688F
:1080D000236903EB6218A368074691464FEA621AC8
:1080E00008F10106B3423FDB3846FFF721FE0023CB
:1080F000054600F1140100F110021846534536DB25
:1081000020692AEAEA7A04F1140319F01F0901EB45
:108110008A0103EB800C2ED0C9F1200E8A46002282
:10812000186800FA09F002434AF8042B53F8042BAC
:108130009C4522FA0EF2F3D8ACEB0403153B23F076
:108140000303043304F11500604588BF0423CA50BB
:108150000AB108F10206013E38462E612146FFF7BA
:108160001BFE2846BDE8F08701315B00BAE742F804
:10817000040F0133C2E7043953F8042B41F8042FEC
:108180009C45F9D8E7E730B502690C69121B0ED19E
:1081900000F11403143103EB840001EB840150F867
:1081A000045D51F8044DA54203D005D301221046C9
:1081B00030BD8342F3D3FAE74FF0FF32F7E72DE902
:1081C000F84F0C460646114620461746FFF7DBFFE0
:1081D000051E08D129463046FFF7AAFD0123C0E954
:1081E0000435BDE8F88FA4BF3B4627463046796882
:1081F000A6BF1C4600250125FFF79AFD3E69C56014
:10820000256907F1140104F1140900F1140E07F1B6
:10821000100201EB860C09EB8505F246002759F8A0
:10822000043B52F804BF1FFA83F817FA8BF71B0CB4
:10823000A7EB0808C3EB1B4303EB28431FFA88F89E
:108240001F144D4548EA03434AF8043BE7D82B1B6B
:10825000153B23F0030304331534A54238BF042330
:10826000194473449E460D4665450ED30CF1030236
:10827000521A22F0030203398C4538BF00221A44F7
:1082800052F8043D7BB10661ABE755F8048B17FA51
:1082900088F4221402EB1842A4B244EA02444EF8D5
:1082A000044B1714E0E7013EEAE72DE9F74389465E
:1082B000012157EC106B9046FFF73AFDC7F30A55C2
:1082C0000446C7F3130335BB002E019328D068463C
:1082D0000096FFF7D6FD009900B3019AC0F1200384
:1082E00002FA03F30B43C24063610192019BA36155
:1082F000002B14BF022201222261D5B1A5F2334521
:108300000544C9F80050C0F13500C8F80000204607
:1083100003B0BDE8F08343F48013D5E76161E5E77E
:1083200001A8FFF7AEFD019B6361012222612030AD
:10833000E3E704EB8203A0F23240C9F800001869B9
:10834000FFF77FFDC0EB4210DFE713B54A4311464C
:10835000019200F059F8044618B1019A0021FEF785
:10836000C7F9204602B010BD37B5002948D051F8F2
:10837000043C0190002BA1F10404B8BFE41800F004
:1083800035FA204A01981368154633B963601460C2
:1083900003B0BDE8304000F02FBAA3420BD92168EA
:1083A0006218934204BF1A685B68636004BF521886
:1083B00022602C60ECE71A465B680BB1A342FAD945
:1083C00011685518A5420BD1246821445418A342C2
:1083D0001160DDD11C685B68536021441160D7E7F0
:1083E00002D90C230360D3E7256861198B4204BFCF
:1083F00019685B68636004BF491921605460C7E76E
:1084000003B030BD78520010F8B5CD1C25F003053F
:1084100008350C2D38BF0C25002D064601DBA9427E
:1084200003D90C2333600020F8BD00F0DFF92149A7
:108430000A6814469CB9204F3B6823B92146304650
:1084400000F098F938602946304600F093F9431C53
:1084500023D10C233360304600F0CEF9E3E72368E4
:108460005B1B17D40B2B03D923601C44256004E04D
:108470006368A2420CBF0B605360304600F0BCF949
:1084800004F10B00231D20F00700C21ACCD01B1AE8
:10849000A350C9E722466468CCE7C41C24F0030457
:1084A000A042E3D0211A304600F064F90130DDD15A
:1084B000CFE700BF785200107C5200102DE9F04742
:1084C0008E689E4282460C4690461F4638D88A895E
:1084D00012F4906F32D025680969A5EB010965692E
:1084E00005EB450505EBD57501334B446D109D42F9
:1084F00038BF1D46530531D52946FFF785FF06468F
:1085000050B90C23CAF80030A38943F04003A3817B
:108510004FF0FF30BDE8F08721694A46FFF7FAFBCC
:10852000A38923F4906343F08003A38126616561EE
:108530004E44A5EB09052660A5603E46BE4200D923
:108540003E4632462068414600F036F9A36822686C
:108550009B1B3244A36022600020DBE72A4600F028
:1085600051F906460028E1D121695046FFF7FCFE8B
:10857000C7E700002DE9F04F98468B891B069DB098
:1085800007460D4614460ED50B6963B94021FFF727
:108590003BFF2860286120B90C233B604FF0FF307F
:1085A000D1E040236B610023099320238DF829300B
:1085B000CDF80C803023DFF8A8818DF82A304FF0F9
:1085C000010923469A4613F8012B0AB1252AF9D14D
:1085D000BAEB040B0BD05B46224629463846FFF720
:1085E0006DFF013000F0AA80099A5A4409929AF866
:1085F0000030002B00F0A28000234FF0FF32CDE9C5
:1086000005230AF1010A049307938DF853301A9356
:108610005446052214F8011B5148FBF779FD049AD2
:10862000D8B9D00644BF20238DF85330110744BF7A
:108630002B238DF853309AF800302A2B15D0079A47
:10864000544600204FF00A0C214611F8013B303B04
:10865000092B4ED9B0B1079214E0A0EB080309FA38
:1086600003F313430493A246D2E7039B191D1B682F
:108670000391002BBBBF5B4242F0020207930793BA
:10868000B8BF049223782E2B0CD163782A2B35D1D6
:10869000039B1A1D1B680392002BB8BF4FF0FF33DA
:1086A00002340593DFF8C8A0217803225046FBF777
:1086B0002FFD40B14023A0EB0A0003FA00F0049B19
:1086C00003430134049314F8011B26488DF8281045
:1086D0000622FBF71DFD002838D0234B1BBB039B54
:1086E000073323F0070308330393099B33440993AB
:1086F00067E70CFB02320C460120A5E7002301349A
:10870000059319464FF00A0C204610F8012B303A19
:10871000092A03D9002BC5D00591C3E70CFB012121
:1087200004460123F0E703AB00932A460F4B04A94C
:108730003846FEF785F8421C0646D6D1AB895B0663
:108740003FF52CAF09981DB0BDE8F08F03AB009347
:108750002A46064B04A93846FEF716FBEBE700BF96
:10876000ECB30400F6B3040041680100BD840100CD
:10877000F2B3040038B5064D0023044608462B60CA
:1087800000F0E8F8431C02D12B6803B1236038BD28
:108790002008021082B001B901A942B14BB113788F
:1087A0000B601278101E18BF012002B070471046EF
:1087B000FBE76FF00100F8E7884210B501EB020417
:1087C00002D98442234607D8431EA14208D011F89B
:1087D000012B03F8012FF8E7024401468A4200D139
:1087E00010BD13F8014D02F8014DF7E7014800F004
:1087F000A6B800BF24080210014800F0A1B800BFCD
:1088000024080210F8B5074614460E4621B9BDE803
:10881000F8401146FFF7F8BD22B9FFF7A5FD254640
:108820002846F8BD00F08DF8A0420FD22146384608
:10883000FFF7EAFD05460028F2D031462246FFF751
:1088400069FA31463846FFF78FFDE9E73546E7E735
:1088500038B50C460968054609B1FFF7F9FF21460E
:108860002846BDE83840FFF77FBD00002C4B1B6851
:10887000834270B5044651D0436A43B1DB68002B94
:108880004AD1636A196811B12046FFF76DFD61692D
:1088900011B12046FFF768FD616A11B12046FFF76C
:1088A00063FDA16B11B12046FFF75EFDE16B11B1D5
:1088B0002046FFF759FD216C11B12046FFF754FD0A
:1088C000E16D11B12046FFF74FFDA16D11B12046BA
:1088D000FFF74AFD616B11B12046FFF745FDA36923
:1088E000E3B1A36A20469847A16CB9B12046BDE820
:1088F0007040FFF7ADBF495941B90435636A802D17
:10890000D968F8D12046FFF72FFDBAE70E68204658
:10891000FFF72AFD3146EFE70025EFE770BD00BF06
:10892000702C001049B1FF2A85BF8A2303600A70AA
:108930004FF0FF3098BF01207047084670477047DE
:10894000704751F8043C181F002BBCBF0B58C018CF
:1089500070470000044A05491368002B08BF0B4606
:10896000184410601846704780520010588B02104F
:10897000FFF7C8B9012838BF012010B504462046CA
:10898000FFF7B8F930B900F007F808B931F0ACFAE0
:108990008047F4E710BD0000024B1868BFF35B8FFF
:1089A000704700BF84520010FCF780BAFCF7CABAC7
:1089B000FEE7FEE7FEE70000114812490160D1F82A
:1089C00000D01148016841F470010160BFF34F8F7E
:1089D000BFF36F8F0D480E490E4A50F8043B41F823
:1089E000043B9142F9DB0C480C494FF000028842ED
:1089F000B8BF40F8042BFADBFDF7A6FB00BE000071
:108A000008ED00E00040010088ED00E0C035050001
:108A1000002B00104452001048520010588B0210D6
:108A2000034B5868C0F30800003818BF0120704796
:108A300000ED00E007B5064B0093064A064940F2F8
:108A4000415300201BF08AFB03B05DF804FB00BF1C
:108A50008CB5040004B5040028B104002DE9F043EE
:108A6000DFF8D0802D4E8DB04FF0FF31D8F80000E8
:108A70002B4D10F075FF02F031F8044648B301F0B9
:108A80008FFF286811F04FF8264B00931FFA80F9EA
:108A9000254A2649CDF8049040F2852300201BF09A
:108AA0005DFB0027BBB2994502D801F0BBFFDBE7B5
:108AB0004FF0FF3202A9286810F0CAFE34689DF812
:108AC00027309DF9280002AA0DF12901A04701379E
:108AD000E8E7286811F027F8154B00931FFA80F992
:108AE000114A1249CDF8049040F2932320461BF01E
:108AF00035FBA3B29945B7D94FF0FF3202A92868D8
:108B000010F0A6FE37689DF827309DF9280002AACC
:108B10000DF12901B8470134EBE700BF9453001071
:108B2000985300109FB5040004B5040028B1040058
:108B3000BCB504009C5300107FB5027A1A49062385
:108B400053430446CE5A1949CDE90262C3880193C2
:108B5000174B0093174A40F2062300201BF0FEFA41
:108B60006EB1207819F03CF8054640B1207818F035
:108B7000E7FF20B1E288217A28461AF0C4F90A20DA
:108B80001AF046FB014668B12368036063684360DE
:108B900023890381084B8680187804B0BDE87040B3
:108BA0001AF04BBB04B070BD582E001028B1040061
:108BB000D3B5040004B504005408021038B50546C6
:108BC0000089103080B21AF023FB0446B8B12B465E
:108BD000024605F1100153F8040B42F8040B8B42D6
:108BE000F9D104F11000606069682A89FFF792F8F2
:108BF000034B21461878BDE838401AF01EBB38BD3B
:108C00005408021013B5019064201AF001FB0446C9
:108C100058B101996422FFF77DF8054B1878214679
:108C200002B0BDE810401AF008BB02B010BD00BF92
:108C300054080210024A13680BB1013B13607047DD
:108C4000885F00102DE9F0410C468EB000295BD002
:108C50008B789A1E102A46D8084619F00BF9A3788B
:108C6000482B4AD80E2B4FD90F3B392B4CD8DFE875
:108C700013F056007F004B00BD004B004B004B0033
:108C80004B004B004B004B004B004B004B004B008C
:108C90004B004B00CD00FB0010014B0024013501BF
:108CA000440176015E02C402E402F10201030C03F6
:108CB0001A034B004B004B004B004B003303770370
:108CC0004B004B004B004B004B004B0084034B0010
:108CD0004B004B004B004B004B004B004B004B003C
:108CE000D402E500F000203B482BB8D8084619F024
:108CF00075FA204619F0CAFCB1E7682B00F05483DE
:108D000005D8662B00F045830EB0BDE8F0813F33F7
:108D1000DBB2012BF8D820460BF068FEF4E79D4B40
:108D20009D4A00939D4940F2B92300201BF016FA9A
:108D3000628940F204739A4210D1994B964A97493E
:108D4000009300204FF430731BF008FA002395487D
:108D50001A461946006810F04BFCD5E7924B009379
:108D600040F2C5238C4A8D4900201BF0F7F9CBE770
:108D70008E4B894A89490093002040F2CA231BF098
:108D8000EDF9237A0393A3880293E3880193884B38
:108D90000093814A814940F2272300201BF0DEF92D
:108DA000237A012B0CD0022B14D0227A022AABD9C1
:108DB000033AA3882188E08892B201F051F9A3E731
:108DC000E1882078012902D101F05CFAEDE701F099
:108DD00063FAEAE7E2882078012A04D1C222C1219D
:108DE0000BF0ECFDE1E70BF0F9FDDEE7E389019321
:108DF000704B694A0093694940F2CF2300201BF071
:108E0000ADF9E3896C4A033B13807DE76B4B624A03
:108E10006249009300204FF435731BF09FF915F061
:108E2000C7FB17F075FE6648002300681A4619460E
:108E300010F0DEFB01201AF0B5F865E7614B0093F6
:108E40000020554A554940F2DD231BF087F91220D6
:108E5000F1E75D4B009300204F4A504940F2E22376
:108E60001BF07CF91320E6E7584B4B4A4B49009323
:108E7000002040F2E7231BF071F9554B55480122C1
:108E80001A60002300681A46194610F0B1FB03204F
:108E9000D1E7514B404A41490093002040F2EF2373
:108EA0001BF05CF94A4A4D480023136000681A46DB
:108EB000194610F09DFB0420BDE7494B364A37495F
:108EC0000093002040F2F7231BF048F9454B464839
:108ED00001221A6000231A4619463BE7414B4348DA
:108EE00000241C60006823462246214610F080FBC7
:108EF0003F4B009340F2013334E73E4B1B68002B9D
:108F00003FF402AF257A002D3FF4FEAE61682A4699
:108F100004A8FEF7FFFE2346374853F80C2FCDF880
:108F200031209B88ADF83530637A8DF83030006899
:108F30008DF82F5000230A2204A910F059FB0128B4
:108F400008D02E4B0093144A144940F212330020EB
:108F50001BF004F900232A481A461946FAE6294B61
:108F6000294D0E490093002040F21B330A4A1BF0A2
:108F7000F5F895F82D10254B254803294AD10522EF
:108F80001A7002225A70012299701A71DA70002345
:108F9000037149E0FFB5040004B5040028B10400E2
:108FA00015B604004C08021019B604001FB60400E0
:108FB00032B604005AB60400562E00106CB60400F7
:108FC000440802107EB6040093B60400A7B604005D
:108FD0008C5F001038080210B4B60400500802106C
:108FE000C1B60400945F0010480802103408021053
:108FF000CDB604009453001098530010D8B6040066
:109000009C530010EFB60400942E0010222F001085
:10901000282F0010012202291A707ED159700321D5
:1090200099701A71DA700171B24B00222046DA6031
:109030001A6101F03DF920460BF0D8FC204600F003
:10904000EBFF95F82D30012B21D02078012101F084
:1090500019F995F82D30012B19D002232078C2225E
:10906000C1210BF0ABFC95F82D30012B0FD0A24F96
:1090700003264FF0060808FB06F3DB5B23B1F11E65
:109080002078C9B200F0BCFF01360A2EF3D19B480C
:1090900000231A461946006810F0AAFA98480023DF
:1090A0001A461946006810F0A3FA964B00221A607F
:1090B000954B01221A6095F82D30934205D0204639
:1090C00018F070FD207819F03DFC904B04AA03F1D4
:1090D0000806154618685968144603C40833B34295
:1090E0002246F7D118681B79206023712846FBF7C8
:1090F00007F8874C002302462946184603F0F6FE7F
:10910000236843B101F0EAFC70B101F049FC236827
:10911000984701F087FC08208DE6002159709A706D
:109120001971D970032333E723689847F3E7794827
:1091300000231A461946006810F05AFA237A019360
:10914000754B764A76490093002040F28F331BF02E
:1091500005F8684B714A72490025DD601D6123885E
:109160000193704B0093284640F267231AF0F6FFF4
:10917000207801F09BF820780BF04AFB00F030FFDC
:10918000694B14221A805F4B01221A605E4B1D60EE
:10919000664B04AA03F11006154618685968144670
:1091A00003C40833B3422246F7D12846FAF7A8FF92
:1091B0005F4C002302462946184603F097FE2368B9
:1091C00043B101F08BFCA8B101F0EAFB236898479A
:1091D00001F028FC574B584A029340F2AD3300206F
:1091E0004F49019300924D4A1AF0B8FFFFF722FD54
:1091F000092020E623689847ECE7504B474A484946
:109200000093002040F2B5331AF0A8FF204600F08A
:1092100003FF204601F04CF87DE5237A0393637A3F
:10922000029323790193464B00933C4A3C4940F218
:10923000C63300201AF092FF66E5424B374A3849A0
:109240000093002040F2CA331AF088FF17F060FC48
:109250000A20F0E53C4B314A3149009300204FF49D
:1092600074731AF07BFF17F053FC207818F0A7FCFA
:109270000B20E0E5354B00930020284A284940F2B6
:10928000DA331AF06BFF0C20D5E5314B234A244921
:109290000093002040F2DF331AF060FF207818F0CE
:1092A0008EFC0D20C7E52B4B1C4A1D490093002066
:1092B0004FF47A731AF052FF274830F01CFE042353
:1092C000ADF81000000C8DF81200A370207804AAED
:1092D000032117F0B1FB17E5204B00930F4A10490B
:1092E00040F2FE3300201AF039FF201D17F018FC61
:1092F0000AE500BF402E0010582E00105008021042
:10930000380802108C5F0010905F001034B8040021
:109310008C5300103C08021000B7040004B5040090
:1093200028B1040026B70400562E001041B80400EE
:109330009053001020BA04003FB7040051B7040056
:1093400058B7040085B7040095B70400A2B704001D
:10935000B0B70400C5B70400BA2E0010D5B704009A
:10936000144B0093144A154940F2044300201AF0AC
:10937000F5FE204618F016FCC6E4E3780193104B86
:1093800000930D4A0D4940F2094300201AF0E6FE11
:10939000BAE40C4B00930020074A084940F20D4301
:1093A0001AF0DCFE1B2046E5074B009340F2134306
:1093B000D8E400BFDDB7040004B5040028B1040000
:1093C000E5B7040008B8040018B80400174B184AA1
:1093D00010B51870174B1A60174B184A1A60184BC3
:1093E000184A1A60184B194A1A60194B194A1A6020
:1093F000194B1A4A1A60044618F058FC18F0CEFEB1
:1094000018F042FD18F078FB2046154900F0C6FE22
:10941000204614490BF0DCF92046134900F0CAFD40
:10942000BDE81040114817F031BB00BF54080210CE
:109430001A2F0010547D0210007E021038BA04006A
:109440006C7D0210A45300104C7D0210222F0010DE
:10945000687D0210C82E0010A0470010282F0010B1
:109460001CBA040034BA040018BA0400FE2E00101E
:109470001A4908B5084616F019FF1849032016F0D6
:10948000DFFC174814F008F8164814F01FF8164BC4
:10949000164A1878164914F015FD1649164819F0A1
:1094A0000FFE16481E2119F0DDFD1548438902897B
:1094B000C188808819F0E8FD19F0F4FD11491248BF
:1094C00000F034FE00F02CFE104900200BF0AEFA44
:1094D0000BF0A6FABDE8084016F0B4BE058C0100FA
:1094E000BD8B0100211D0300C42E0010398B01002B
:1094F000582E00104530030025300300952E001033
:10950000C82E0010B1A1010019A20100714802008B
:1095100013B519F031FF1AF05FF8364B36490422C3
:109520004FF4386019F0D8FDB0F5386F0BD9334BD4
:109530000093A0F538600190314A32494FF49D63A1
:1095400000201AF00BFE13F06DFE13F099FC13F0DF
:1095500077FD13F0E3FD2C4819F002FF17F032FB02
:109560002A4819F0FDFE0446002016F081FE16F090
:10957000BBF917F097F916F04FFC16F0DDFD17F068
:1095800075FA17F005FB17F033F8204616F0C0FE09
:109590001F4819F0E5FE17F091FC17F099FB17F042
:1095A00037FC1C4819F0DCFE13F04CFF14F0DAFF16
:1095B00014F05AFE14F0DCF9174819F0D1FE18F037
:1095C00033F818F085FA18F079FAFB2012F06EFBE8
:1095D000124819F0C5FE18F0BDFA114819F0C0FE86
:1095E00011F0F8FA0F4819F0BBFE02B0BDE81040C8
:1095F000FFF7ECBEEE2E0010E853001051B8040047
:1096000004B5040028B10400D90B030029030300AA
:10961000CD0E03007DD402008D160300611B0300F4
:10962000A5AC0200458C010011F0E6BA07B5084B65
:109630000093084A084940F24B5300201AF08EFD6F
:10964000064B802283F80C2303B05DF804FB00BFB7
:1096500070B8040004B5040028B1040000E100E083
:10966000024B4FF0FF31186810F07AB9440802102D
:10967000F0B5054685B024480F4603F082FD234B24
:10968000234A244900241C70234B01900646009372
:10969000204640F291531AF061FD204B00931C4A82
:1096A0001C49019740F2925320461AF057FDB742E9
:1096B00015D91B4B0093CDE901672046144A154983
:1096C00040F29F531AF04AFD2C467719BC4215D13F
:1096D000324607E0295D03200AF052FC0134A7421C
:1096E000F8DC3A462946084803F051FD0D480AF0D7
:1096F00027FD05B0BDE8F04001F032B914F8011BB8
:1097000003200AF03DFCE1E7402E00106C37021008
:1097100004B5040028B1040081B8040093B8040023
:10972000B3B80400102F0010014803F021BD00BFA2
:10973000402E00100A460146014803F075BD00BFE7
:10974000402E00102DE9FF472F4EDFF8D0803788DC
:10975000DFF8CC90DFF8CCA005460C463388A34256
:1097600015D32246294640F2047000F0E5FC00289B
:1097700038D125440446FFF753F998B9B9F80610D3
:10978000D8F8000001EB410110F0EAF81BE03A467E
:10979000294640F2047000F0CFFC18BBE41B3D44A6
:1097A000A4B2E8E7D8F8000003AA002110F07CF981
:1097B00048B1039B3BB14FF08053CAF80030BFF370
:1097C0004F8FBFF36F8F002CC8D100240F4B009335
:1097D00020460F4A0F49019440F2EA531AF0BEFCAA
:1097E00020460DE0002CF0D00B4B00930020084ADF
:1097F0000849019440F2E6531AF0B0FC6FF00600FD
:1098000004B0BDE8F08700BF562E0010EFB804008A
:1098100004B5040028B10400DAB804004C080210B2
:10982000C82E001004ED00E0704770477047704785
:109830007047000037B5344C2378002B62D1334D8C
:10984000296821B9032201200FF0AAFE2860304DBB
:10985000296821B9032201200FF0A2FE28602D4DB6
:10986000296821B9032201200FF09AFE28602A4DB1
:10987000296821B9032201200FF092FE2860274DAC
:10988000296821B9032201200FF08AFE2860244DA7
:10989000296821B9032201200FF082FE2860214DA2
:1098A000296821B9032201200FF07AFE28601E4D9D
:1098B0002A6822B927210A200FF072FE28601B4D6A
:1098C000296821B9032201200FF06AFE2860184A96
:1098D000136843B9019202220092164916484FF4C8
:1098E000807210F0BBF9FFF7A1FE144B0193032324
:1098F00000931349134800234FF4007210F0AEF99F
:109900000123237003B030BD685F001050080210BF
:10991000380802103C0802104808021034080210EF
:109920004C08021044080210985300109C53001079
:10993000A053001007B904005D8A0100400802101E
:1099400017B90400419E0100114B1B68012B13B590
:109950001BD0104C2268012A0AD119F0E5F8FFF754
:109960005FF80D4B58B1186801AA002110F09CF85F
:109970000A4B0020D8602060186102B010BD186842
:109980004FF47A710FF0ECFFF2E76FF00600F4E7A6
:10999000905F00108C5F001050080210402E0010E5
:1099A00037B50020FFF7D0FF574B93F82430002B3A
:1099B00030D1564B564A03F1140153F8040B42F8C8
:1099C000040B8B42F9D11B78524D534C1370152167
:1099D0004F4A2970022019F06FF8504A217803206D
:1099E00019F06AF84A4A2978002019F065F84B4ABC
:1099F0002178012019F060F8002019F0A5F8484BF3
:109A0000009340F26F63474A474900201AF0A6FBD3
:109A100003B030BD012B40D1444B1B78FBB9444A05
:109A20003B4B116819605168127A1A72414A5960A9
:109A3000093302F1140152F8040B43F8040B8A4273
:109A4000F9D112781A70334B37491E221A703A4BEB
:109A50000093344A40F2796300201AF07FFB2D4DC9
:109A60002D4C2B4A2978022019F026F82B4A217810
:109A7000032019F021F8264A2978002019F01CF853
:109A8000264A2178012019F017F8032019F05CF814
:109A90002A4B009340F28763B5E7032BB8D1284BDC
:109AA000284A03F1100153F8040B42F8040B8B42CF
:109AB000F9D1254B164A03F1140153F8040B42F86F
:109AC000040B8B42F9D11B78124D134C13701521E6
:109AD0000F4A2970022018F0EFFF104A2178032066
