:020000021000EC
:10400000002B0010A17E0100997E010001530100E8
:104010009B7E01009B7E01009B7E01000000000052
:104020000000000000000000000000000184020009
:104030009D7E01000000000071840200D584020012
:104040009D7E01009D7E01009D7E01009D7E010000
:104050009D7E01009D7E01009D7E01009D7E0100F0
:1040600031B501009D7E01009D7E01009D7E010015
:10407000118B0100ED110400EDA2010069C10100E6
:1040800071C201009D7E01003D0D04009D7E010076
:104090009D7E01009D7E010031A30100718602001A
:1040A000918602009D7E01009D7E01009D7E0100A3
:1040B0009D7E01009D7E01009D7E01009D7E010090
:1040C00000000000000000000000000000000000F0
:1040D00000000000000000000000000000000000E0
:1040E00000000000000000000000000000000000D0
:1040F00000000000000000000000000000000000C0
:10410000034613F8012B002AFBD1181A0138704717
:1041100001F0FF01102A2BDB10F0070F08D010F878
:10412000013B013A8B422DD010F0070F42B3F6D17C
:10413000F0B441EA012141EA014122F007047FF095
:1041400000070023F0E80256083C85EA010586EAEC
:10415000010685FA47F5A3FA87F586FA47F6A5FA28
:1041600087F68EB9EED1F0BC01F0FF0102F0070234
:1041700032B110F8013B013A83EA010313B1F8D1DF
:104180000020704701387047002D06BF35460338C0
:10419000073815F0010F07D1013015F4807F02BFF9
:1041A000013015F4C03F0130F0BC0138704700BF4A
:1041B00010F8012B11F8013B012A28BF9A42F7D0D1
:1041C000D01A704781F0004102E000BF83F0004345
:1041D00030B54FEA41044FEA430594EA050F08BFA2
:1041E00090EA020F1FBF54EA000C55EA020C7FEA66
:1041F000645C7FEA655C00F0E2804FEA5454D4EBE3
:104200005555B8BF6D420CDD2C4480EA020281EAAC
:10421000030382EA000083EA010180EA020281EAE4
:104220000303362D88BF30BD11F0004F4FEA013136
:104230004FF4801C4CEA113102D0404261EB410145
:1042400013F0004F4FEA03334CEA133302D05242CB
:1042500063EB430394EA050F00F0A780A4F1010487
:10426000D5F1200E0DDB02FA0EFC22FA05F28018C1
:1042700041F1000103FA0EF2801843FA05F35941A7
:104280000EE0A5F120050EF1200E012A03FA0EFC26
:1042900028BF4CF0020C43FA05F3C01851EBE37150
:1042A00001F0004507D54FF0000EDCF1000C7EEB6D
:1042B00000006EEB0101B1F5801F1BD3B1F5001FAB
:1042C0000CD349085FEA30004FEA3C0C04F10104CA
:1042D0004FEA445212F5800F80F09A80BCF1004FF3
:1042E00008BF5FEA500C50F1000041EB045141EA75
:1042F000050130BD5FEA4C0C404141EB0101013C3E
:1043000028BFB1F5801FE9D291F0000F04BF01462C
:104310000020B1FA81F308BF2033A3F10B03B3F1FE
:1043200020020CDA0C3208DD02F1140CC2F10C028E
:1043300001FA0CF021FA02F10CE002F11402D8BFEC
:10434000C2F1200C01FA02F120FA0CFCDCBF41EAB8
:104350000C019040E41AA2BF01EB0451294330BD87
:104360006FEA04041F3C1CDA0C340EDC04F1140464
:10437000C4F1200220FA04F001FA02F340EA03003B
:1043800021FA04F345EA030130BDC4F10C04C4F181
:10439000200220FA02F001FA04F340EA0300294661
:1043A00030BD21FA04F0294630BD94F0000F83F4AB
:1043B000801306BF81F480110134013D4EE77FEA8E
:1043C000645C18BF7FEA655C29D094EA050F08BFDA
:1043D00090EA020F05D054EA000C04BF19461046BB
:1043E00030BD91EA030F1EBF0021002030BD5FEAFF
:1043F000545C05D14000494128BF41F0004130BD27
:1044000014F580043CBF01F5801130BD01F000457A
:1044100045F0FE4141F470014FF0000030BD7FEAED
:10442000645C1ABF194610467FEA655C1CBF0B46E8
:10443000024650EA013406BF52EA033591EA030FFF
:1044400041F4002130BD00BF90F0000F04BF0021F7
:10445000704730B54FF4806404F132044FF000052A
:104460004FF0000150E700BF90F0000F04BF0021A3
:10447000704730B54FF4806404F1320410F0004509
:1044800048BF40424FF000013EE700BF42004FEA04
:10449000E2014FEA31014FEA02701FBF12F07F4381
:1044A00093F07F4F81F06051704732F07F4208BF38
:1044B000704793F07F4F04BF41F40021704730B53F
:1044C0004FF4607401F0004521F000411CE700BF8B
:1044D00050EA010208BF704730B54FF000050AE00E
:1044E00050EA010208BF704730B511F0004502D50F
:1044F000404261EB41014FF4806404F132045FEA11
:10450000915C3FF4D8AE4FF003025FEADC0C18BFB9
:1045100003325FEADC0C18BF033202EBDC02C2F1AB
:10452000200300FA03FC20FA02F001FA03FE40EA3D
:104530000E0021FA02F11444BDE600BF70B54FF041
:10454000FF0C4CF4E06C1CEA11541DBF1CEA13551F
:1045500094EA0C0F95EA0C0F00F0DEF82C4481EA87
:10456000030621EA4C5123EA4C5350EA013518BFA7
:1045700052EA033541F4801143F4801338D0A0FB94
:1045800002CE4FF00005E1FB02E506F00042E0FB41
:1045900003E54FF00006E1FB03569CF0000F18BF47
:1045A0004EF0010EA4F1FF04B6F5007F64F54074EF
:1045B00004D25FEA4E0E6D4146EB060642EAC62182
:1045C00041EA55514FEAC52040EA5E504FEACE2EEF
:1045D000B4F1FD0C88BFBCF5E06F1ED8BEF1004FF2
:1045E00008BF5FEA500E50F1000041EB045170BD6E
:1045F00006F0004646EA010140EA020081EA0301B2
:10460000B4EB5C04C2BFD4EB0C0541EA045170BDAD
:1046100041F480114FF0000E013C00F3AB8014F127
:10462000360FDEBF002001F0004170BDC4F1000470
:10463000203C35DA0C341BDC04F11404C4F12005F1
:1046400000FA05F320FA04F001FA05F240EA02004C
:1046500001F0004221F0004110EBD37021FA04F682
:1046600042EB06015EEA430E08BF20EAD37070BD3C
:10467000C4F10C04C4F1200500FA04F320FA05F09B
:1046800001FA04F240EA020001F0004110EBD3709D
:1046900041F100015EEA430E08BF20EAD37070BD0D
:1046A000C4F1200500FA05F24EEA020E20FA04F3E6
:1046B00001FA05F243EA020321FA04F001F0004195
:1046C00021FA04F220EA020000EBD3705EEA430E06
:1046D00008BF20EAD37070BD94F0000F0FD101F035
:1046E0000046400041EB010111F4801F08BF013C6E
:1046F000F7D041EA060195F0000F18BF704703F0AC
:104700000046520043EB030313F4801F08BF013D32
:10471000F7D043EA0603704794EA0C0F0CEA1355EE
:1047200018BF95EA0C0F0CD050EA410618BF52EAA8
:104730004306D1D181EA030101F000414FF00000AE
:1047400070BD50EA410606BF1046194652EA4306BC
:1047500019D094EA0C0F02D150EA013613D195EA30
:104760000C0F05D152EA03361CBF104619460AD178
:1047700081EA030101F0004141F0FE4141F4700182
:104780004FF0000070BD41F0FE4141F4780170BD72
:1047900070B54FF0FF0C4CF4E06C1CEA11541DBFD7
:1047A0001CEA135594EA0C0F95EA0C0F00F0A7F8D9
:1047B000A4EB050481EA030E52EA03354FEA013106
:1047C00000F088804FEA03334FF0805545EA131319
:1047D00043EA12634FEA022245EA111545EA1065E1
:1047E0004FEA00260EF000419D4208BF964244F178
:1047F000FD0404F5407402D25B084FEA3202B61A97
:1048000065EB03055B084FEA32024FF480104FF46A
:10481000002CB6EB020E75EB030E22BFB61A7546DE
:1048200040EA0C005B084FEA3202B6EB020E75EB71
:10483000030E22BFB61A754640EA5C005B084FEAD9
:104840003202B6EB020E75EB030E22BFB61A7546A6
:1048500040EA9C005B084FEA3202B6EB020E75EBB1
:10486000030E22BFB61A754640EADC0055EA060E72
:1048700018D04FEA051545EA16754FEA06164FEAB5
:10488000C30343EA52734FEAC2025FEA1C1CC0D161
:1048900011F4801F0BD141EA00014FF000004FF0EE
:1048A000004CB6E711F4801F04BF01430020B4F1AF
:1048B000FD0C88BFBCF5E06F3FF6AFAEB5EB030C67
:1048C00004BFB6EB020C5FEA500C50F1000041EB64
:1048D000045170BD0EF0004E4EEA113114EB5C0431
:1048E000C2BFD4EB0C0541EA045170BD41F4801104
:1048F0004FF0000E013C90E645EA060E8DE60CEA0C
:10490000135594EA0C0F08BF95EA0C0F3FF43BAF28
:1049100094EA0C0F0AD150EA01347FF434AF95EADF
:104920000C0F7FF425AF104619462CE795EA0C0FC3
:1049300006D152EA03353FF4FDAE1046194622E790
:1049400050EA410618BF52EA43067FF4C5AE50EA6A
:1049500041047FF40DAF52EA43057FF4EBAE12E75A
:104960004FF0FF3C06E000BF4FF0010C02E000BF3B
:104970004FF0010C4DF804CD4FEA410C7FEA6C5C1E
:104980004FEA430C18BF7FEA6C5C1BD001B050EAC1
:10499000410C0CBF52EA430C91EA030F02BF90EAAC
:1049A000020F0020704710F1000F91EA030F58BF6B
:1049B000994208BF90422CBFD8176FEAE37040F0CD
:1049C000010070474FEA410C7FEA6C5C02D150EA6B
:1049D000013C07D14FEA430C7FEA6C5CD6D152EA26
:1049E000033CD3D05DF8040B704700BF84461046EB
:1049F00062468C461946634600E000BF01B5FFF7EA
:104A0000B7FF002848BF10F1000F01BD4DF808EDB9
:104A1000FFF7F4FF0CBF012000205DF808FB00BF8A
:104A20004DF808EDFFF7EAFF34BF012000205DF8E4
:104A300008FB00BF4DF808EDFFF7E0FF94BF012031
:104A400000205DF808FB00BF4DF808EDFFF7CEFF32
:104A500094BF012000205DF808FB00BF4DF808ED71
:104A6000FFF7C4FF34BF012000205DF808FB00BF42
:104A70004FEA410C7FEA6C5C02D150EA013C0AD15A
:104A80004FEA430C7FEA6C5C02D152EA033C02D14C
:104A90004FF0000070474FF0010070474FEA4102AD
:104AA00012F5001215D211D56FF47873B3EB625280
:104AB00012D94FEAC12343F0004343EA505311F0A7
:104AC000004F23FA02F018BF404270474FF0000039
:104AD000704750EA013005D111F0004008BF6FF077
:104AE000004070474FF00000704700BF53B94AB90B
:104AF000002908BF00281CBF4FF0FF314FF0FF30E6
:104B000000F06EB9ADF1080C6DE904CE00F006F8C6
:104B1000DDF804E0DDE9022304B070472DE9F04739
:104B2000089D04468C46002B40F083808A4217463D
:104B300047D9B2FA82F242B1C2F1200024FA00F061
:104B40009140974040EA010C94404FEA1748230CEB
:104B5000BCFBF8F61FFA87FE08FB16C143EA0143C7
:104B600006FB0EF1994209D9FB1806F1FF3080F0DF
:104B70001981994240F21681023E3B445B1AA4B26D
:104B8000B3FBF8F008FB103344EA034400FB0EFECD
:104B9000A64509D93C1900F1FF3380F00581A645EF
:104BA00040F2028102383C4440EA0640A4EB0E0485
:104BB00000261DB1D4400023C5E900433146BDE8BD
:104BC000F08702B9FFDEB2FA82F2002A50D1CB1B85
:104BD0004FEA174E1FFA87F80126B3FBFEFC210CA3
:104BE0000EFB1C3341EA034108FB0CF38B4207D94F
:104BF00079180CF1FF3002D28B4200F2E980844632
:104C0000C91AA3B2B1FBFEF00EFB101143EA014436
:104C100008FB00F8A04507D93C1900F1FF3302D288
:104C2000A04500F2D9801846A4EB080440EA0C40E5
:104C3000BFE78B4209D9002D00F0B1800026C5E9FD
:104C4000000130463146BDE8F087B3FA83F6002E06
:104C50004AD18B4202D3824200F2B880841A61EBBF
:104C6000030101208C46002DA8D0C5E9004CA5E722
:104C7000C2F1200320FA03F6974001FA02F04FEA4E
:104C8000174ED9403043030CB1FBFEF61FFA87F8EC
:104C90000EFB161143EA014306FB08F1994204FAA0
:104CA00002F409D9FB1806F1FF3C80F08D8099428F
:104CB00040F28A80023E3B445B1A81B2B3FBFEF0B5
:104CC0000EFB103341EA034100FB08F38B4207D986
:104CD000791800F1FF3C73D28B4271D90238394404
:104CE000CB1A40EA064678E7C6F1200C03FA06F430
:104CF00022FA0CF31C4320FA0CF701FA06F34FEAF0
:104D0000144E21FA0CF11F433B0CB1FBFEF91FFAC4
:104D100084F80EFB191143EA014109FB08FA8A45A0
:104D200002FA06F200FA06F308D9611809F1FF3019
:104D300048D28A4546D9A9F102092144A1EB0A01CA
:104D4000BFB2B1FBFEF00EFB101147EA014700FBBA
:104D500008F8B84507D9E71900F1FF312ED2B84558
:104D60002CD90238274440EA0940A7EB0807A0FBEA
:104D700002894F45C64649461AD317D05DB1B3EBF9
:104D80000E0267EB010707FA0CFCF2404CEA020244
:104D9000F740C5E9002700263146BDE8F0872E46DA
:104DA00028460BE70646E9E61846FDE64345E5D208
:104DB000B8EB020E69EB04010138DFE70846D2E7E1
:104DC00060468DE78146B9E7664675E730464AE7B3
:104DD000ACF1020C394413E702383C4424E700BF2D
:104DE000704700BF284B294870B593E8060007F0CC
:104DF00099FD0021012007F040FF9F21234807F083
:104E0000D2FD0021214807F0CEFD002106461F48B3
:104E100007F0C9FD002105461C4807F0C4FD01212B
:104E20000446084607F029FF184807F0AAFD18496C
:104E3000184807F081FE1849164807F066FE102250
:104E40003146144807F0EEFE1449124807F05DFEA3
:104E5000102229460F4807F0E5FE11490D4807F0DA
:104E600054FE0C481022214607F0DCFE682E09D1C2
:104E7000402D07D1182C05D10A490648BDE87040DD
:104E800007F05ABE0849F8E7485200107073001046
:104E9000D8A004000C730010ECA0040000A10400D2
:104EA00013A1040026A104003FA1040010B5184C72
:104EB000184807F0D7FD062202234FF4E1312046BF
:104EC00007F0B8FC4FF4FA600DF0B6FD1249204629
:104ED00007F032FE1149204607F02EFE104B01214B
:104EE000187807F0B3FE0F4B0121187807F0AEFEDB
:104EF0000121084607F0AAFE0121084607F0BDFE81
:104F0000094807F001FDBDE81040FFF76BBF00BF87
:104F10000C730010747300106BA1040095A10400C1
:104F2000002B0010012B0010707300102DE9F041D0
:104F3000354B364F1878364DDFF8FC80002107F0EE
:104F40009CFE1F2007F078FE324B014618600A22B3
:104F50002F4807F051FE30492D4807F0EDFD00269F
:104F600001242146384607F091FD0121384607F01B
:104F700099FD10F0FF002ED12849254807F0C5FD06
:104F80000F2C03D82649284607F0BFFD10222146E2
:104F9000284607F045FE2349284607F0CDFD013697
:104FA0000134E4B27F2CDCD13EBB1F4918481F4CB2
:104FB00007F0C2FD1E4B1878236803BB012107F0E0
:104FC0005CFE01232360FFF70DFFBDE8F04141F2D5
:104FD00088300DF031BD0428E2D10D48414607F07C
:104FE00094FD0F2C03D80E49284607F08EFD1022A1
:104FF0002146284607F016FED2E70E49D6E70021E3
:1050000007F03BFE0023DDE7012B00107473001056
:105010000C73001054520010CCA10400D8A104005D
:1050200022C00400F7A1040017A20400505200108F
:10503000002B00102DA20400FBA10400034B044A26
:105040001A604FF480729A80704700BF4852001077
:1050500040420F0005F0A6BE05F0A9BE13B50B4CEB
:1050600023780BB900F090F808230B22CDE9003229
:10507000074809230A22002100F052FB00F090FBB0
:1050800023780BB90123237002B010BD58520010D1
:1050900054820210BFF34F8F0549064BCA6802F4D1
:1050A000E0621343CB60BFF34F8F00BFFDE700BF4B
:1050B00000ED00E00400FA05292070470DF0D1BC96
:1050C000F8B50C462F2C9DF81850079F0646114640
:1050D00005DC631C047002D012B1012A12D0F8BDA5
:1050E000012D0DD0022D01D025B9022120460DF051
:1050F0000DFEB57220460021BDE8F8400DF004BE5B
:105100002946F3E720460DF0FFFD391E204618BF63
:105110000121BDE8F8400DF0FBBD38B5044690F91B
:1051200000002F281D4615DCA3B1022923610DD0F4
:1051300003290DD001290DD103210DF0EDFD94F9C6
:1051400000002946BDE838400DF0E8BD0521F4E730
:105150000621F2E738BD90F900002F2806DC431C39
:1051600004D0003918BF01210DF0D2BD704708B539
:1051700090F900002F2804DC431C02D00DF0CAFD7A
:1051800008BD0020FCE7000010B5054C23782BB9C2
:10519000044902200DF0D0FE0123237010BD00BF92
:1051A000595200100D0B040010B502200DF0CCFE7A
:1051B000064B1A681860044600219442596002D2D6
:1051C00005F0CEF90444204610BD00BF6052001027
:1051D000014B1868704700BF605200100A207047EA
:1051E0000DF0A8BE0DF0A4BE02200DF0ABBE000075
:1051F00007B50190022005F07BF9044A01990220CD
:1052000003B05DF804EB0DF09BBE00BF60520010D0
:10521000FFF7EEBF022005F081B9000008B5034B8F
:1052200002201A6800230DF093FE08BD60520010A2
:1052300070B5064602200DF089FE4FF47A72002305
:1052400005460C46FFF752FC0023328028464FF4F7
:105250007A722146FFF74AFC70BD10B50C460CF07F
:10526000D7F92046BDE810400CF0E4B938B50C463B
:1052700005460CF0C7F928600CF0D6F9206038BD5F
:10528000704708B5012012F05BFC002008BD704794
:1052900000BEFDE7FEE70000BFF34F8F0549064B58
:1052A000CA6802F4E0621343CB60BFF34F8F00BFC4
:1052B000FDE700BF00ED00E00400FA0570B50C4DFD
:1052C0000C4C641BA4100026A64207D10A4D0B4CBF
:1052D000641BA4100026A64205D170BD55F8043BFE
:1052E00098470136F0E755F8043B98470136F2E756
:1052F0000000000000000000909F0400A09F040038
:1053000008B5FFF7C9FF08B5FFF7C6FF13B5037867
:10531000092B11D8DFE803F0126A909910A1A105BA
:10532000A5A9047920460CF0CDF820460CF072F8BF
:10533000002120460CF0CEF802B010BD01200CF088
:10534000C1F8012823D100200CF0BCF80128F3D0CB
:10535000484B1B781BB142F2107004F023FB002075
:105360000EF016F80028E7DD012201A900200DF05B
:10537000D5FE00200CF0A6F804460028EFD10DF071
:10538000E5FF58BB9DF804100BF0B0FFE7E7394B81
:105390001B781BB142F2107004F004FB01200DF0E9
:1053A000F7FF0028CFDD012201A910460DF0B6FE5F
:1053B00001200CF087F80028F0D101200DF0C6FF85
:1053C00028B99DF8041001200BF090FFE6E70128B2
:1053D000E4D19DF804100DF00FFFDFE70128BED1E6
:1053E0009DF8041020460DF007FFB8E703200CF0ED
:1053F00069F80128A0D003200DF0CAFF00289BDD2A
:10540000012201A903200DF089FE03200CF05AF8B7
:105410000028F0D103200DF099FF28B99DF8041061
:1054200003200BF063FFE6E70128E4D19DF80410A8
:1054300003200DF0E1FEDEE70F4B1B6E03B1984732
:1054400020F074FD07F036FC76E70C4B1B68002B50
:105450003FF472AF406898476EE740680EF0ACF8D2
:105460006AE700200DF07EFD66E740680DF05CFC09
:1054700062E700BF6C5200109C040500B8280210BF
:1054800030B5474B474A1B68474999B00024019300
:10549000464B0093204640F2CD13CDE903441EF065
:1054A00065F80EF07DF80DF0DFFA0DF00BFA0CF058
:1054B000E1F823460146054603222046CDE9004493
:1054C0000DF052FD23462946CDE900440322012078
:1054D0000DF04AFD36494FF478231A68501C0ED05F
:1054E00002F00300012810D022F00302B2F5801F61
:1054F0000BD204338B42F0D11B68013305D108AACB
:1055000008214FF4782012F08FFA0DF033FA03F0EF
:105510001BFB0DF065FA082103A807F0F5FD9DF8C7
:1055200013309DF811202349009308A89DF81230EC
:1055300000F0DAFF08A8FEF7E3FDC1B208A80DF0FD
:1055400023FA0C2105A80CF06DF905A80DF01EFA40
:10555000002103200BF0BEFF00240322234629462E
:105560001046CDE900440DF0FFFC0BF077FF0CF086
:1055700069F909F021FBE5B228460BF0A3FF10B949
:1055800028460BF047FF0134042CF4D10DF0ECFF5A
:105590000CF060FE012801D109F07AFE19B030BD8F
:1055A0006C2C001054A20400D4A20400DCA204005D
:1055B00024800F00ECA2040008B5044B1B6E03B15D
:1055C0009847BDE808400DF0DDBF00BF9C04050012
:1055D000F8B5FFF755FF02F05BFC1D480DF062FDCA
:1055E00007F078FE012822D0022822D010B91948ED
:1055F0000DF058FD184F194D194EFFF7DDFF3C789F
:10560000CCB92B7883B142F210700DF015FA234615
:105610000722314620462C7006F0CCFE2346072296
:105620003146012006F0C6FE02F034FCE5E70D48E5
:10563000DEE70D48DCE70BF089FF0028DDD02B7892
:1056400003F0FF00002BD8D10DF032FCD5E700BFEE
:10565000FDA2040011A304006C5200104860001069
:1056600034A304001DA3040028A3040007B5FFF71A
:1056700025FE1DF06FFF234B234A24490093002091
:105680004FF421731DF072FF002108460FF08CFECD
:10569000024620B11C4940F28E201DF08FFF1C48AD
:1056A0000FF0B2FD024620B117494FF425701DF0EE
:1056B00085FF0FF0CBFD024620B1134940F2962042
:1056C0001DF07CFF12F09CFA012012F0A1FA12F0FA
:1056D00085F8024620B10C4940F2A7201DF06EFF6C
:1056E00012F03CF90B4B019301230B4900934FF44B
:1056F00080520023094813F0B9FC13F0C1FDFFF7F5
:10570000CBFD00BF3CA3040054A20400D4A20400BB
:10571000B8E504006852001055A30400D1550100FB
:105720002DE9F3410C460025064600F8044B0224FF
:105730009DF9208011461F4622462B46CDE90045A3
:105740002AF0E4FF2B462246394606F11800CDE93F
:1057500000452AF0DBFF06F12C00CDE900452B4681
:10576000224641462AF0D2FF012002B0BDE8F041B6
:105770000DF07EBE7FB501220023ADF80E108DF82E
:105780001730019300920DF117030DF10E01104631
:105790000DF0D2FE9DF8170007B05DF804FB000085
:1057A00073B5174E0024012523462A463046CDE91D
:1057B00000450B212AF0AAFF23462A46A6F1A400A1
:1057C000CDE9004511212AF0A1FF23462246A6F18A
:1057D0009000CDE9004410212AF098FF234622468C
:1057E000A6F17C00CDE900440F212AF08FFF2B4663
:1057F00002222946122002B0BDE870400DF082BAA4
:105800009482021003460322014801212AF086BF38
:10581000188202104FF4207101202AF0A1BD0A2045
:10582000704701202AF090BD014B1878704700BFE7
:105830006D520010014B1870704700BF6D52001080
:1058400010B50A4C0A202AF05FFF002120462AF0FA
:1058500067FF14202AF058FF204601212AF060FF3C
:10586000BDE810400A202AF04FBF00BFF0810210AF
:1058700010B5034C20462AF055FF0128FAD010BD80
:105880000482021038B50C4C00212046A4F14005DA
:105890002AF046FFC0212846FFF76CFF002128466A
:1058A000FFF768FF012120462AF03AFFFFF7E0FFEB
:1058B000024B01221A7038BD948202106D52001002
:1058C000F8B5154606460C462AF032FB0E480F4F37
:1058D00000212AF025FF0D483146FFF74BFF2544F4
:1058E000AC4209D1084801212AF01AFF842E09D0C0
:1058F000BDE8F840FFF7BCBF14F8011B3846FFF7BE
:1059000039FFEDE7F8BD00BF948202105482021007
:10591000F8B5154606460C462AF00AFB0F48104F0C
:1059200000212AF0FDFE31460D48FFF723FF0C4809
:105930000021FFF71FFF2544C6B2AC4207D107483C
:1059400001212AF0EDFEFFF793FF3046F8BD00215C
:105950003846FFF70FFF04F8010BEEE794820210C0
:105960005482021070B5154606460C462AF0E0FA3D
:10597000104800212AF0D4FE0D210F48FFF7FAFE4F
:10598000310A0D48FFF7F6FEF1B20B480A4EFFF759
:10599000F1FE2544AC4207D1064801212AF0C0FEA1
:1059A000BDE87040FFF764BF14F8011B3046FFF7F5
:1059B000E1FEEFE7948202105482021007B5012243
:1059C0008DF807100DF10701FFF7CCFF03B05DF86C
:1059D00004FB000070B5154606460C462AF0A8FAEE
:1059E000134800212AF09CFE1D211248FFF7C2FE39
:1059F000310A1048FFF7BEFEF1B20E480D4EFFF718
:105A0000B9FE0C480021FFF7B5FE2544AC4207D192
:105A1000074801212AF084FEBDE87040FFF728BF47
:105A200000213046FFF7A6FE04F8010BEEE700BFA9
:105A3000948202105482021007B501220DF1070171
:105A4000FFF7C8FF9DF8070003B05DF804FB0000F6
:105A5000F8B5144605460E462AF06AFA0F48104F6C
:105A600000212AF05DFE0E210D48FFF783FE294636
:105A70000B48FFF77FFE0025A4B2ABB29C4207D8CB
:105A8000064801212AF04CFEBDE8F840FFF7F0BEC1
:105A9000715D3846FFF76EFE0135EEE79482021025
:105AA00054820210F8B5144605460E462AF040FA14
:105AB0001248134F00212AF033FE1E211048FFF731
:105AC00059FE29460E48FFF755FE0D480021FFF705
:105AD00051FE0025A4B2ABB29C4207D80748012171
:105AE0002AF01EFEBDE8F840FFF7C2BE002138468E
:105AF000FFF740FE70550135EDE700BF94820210BC
:105B00005482021002212AF079BC70477047704716
:105B100001482AF007BE00BF18820210074B08494F
:105B2000186843F2390201FB002018606FF000434F
:105B3000B0FBF3F3C3EBC373C01A70474C2C0010D7
:105B40006D4EC641014B1860704700BF4C2C0010D1
:105B500038B505460C46FFF7E1FF611B013190FBAC
:105B6000F1F303FB1100284438BD01380A44914287
:105B700000D1704711F8013B00F8013FF7E71044EE
:105B80000A44914200D1704711F8013B00F8013DF1
:105B9000F7E70244904200D1704700F8011BF9E793
:105BA00030B530B10A4D01444FF0FF33814201D18D
:105BB000D84330BD10F8012B5340082243F30004B2
:105BC000013A2C4092B284EA5303002AF6D1EDE761
:105BD0002083B8ED4FF0FF307047000030B591B131
:105BE0000A4D0A44914200D130BD11F8013B5840A2
:105BF000082340F30004013B2C409BB284EA500090
:105C0000002BF6D1EEE70846EEE700BF2083B8EDA3
:105C1000C04370472DE9FF4755EC104B002D0E4651
:105C200019462B46BBBF05F100431D4600232D231B
:105C30000B700D9BDDF830A0914623F02008BCBF0F
:105C400022461446B8F1460F05D0B8F1450F00D1F1
:105C50000136022100E0032103AB019302AB009364
:105C600045EC104B5346324600F0EAFCB8F1470FC2
:105C7000074602D119F0010F22D0B8F1460F07EB09
:105C8000060910D13B78302B0AD100220023204690
:105C90002946FEF7BBFE18B9C6F10106CAF8006036
:105CA000DAF8003099440022002320462946FEF706
:105CB000ADFE08B1CDF80C903022039B4B4507D3C5
:105CC000039B0E9ADB1B3846136004B0BDE8F087D7
:105CD000591C03911A70F0E7F7B503460029B8BFC5
:105CE000494203F8022BB4BF2D222B22092942700E
:105CF0002ADD0DF10704A4460A27A6460A4691FBB1
:105D0000F7F607FB16153035632A04F1FF340EF859
:105D1000015C3146F1DC3031AEF1020504F8011CC2
:105D2000441C294661450AD30DF10902A2EB0E027B
:105D3000654588BF00221344181A03B0F0BD11F85E
:105D4000012B04F8012FEDE7302330318370C1704F
:105D5000031DF1E72DE9F04F2DED028B8DB00C46C0
:105D6000DDF8608016461F46054601F047FAD0F878
:105D700000A05046FEF7C4F900230A932368059358
:105D8000D8F8003094F818B0073323F0070303F174
:105D90000802C8F80020D3E90023C4E91223D4E99B
:105DA000128929F000430793CDF8188008EE100AF5
:105DB0009F4BDDE906014FF0FF32FEF759FE88BB2D
:105DC000DDE906019A4B4FF0FF32FEF733FE48BB88
:105DD0000022002340464946FEF722FE10B12D2343
:105DE00084F84330934B9448BBF1470F94BF9846D7
:105DF000804603232361059B23F0040222604FF0B9
:105E00000009009733460BAA2146284600F0D8F92E
:105E1000013040F090804FF0FF300DB0BDEC028BB0
:105E2000BDE8F08F42464B4640464946FEF720FE0D
:105E300040B14B46002BBCBF2D2384F843307F4834
:105E40007F4BD1E763680BF0DF0206925A1C3FD10B
:105E500006236360059B616843F48062002303931B
:105E60000AABCDE901B309AB49EC108B009322607A
:105E70000DF123032846FFF7CDFE069B0999472B1A
:105E8000804608D1C81C02DB6368994241DDABF152
:105E9000020B5FFA8BFBBBF1650F20D801395A4624
:105EA00004F150000991FFF717FF0A9A1318012A0D
:105EB0008146236102DC2268D20701D501332361C8
:105EC0009DF82330002B9CD02D2384F8433098E795
:105ED000069A472ABED1002BBCD10123B9E7BBF1FA
:105EE000660F18D1002963680BDD216113B92268A0
:105EF000D00702D501330B442361A1654FF000099F
:105F0000DEE713B92268D20701D50233F4E7012393
:105F1000F2E74FF0670B0A9B994205DB236821618A
:105F2000D807EAD54B1CE7E70029D4BFC1F102022C
:105F300001221344E0E723685A0507D42369424647
:105F400031462846B84701302CD164E7BBF1650FD4
:105F500040F2E080D4E9120100220023FEF756FD52
:105F6000002834D0374A012331462846B84701304B
:105F70003FF451AFDDE909239A4202DB2368D807D9
:105F800010D518EE103A524631462846B84701302F
:105F90003FF441AF4FF0000804F11A090A9B013B9E
:105FA000434509DC23689B0700F10581E0680B9BF2
:105FB0009842B8BF184630E701234A463146284682
:105FC000B84701303FF427AF08F10108E6E7099B25
:105FD000002B39DC1B4A012331462846B8470130E3
:105FE0003FF419AFDDE90923134302D12368D90730
:105FF000D8D518EE103A524631462846B8470130F7
:106000003FF409AF4FF0000904F11A0A099B5B4203
:106010004B4501DC0A9B92E7012352463146284654
:10602000B84701303FF4F7AE09F10109EEE700BFD0
:10603000FFFFEF7F59A404005DA4040065A40400E1
:1060400061A4040022C004000A9AA36D9A42A8BF6A
:106050001A46002A914637DC4FF0000B29EAE9790D
:1060600004F11A02A36D0593A3EB09035B4533DC2E
:10607000DDE909239A423BDB2368DA0738D40A9A20
:10608000059B0999D31AA2EB01099945A8BF994626
:10609000B9F1000F35DC4FF0000829EAE97904F185
:1060A0001A0ADDE909239B1AA3EB090343457FF78D
:1060B00079AF0123524631462846B84701303FF4B4
:1060C000AAAE08F10108ECE71346314642462846DD
:1060D000B8470130C0D19EE60123314628460592DB
:1060E000B84701303FF497AE059A0BF1010BB9E7C1
:1060F00018EE103A524631462846B8470130BED114
:1061000089E6059A4B46424431462846B847013055
:10611000C1D180E60A9A012A01DCDB0738D50123C8
:10612000424631462846B84701303FF474AE18EE77
:10613000103A524631462846B84701303FF46BAE1C
:10614000D4E9120100220023FEF760FCD8B90A9BB3
:1061500008F10102013B31462846B84701300ED113
:1061600059E60123524631462846B84701303FF4EC
:1061700052AE08F101080A9B013B4345F1DC4B4656
:1061800004F15002DCE64FF0000804F11A0AF2E7CD
:1061900001234246DFE701234A4631462846B847F5
:1061A00001303FF438AE08F10108E3680B995B1A3F
:1061B0004345F0DCFAE64FF0000804F11909F4E772
:1061C0002DE9F047164699468A680B69DDF820806C
:1061D0009342B8BF1346336091F8432007460C46FC
:1061E0000AB1013333602368990642BF3368023332
:1061F0003360256815F0060506D104F1190AE36835
:1062000032689B1AAB4226DC94F84320131E2268A6
:1062100018BF012392062BD404F1430249463846A5
:10622000C04701301ED02368E568326803F00603DA
:10623000042B08BFAD1AA36822690CBF25EAE575D7
:1062400000259342C4BF9B1AED1800261A34B542AC
:106250001AD1002008E00123524649463846C0477B
:10626000013003D14FF0FF30BDE8F0870135C6E7BC
:10627000E1185A1C302081F84300224494F845105C
:1062800082F843100233C7E70123224649463846C5
:10629000C0470130E6D00136D9E700002DE9FF47BD
:1062A0000C469146277E0C99782F80469A4604F139
:1062B000430207D8622F0AD8002F00F0D880582F49
:1062C00000F0A38004F1420684F842703AE0A7F19E
:1062D0006303152BF6D801A050F823F035630100B5
:1062E00049630100C5620100C5620100C562010089
:1062F000C562010049630100C5620100C562010079
:10630000C5620100C56201005564010079630100A6
:1063100037640100C5620100C562010077640100B5
:10632000C562010079630100C5620100C562010018
:106330003F6401000B681A1D1B680A6004F14206E5
:1063400084F842300123A3E0256808682E0600F196
:1063500004030AD505680B60002D03DA2D236D4276
:1063600084F843305E480A2319E015F0400F0568B1
:106370000B6018BF2DB2EFE70B682568181D086089
:10638000280601D51D6802E06906FBD51D88544822
:106390006F2F0CBF08230A23002184F8431066687E
:1063A000A660002EA2BF216821F0040121600DB972
:1063B000002E4DD01646B5FBF3F103FB1157C75D18
:1063C00006F8017D2F46BB420D46F4D9082B0BD1B0
:1063D0002368DF0708D5236961689942DEBF30234F
:1063E00006F8013C06F1FF36921B2261CDF800A0B1
:1063F0004B4603AA21464046FFF7E2FE01304CD14E
:106400004FF0FF3004B0BDE8F087354884F84570A0
:1064100023680E681F0656F8045B0E6014D5D90772
:1064200044BF43F0200323601DB9236823F02003F9
:1064300023601023B0E7236843F020032360782310
:10644000284884F84530E3E75E0648BFADB2E6E78A
:106450001646BBE70B68266860691D1D0D60350692
:106460001B6801D5186002E07106FBD51880002377
:1064700023611646BAE70B681A1D0A601E68626837
:1064800000213046FDF744FE08B1801B6060636860
:106490002361002384F84330A8E723693246494644
:1064A0004046D0470130ABD023689B0713D4E06847
:1064B000039B9842B8BF1846A4E7012332464946D9
:1064C0004046D04701309BD00135E36803995B1A01
:1064D000AB42F2DCEBE7002504F11906F5E700BF5B
:1064E00069A404007AA404000EB400B59CB01DABEE
:1064F000029006906FF00041094807910491094904
:1065000053F8042B05910068019302A901F0BAFA2F
:10651000029B00221A701CB05DF804EB03B07047B8
:10652000702C00100802FFFF2DE9F74F03690C697A
:10653000A3420746C0F28180013C01F1140800F13A
:10654000140505EB8403019358F8243055F82420F2
:1065500001339A424FEA840B08EB8409B2FBF3F64D
:1065600031D34FF0000E4046AC46F24650F8042BB3
:1065700093B206FB03E34FEA134E9BB2AAEB03036D
:10658000120CDCF800A006FB02E213FA8AF34FEAD1
:10659000124E1FFA82FADCF80020CAEB124202EB1C
:1065A00023429BB243EA024381454CF8043B4FEA45
:1065B000224ADBD255F80B302BB9019B043B9D429C
:1065C0001A462ED33C61384601F065F8002824DBDA
:1065D000013628464FF0000C58F8042BD0F800E0A4
:1065E00093B2ACEB0303120C13FA8EF3C2EB1E4210
:1065F00002EB23429BB243EA0243C14540F8043B0D
:106600004FEA224CE8D255F8242005EB840322B946
:10661000043B9D421A460AD33C61304603B0BDE8B4
:10662000F08F1268043B002ACCD1013CC7E7126806
:10663000043B002AF0D1013CEBE70020EEE700002C
:106640002DE9F04F2DED028B57EC106B95B0456A9C
:10665000DDF880800591CDE90267044609920F9329
:106660003DB9102000F0CEFDC0E901556062056023
:10667000C560636A196851B15A684A600123934042
:106680008B60204600F010FE636A00221A603B1EF9
:10669000B9BF23F0004303930023C8F80030DDF8AE
:1066A0000C90B74BBCBF0122C8F8002033EA0903A5
:1066B0001BD10F9A42F20F731360C9F313033343D4
:1066C00000F07585219B63B9AE4B25E0AE4B00937E
:1066D0000833219A1360009815B0BDEC028BBDE819
:1066E000F08FA84B00930333F3E79DED027B00226C
:1066F00051EC170B00238DED0A7BFEF787F98046DE
:1067000060B10F9A01231360219B002B00F04C8590
:106710009E4B219A1360013B0093DCE79DED0A0B31
:1067200012AA13A9204601F048F8C9F30A55824677
:10673000002D7ED00B9BCDF84080C3F31303DDE921
:106740000A6743F07F5747F44017A5F2FF35904B97
:10675000002230463946FDF739FD83A3D3E90023F3
:10676000FDF7ECFE82A3D3E90023FDF731FD0646D9
:1067700028460F46FDF778FE7FA3D3E90023FDF7F7
:10678000DDFE02460B4630463946FDF721FD064642
:106790000F46FEF783F90022814600233046394632
:1067A000FEF73EF948B14846FDF75EFE32463B46ED
:1067B000FEF72CF908B909F1FF39B9F1160F56D8CF
:1067C000744B03EBC903D3E90023DDE90A01FEF7AB
:1067D00027F900284DD009F1FF3900230E93129BB1
:1067E0005D1B6B1E049343BF0023C5F10108049396
:1067F0004FF00008B9F1000F3DDB049BCDF8349059
:106800004B44049300230693059B092B00F29A80C6
:10681000052BC4BF043B0593059BA3F10203CCBF2A
:1068200000250125032B00F29980DFE803F02C7D81
:106830007B89DDE912531D4405F23243202BC1BF91
:10684000C3F1400305F2124009FA03F326FA00F0FF
:10685000DABFC3F1200306FA03F01843FDF7F4FD95
:1068600001230646A1F1F877013D10936FE701235C
:10687000B4E70E90B3E7C9F1000306930023A8EB39
:1068800009080D93C0E700230893099B002B00F330
:1068900085804FF0010BCDF804B05B46CDF824B0F5
:1068A000666A00227260042202F114009842716844
:1068B0007AD9204600F0C4FC636A30601B680093FC
:1068C000019B0E2B00F2F580002D00F0F280B9F153
:1068D000000F7DDD2F4A09F00F0302EBC30393ED98
:1068E000007B19F4807F4FEA2917B0EE478AF0EE5B
:1068F000678A5DD0284BDDE90A01D3E90823FDF75B
:1069000047FFCDE9020107F00F070325224E002FB4
:1069100050D1DDE9020153EC182BFDF739FFCDE929
:1069200002016FE00123AFE700230893099B09EB05
:10693000030B0BF10103012B0193B8BF0123AFE758
:106940000123F2E701250023059308954FF0FF3B53
:106950000022CDF804B012230992A1E70123089385
:10696000F4E700BFAFF3008061436F63A787D23FB6
:10697000B3C8608B288AC63FFB799F501344D33F2E
:106980000000F07F94A404008BA4040023C0040042
:106990000000F83FC0A4040098A40400DDF824B06F
:1069A000CDF804B05B467BE70131716052007BE7B4
:1069B0000225ABE7F90708D551EC180BD6E90023FF
:1069C000FDF7BCFD41EC180B01357F1008369EE742
:1069D00000F0AB80C9F10006AA4BAB4F06F00F02E6
:1069E00003EBC203D3E90023DDE90A01FDF7A6FDAD
:1069F000CDE90201361100230225002E40F08A80E5
:106A0000002B8CD10E9B002B00F09180DDE90267FA
:106A10009E4B002230463946FEF702F8002800F06F
:106A20008680019B002B00F08280BBF1000F3CDDD3
:106A300009F1FF3307930022954B30463946FDF7A5
:106A40007DFDCDE902010135CDF830B0DDE9026709
:106A50002846FDF709FD32463B46FDF76FFD8D4B9D
:106A60000022FDF7B5FBA1F15073CDE902010393BC
:106A70000C9B002B60D1884B002230463946FDF735
:106A8000A5FBDDE9022306460F46FDF7E7FF0028D8
:106A900040F09982DDE90221304601F10043394698
:106AA000FDF7BEFF002840F08B82DDE90A23CDE927
:106AB0000223139B002BC0F25B81B9F10E0F00F390
:106AC0005781704B03EBC90393ED007B099BB0EE3C
:106AD000478AF0EE678A002B80F2E280019B002B50
:106AE00000F3DE8040F06C826B4B51EC170B002200
:106AF000FDF724FDDDE90223FDF7A6FF019E3746E1
:106B0000002840F04282009D312305F8013B09F145
:106B100001093EE2F20705D5D7E90023FDF70EFD96
:106B2000013501237610083767E702256AE7019BE4
:106B3000CDF81C900C9389E700990C980C9A514B56
:106B40009DED027B014402910899B0EE478AF0EE78
:106B5000678A03EBC20353E90223002945D04F495A
:106B60000020FDF715FE53EC182BFDF72FFB009DC1
:106B700041EC180B39463046FDF790FF0C90FDF7BD
:106B800073FC02460B4630463946FDF71FFB0C9B53
:106B9000303305F8013B53EC182B06460F46FDF742
:106BA0003FFF002865D132463B4638490020FDF7BB
:106BB0000DFB53EC182BFDF733FF002840F0B88095
:106BC000029B9D423FF471AF314B51EC180B0022F8
:106BD000FDF7B4FC2E4B41EC180B00223046394631
:106BE000FDF7ACFC06460F46C4E751EC170BFDF76A
:106BF000A5FC029B009D0C9341EC180B39463046D6
:106C0000FDF74CFF1190FDF72FFC02460B46304676
:106C10003946FDF7DBFA119B303305F8013B029B47
:106C20009D4206460F464FF0000225D11B4B51EC0A
:106C3000180BFDF7CDFA02460B4630463946FDF7F4
:106C40000DFF002874D153EC182B14490020FDF7D8
:106C5000BDFA02460B4630463946FDF7E1FE0028F4
:106C60003FF423AF0C9D6B1E0C9315F8013C302BA9
:106C7000F8D0DDF81C9049E0054BFDF75FFC0646B7
:106C80000F46BBE7C0A4040098A404000000F03F36
:106C90000000244000001C40000014400000E03FC1
:106CA000DDE90267009D53EC182B30463946FDF7AD
:106CB0006FFDFDF7F3FE8046FDF7D6FB53EC182B76
:106CC000FDF73CFC02460B463046394608F13006DB
:106CD000FDF77CFA05F8016B009E019FAE1BB742E1
:106CE00002460B4637D1FDF773FA53EC182B0646D4
:106CF0000F46FDF7B3FEC8B953EC182B30463946A2
:106D0000FDF784FE10B118F0010F0FD12046514657
:106D100000F0CAFA00232B700F9B09F101001860E4
:106D2000219B002B3FF4D7AC1D60D4E4CDF81C9020
:106D30002B461D4613F8012D392A08D1009A9A4294
:106D4000F7D1079A00990132079230220A701A7817
:106D500001321A708DE79E4B0022FDF7EFFB0022F7
:106D6000002306460F46FDF751FE00289BD0CDE7D5
:106D7000089A002A00F0C680059A012A00F3AA802A
:106D8000109A002A00F0A28003F23343069E454683
:106D9000049A01211A4420469844049200F029FBE9
:106DA0000746002D0BDD049B002B08DDAB42049A47
:106DB000A8BF2B46A8EB0308ED1AD31A0493069B31
:106DC000FBB1089B002B00F0A180002E11DD39469D
:106DD0003246204600F0B2FB5246014607462046A6
:106DE00000F010FB51460790204600F05DFA079B2B
:106DF0009A46069B9A1B04D05146204600F09EFB03
:106E000082460121204600F0F4FA0D9B002B064635
:106E10007EDD1A460146204600F090FB059B012BC3
:106E2000064678DD00230693336906EB8303186971
:106E300000F08FFAC0F12000049B184410F01F00EE
:106E400000F08880C0F12003042B40F38180C0F162
:106E50001C00049B0344804405440493B8F1000FD4
:106E600005DD51464246204600F0B6FB8246049BB3
:106E7000002B05DD31461A46204600F0ADFB0646E4
:106E80000E9B002B68D03146504600F004FC0028D1
:106E900062DA002351460A22204600F01CFA089BC1
:106EA00009F1FF398246002B00F088813946002322
:106EB0000A22204600F00FFABBF1000F074600F34C
:106EC0008F80059B022B40F38B804DE0129BC3F11A
:106ED00036035BE7019B5E1E069BB342BFBF069B6A
:106EE0000696F21A0D9BB6BF9B189E1B0D93019B35
:106EF000B8BF0026002BB5BFA8EB0305019B0023FC
:106F0000454645E7069E089F45464AE7069A73E7C9
:106F1000059B012B18DC029BB3B9039BC3F313033E
:106F2000A3B9039B23F000431B0D1B052BB1049B4E
:106F30000133049308F10108012306930D9B002BF4
:106F40007FF472AF012077E70023F6E7029BF4E7B6
:106F500084D018461C307CE7019B002B3ADC059B53
:106F6000022B37DDDDF804B0BBF1000F0DD1314647
:106F70005B460522204600F0AEF901460646504623
:106F800000F089FB00283FF7BEAD099B009D6FEA2A
:106F900003094FF000083146204600F085F9002F24
:106FA0003FF4B4AEB8F1000F05D0B84503D0414668
:106FB000204600F079F93946204600F075F9A5E63B
:106FC00000263746E1E70C9EDDF81C9037469AE52F
:106FD00000002440089BDDF804B0002B00F0F58091
:106FE000002D05DD39462A46204600F0F5FA074611
:106FF000069B002B55D07968204600F021F93A69AC
:1070000002320546920007F10C010C3000F00AF93B
:1070100001222946204600F0DFFA009B013301934C
:10702000009B5B440793029B03F00103B846069361
:107030000746019B3146504603F1FF3BFFF774FAC8
:1070400003463033029041465046089300F023FB3C
:107050003A4604903146204600F039FBC268089B4E
:10706000054602BB0146504600F015FB089B024650
:1070700029462046CDE9083200F016F9059B099A09
:10708000019D43EA0201069B0B43089B0DD1392B5E
:1070900027D0049A002A01DD029B31338BF800309F
:1070A00079E73846B9E70122E2E70499002904DBD1
:1070B000059801430698014320D1002AEEDD514690
:1070C00001222046019300F087FA3146824600F003
:1070D000E2FA0028019B02DCE0D1DA07DED5392B89
:1070E000DAD139238BF800302B461D46013B15F8C9
:1070F000012C392A50D001321A704CE7002A03DDE6
:10710000392BEED00133C9E7019A079902F8013C07
:107110008A422AD0514600230A22204600F0DBF89A
:10712000B84582464FF000034FF00A024146204620
:1071300007D100F0D0F880460746019B0133019348
:1071400077E700F0C8F83946804600230A22204637
:1071500000F0C1F80746F0E7BBF1000F009ACCBF82
:107160005D46012515444FF0000851460122204696
:10717000019300F031FA3146824600F08CFA002883
:10718000B2DC02D1019BDB07AED42B461D4613F8BF
:10719000012D302AFAD0FEE6009A9A42A5D1312379
:1071A00009F101091370F6E6124BFFF7B5BA219BFE
:1071B000002B7FF48BAA104BFFF7AEBABBF1000F88
:1071C00003DC059B022B3FF7CFAE009D31465046B6
:1071D000FFF7AAF900F1300305F8013B009AAA1A5B
:1071E0009345B9DD514600230A22204600F073F88A
:1071F0008246EBE722C004008BA4040000487047DD
:10720000C42D0010024B0146186800F085BB00BF7A
:10721000702C0010024B0146186800F02DBB00BF17
:10722000702C00100A44914200F1FF3300D17047E6
:1072300010B511F8014B03F8014F9142F9D110BD7F
:1072400070B5466A04460D463EB91020FFF7DAFFD6
:10725000C0E9016660620660C660666AF36883B171
:10726000636ADB6853F82500B8B9012101FA05F615
:10727000721D9200204600F0F0FA60B1C0E901569C
:107280000EE021220421204600F0E7FA636AF06054
:10729000DB68002BE4D1002070BD026843F8252094
:1072A0000023C0E90333F7E770B5466A05460C468C
:1072B0003EB91020FFF7A6FFC0E9016668620660CC
:1072C000C6603CB16B6A6268DB6853F822102160CB
:1072D00043F8224070BD2DE9F0410E6907469846FB
:1072E0000C4601F1140000230568A9B202FB0181DC
:1072F0004FEA114C2D0C02FB05C589B2013301EB9D
:1073000005419E4240F8041B4FEA1548ECDCB8F1F9
:10731000000F1BD0A368B34212DC6168384601310C
:10732000FFF78EFF2269023204F10C01054692003C
:107330000C30FFF777FF21463846FFF7B5FF2C46A4
:1073400004EB86030136C3F8148026612046BDE8AD
:10735000F081030C1B04D3B90004102310F07F4FFD
:1073600004BF0002083310F0704F04BF0001043363
:1073700010F0404F04BF80000233002805DB10F0FE
:10738000804F03F1010308BF2023184670470023F4
:10739000E4E7036813F0070201460BD0DA0724D4B0
:1073A000980749BF5B089B0801200B605CBF0B601E
:1073B0000220704798B2B0B91B0C102013F0FF0FD9
:1073C00004BF1B0A08301A0704BF1B0904309A07C0
:1073D00004BF9B080230DA0703D45B0800F1010008
:1073E00005D00B6070471046E8E70020704720206A
:1073F000704710B50C460121FFF722FF01224461BE
:10740000026110BD2DE9F04F15460A692B699A42B9
:10741000B8BF0B460C46BCBF2C461D462769D5F8A5
:107420001090A368616807EB0906B342B8BF013149
:1074300085B0FFF705FF00F1140101EB86080B464C
:10744000002243451DD304F1140305F1140203EB9C
:10745000870702EB890302933B1B153B23F00303D1
:10746000043304F11505AF4238BF04230193029B96
:107470000392934208D8002E5ADC066105B0BDE89D
:10748000F08F43F8042BDCE7B2F800A0BAF1000F4C
:1074900024D004F1140E89464FF0000C5EF8045B12
:1074A000D9F800B0ABB21FFA8BFB0AFB03B34FEA6B
:1074B000154BD9F8005063444FEA154C0AFB0BC535
:1074C00005EB13459BB243EA0543774549F8043B76
:1074D0004FEA154CE2D8019B41F803C0039BB3F877
:1074E00002900432B9F1000F20D00B6804F1140CA3
:1074F0008E464FF0000ABCF80050BEF802B009FBFF
:1075000005B5AA449BB243EA0A434EF8043B5CF833
:10751000043BBEF800501B0C09FB035303EB1A435A
:1075200067454FEA134AE6D8019D4B5104319EE767
:1075300058F8043D002BA0D1013E9CE72DE9F8430B
:10754000154612F0030206460F4607D0214C013AB9
:10755000002354F82220FFF7BEFE0746AD1035D0B9
:10756000746A3CB91020FFF74DFEC0E90144706217
:107570000460C460D6F82480D8F808404CB940F2C2
:1075800071213046FFF735FF0023C8F80800044694
:1075900003604FF00009EB070AD539462246304612
:1075A000FFF730FF394680463046FFF77DFE4746FD
:1075B0006D100BD0206838B9224621463046FFF7BF
:1075C00021FF2060C0F800900446E4E73846BDE89B
:1075D000F88300BF88A504002DE9F0470C464968F0
:1075E000236903EB6218A368074691464FEA621AC3
:1075F00008F10106B3423FDB3846FFF721FE0023C6
:10760000054600F1140100F110021846534536DB1F
:1076100020692AEAEA7A04F1140319F01F0901EB40
:107620008A0103EB800C2ED0C9F1200E8A4600227D
:10763000186800FA09F002434AF8042B53F8042BA7
:107640009C4522FA0EF2F3D8ACEB0403153B23F071
:107650000303043304F11500604588BF0423CA50B6
:107660000AB108F10206013E38462E612146FFF7B5
:107670001BFE2846BDE8F08701315B00BAE742F8FF
:10768000040F0133C2E7043953F8042B41F8042FE7
:107690009C45F9D8E7E730B502690C69121B0ED199
:1076A00000F11403143103EB840001EB840150F862
:1076B000045D51F8044DA54203D005D301221046C4
:1076C00030BD8342F3D3FAE74FF0FF32F7E72DE9FD
:1076D000F84F0C460646114620461746FFF7DBFFDB
:1076E000051E08D129463046FFF7AAFD0123C0E94F
:1076F0000435BDE8F88FA4BF3B462746304679687D
:10770000A6BF1C4600250125FFF79AFD3E69C5600E
:10771000256907F1140104F1140900F1140E07F1B1
:10772000100201EB860C09EB8505F246002759F89B
:10773000043B52F804BF1FFA83F817FA8BF71B0CAF
:10774000A7EB0808C3EB1B4303EB28431FFA88F899
:107750001F144D4548EA03434AF8043BE7D82B1B66
:10776000153B23F0030304331534A54238BF04232B
:10777000194473449E460D4665450ED30CF1030231
:10778000521A22F0030203398C4538BF00221A44F2
:1077900052F8043D7BB10661ABE755F8048B17FA4C
:1077A00088F4221402EB1842A4B244EA02444EF8D0
:1077B000044B1714E0E7013EEAE72DE9F743894659
:1077C000012157EC106B9046FFF73AFDC7F30A55BD
:1077D0000446C7F3130335BB002E019328D0684637
:1077E0000096FFF7D6FD009900B3019AC0F120037F
:1077F00002FA03F30B43C24063610192019BA36150
:10780000002B14BF022201222261D5B1A5F233451B
:107810000544C9F80050C0F13500C8F80000204602
:1078200003B0BDE8F08343F48013D5E76161E5E779
:1078300001A8FFF7AEFD019B6361012222612030A8
:10784000E3E704EB8203A0F23240C9F800001869B4
:10785000FFF77FFDC0EB4210DFE713B54A43114647
:10786000019200F059F8044618B1019A002100F085
:1078700045FA204602B010BD37B5002948D051F86E
:10788000043C0190002BA1F10404B8BFE41800F0FF
:107890003DFA204A01981368154633B963601460B5
:1078A00003B0BDE8304000F037BAA3420BD92168DD
:1078B0006218934204BF1A685B68636004BF521881
:1078C00022602C60ECE71A465B680BB1A342FAD940
:1078D00011685518A5420BD1246821445418A342BD
:1078E0001160DDD11C685B68536021441160D7E7EB
:1078F00002D90C230360D3E7256861198B4204BFCA
:1079000019685B68636004BF491921605460C7E768
:1079100003B030BD70520010F8B5CD1C25F0030542
:1079200008350C2D38BF0C25002D064601DBA94279
:1079300003D90C2333600020F8BD00F0E7F921499A
:107940000A6814469CB9204F3B6823B9214630464B
:1079500000F098F938602946304600F093F9431C4E
:1079600023D10C233360304600F0D6F9E3E72368D7
:107970005B1B17D40B2B03D923601C44256004E048
:107980006368A2420CBF0B605360304600F0C4F93C
:1079900004F10B00231D20F00700C21ACCD01B1AE3
:1079A000A350C9E722466468CCE7C41C24F0030452
:1079B000A042E3D0211A304600F064F90130DDD155
:1079C000CFE700BF70520010745200102DE9F0474D
:1079D0008E689E4282460C4690461F4638D88A8959
:1079E00012F4906F32D025680969A5EB0109656929
:1079F00005EB450505EBD57501334B446D109D42F4
:107A000038BF1D46530531D52946FFF785FF064689
:107A100050B90C23CAF80030A38943F04003A38176
:107A20004FF0FF30BDE8F08721694A46FFF7FAFBC7
:107A3000A38923F4906343F08003A38126616561E9
:107A40004E44A5EB09052660A5603E46BE4200D91E
:107A50003E4632462068414600F036F9A368226867
:107A60009B1B3244A36022600020DBE72A4600F023
:107A700059F906460028E1D121695046FFF7FCFE7E
:107A8000C7E700002DE9F04F98468B891B069DB093
:107A900007460D4614460ED50B6963B94021FFF722
:107AA0003BFF2860286120B90C233B604FF0FF307A
:107AB000D1E040236B610023099320238DF8293006
:107AC000CDF80C803023DFF8A8818DF82A304FF0F4
:107AD000010923469A4613F8012B0AB1252AF9D148
:107AE000BAEB040B0BD05B46224629463846FFF71B
:107AF0006DFF013000F0AA80099A5A4409929AF861
:107B00000030002B00F0A28000234FF0FF32CDE9BF
:107B100005230AF1010A049307938DF853301A9351
:107B20005446052214F8011B5148FCF7F1FA049A57
:107B3000D8B9D00644BF20238DF85330110744BF75
:107B40002B238DF853309AF800302A2B15D0079A42
:107B5000544600204FF00A0C214611F8013B303BFF
:107B6000092B4ED9B0B1079214E0A0EB080309FA33
:107B700003F313430493A246D2E7039B191D1B682A
:107B80000391002BBBBF5B4242F0020207930793B5
:107B9000B8BF049223782E2B0CD163782A2B35D1D1
:107BA000039B1A1D1B680392002BB8BF4FF0FF33D5
:107BB00002340593DFF8C8A0217803225046FCF771
:107BC000A7FA40B14023A0EB0A0003FA00F0049B9F
:107BD00003430134049314F8011B26488DF8281040
:107BE0000622FCF795FA002838D0234B1BBB039BD9
:107BF000073323F0070308330393099B33440993A6
:107C000067E70CFB02320C460120A5E70023013494
:107C1000059319464FF00A0C204610F8012B303A14
:107C2000092A03D9002BC5D00591C3E70CFB01211C
:107C300004460123F0E703AB00932A460F4B04A947
:107C40003846FEF787F8421C0646D6D1AB895B065C
:107C50003FF52CAF09981DB0BDE8F08F03AB009342
:107C60002A46064B04A93846FEF718FBEBE700BF8F
:107C700094A504009EA50400555D0100CD79010086
:107C80009AA5040038B5064D0023044608462B602B
:107C900000F0F0F8431C02D12B6803B1236038BD1B
:107CA0001008021082B001B901A942B14BB113789A
:107CB0000B601278101E18BF012002B070471046EA
:107CC000FBE76FF00100F8E7884210B501EB020412
:107CD00002D98442234607D8431EA14208D011F896
:107CE000012B03F8012FF8E7024401468A4200D134
:107CF00010BD13F8014D02F8014DF7E702440346A9
:107D0000934200D1704703F8011BF9E7014800F0E6
:107D1000A6B800BF14080210014800F0A1B800BFC7
:107D200014080210F8B5074614460E4621B9BDE8FE
:107D3000F8401146FFF7F0BD22B9FFF79DFD25463B
:107D40002846F8BD00F08DF8A0420FD221463846F3
:107D5000FFF7E2FD05460028F2D031462246FFF744
:107D600061FA31463846FFF787FDE9E73546E7E730
:107D700038B50C460968054609B1FFF7F9FF2146F9
:107D80002846BDE83840FFF777BD00002C4B1B6844
:107D9000834270B5044651D0436A43B1DB68002B7F
:107DA0004AD1636A196811B12046FFF765FD616920
:107DB00011B12046FFF760FD616A11B12046FFF75F
:107DC0005BFDA16B11B12046FFF756FDE16B11B1D0
:107DD0002046FFF751FD216C11B12046FFF74CFD05
:107DE000E16D11B12046FFF747FDA16D11B12046AD
:107DF000FFF742FD616B11B12046FFF73DFDA3691E
:107E0000E3B1A36A20469847A16CB9B12046BDE80A
:107E10007040FFF7ADBF495941B90435636A802D01
:107E2000D968F8D12046FFF727FDBAE70E6820464B
:107E3000FFF722FD3146EFE70025EFE770BD00BFF9
:107E4000702C001049B1FF2A85BF8A2303600A7095
:107E50004FF0FF3098BF01207047084670477047C9
:107E6000704751F8043C181F002BBCBF0B58C018BA
:107E700070470000044A05491368002B08BF0B46F1
:107E8000184410601846704778520010488B021052
:107E9000FDF70CB8FDF74AB8FEE7FEE7FEE7000085
:107EA000114812490160D1F800D01148016841F42D
:107EB00070010160BFF34F8FBFF36F8F0D480E4904
:107EC0000E4A50F8043B41F8043B9142F9DB0C4860
:107ED0000C494FF000028842B8BF40F8042BFADB8F
:107EE000FDF7C4FB00BE000008ED00E0004001000B
:107EF00088ED00E068270500002B001044520010B8
:107F000048520010488B0210034B5868C0F3080019
:107F1000003818BF0120704700ED00E007B5064BA0
:107F20000093064A064940F2415300201BF01EFB15
:107F300003B05DF804FB00BF34A70400ACA6040046
:107F4000D4A204002DE9F043DFF8D0802D4E8DB08F
:107F50004FF0FF31D8F800002B4D10F009FF02F070
:107F60002FF8044648B301F08DFF286810F0E3FFB6
:107F7000264B00931FFA80F9254A2649CDF8049034
:107F800040F2852300201BF0F1FA0027BBB299458F
:107F900002D801F0B9FFDBE74FF0FF3202A92868F1
:107FA00010F05EFE34689DF827309DF9280002AA83
:107FB0000DF12901A0470137E8E7286810F0BBFF61
:107FC000154B00931FFA80F9114A1249CDF804901D
:107FD00040F2932320461BF0C9FAA3B29945B7D9C2
:107FE0004FF0FF3202A9286810F03AFE37689DF87A
:107FF00027309DF9280002AA0DF12901B847013464
:10800000EBE700BF885300108C53001047A7040013
:10801000ACA60400D4A2040064A70400905300108E
:108020007FB5027A1A49062353430446CE5A1949AA
:10803000CDE90262C3880193174B0093174A40F2BF
:10804000062300201BF092FA6EB1207818F0D0FFC2
:10805000054640B1207818F07BFF20B1E288217AF4
:1080600028461AF058F90A201AF0DAFA014668B1DF
:10807000236803606368436023890381084B86801B
:10808000187804B0BDE870401AF0DFBA04B070BDD3
:10809000582E0010D4A204007BA70400ACA6040054
:1080A0004408021038B505460089103080B21AF035
:1080B000B7FA0446B8B12B46024605F1100153F851
:1080C000040B42F8040B8B42F9D104F110006060FC
:1080D00069682A89FFF7A6F8034B21461878BDE89E
:1080E00038401AF0B2BA38BD4408021013B50190F6
:1080F00064201AF095FA044658B101996422FFF7FA
:1081000091F8054B1878214602B0BDE810401AF0EE
:108110009CBA02B010BD00BF44080210024A1368A6
:108120000BB1013B136070477C5F00102DE9F041FB
:108130000C468EB000295BD08B789A1E102A46D848
:10814000084619F09FF8A378482B4AD80E2B4FD930
:108150000F3B392B4CD8DFE813F056007F004B0063
:10816000BD004B004B004B004B004B004B004B0045
:108170004B004B004B004B004B004B00CD00FB0075
:1081800010014B0024013501440176015E02C40256
:10819000E402F10201030C031A034B004B004B00F5
:1081A0004B004B00330377034B004B004B004B005D
:1081B0004B004B0084034B004B004B004B004B002B
:1081C0004B004B004B004B00D402E500F000203B7D
:1081D000482BB8D8084619F009FA204619F05EFC79
:1081E000B1E7682B00F0548305D8662B00F0458377
:1081F0000EB0BDE8F0813F33DBB2012BF8D820464A
:108200000BF0FCFDF4E79D4B9D4A00939D4940F225
:10821000B92300201BF0AAF9628940F204739A4244
:1082200010D1994B964A9749009300204FF4307330
:108230001BF09CF9002395481A461946006810F077
:10824000DFFBD5E7924B009340F2C5238C4A8D4962
:1082500000201BF08BF9CBE78E4B894A89490093AC
:10826000002040F2CA231BF081F9237A0393A388EC
:108270000293E3880193884B0093814A814940F23D
:10828000272300201BF072F9237A012B0CD0022B3C
:1082900014D0227A022AABD9033AA3882188E08835
:1082A00092B201F051F9A3E7E1882078012902D1C7
:1082B00001F05AFAEDE701F061FAEAE7E288207886
:1082C000012A04D1C222C1210BF080FDE1E70BF0AD
:1082D0008DFDDEE7E3890193704B694A009369499C
:1082E00040F2CF2300201BF041F9E3896C4A033BA5
:1082F00013807DE76B4B624A6249009300204FF484
:1083000035731BF033F915F05BFB17F009FE664877
:10831000002300681A46194610F072FB01201AF07B
:1083200049F865E7614B00930020554A554940F2F2
:10833000DD231BF01BF91220F1E75D4B00930020B9
:108340004F4A504940F2E2231BF010F91320E6E7B0
:10835000584B4B4A4B490093002040F2E7231BF057
:1083600005F9554B554801221A60002300681A464A
:10837000194610F045FB0320D1E7514B404A4149D3
:108380000093002040F2EF231BF0F0F84A4A4D48DA
:108390000023136000681A46194610F031FB0420D0
:1083A000BDE7494B364A37490093002040F2F72396
:1083B0001BF0DCF8454B464801221A6000231A46A0
:1083C00019463BE7414B434800241C6000682346A4
:1083D0002246214610F014FB3F4B009340F201333C
:1083E00034E73E4B1B68002B3FF402AF257A002D8B
:1083F0003FF4FEAE61682A4604A8FEF713FF234649
:10840000374853F80C2FCDF831209B88ADF8353024
:10841000637A8DF8303000688DF82F5000230A22DF
:1084200004A910F0EDFA012808D02E4B0093144A4D
:10843000144940F2123300201BF098F800232A4818
:108440001A461946FAE6294B294D0E490093002099
:1084500040F21B330A4A1BF089F895F82D10254B82
:10846000254803294AD105221A7002225A70012296
:1084700099701A71DA700023037149E0A7A704000C
:10848000ACA60400D4A20400BDA704003C0802105E
:10849000C1A70400C7A70400DAA7040002A80400CB
:1084A000562E001014A804003408021026A8040058
:1084B0003BA804004FA80400805F001028080210A9
:1084C0005CA804004008021069A80400885F00103E
:1084D000380802102408021075A804008853001000
:1084E0008C53001080A804009053001097A804003B
:1084F000942E0010222F0010282F00100122022994
:108500001A707ED15970032199701A71DA70017155
:10851000B24B00222046DA601A6101F03BF9204696
:108520000BF06CFC204600F0EBFF95F82D30012B92
:1085300021D02078012101F017F995F82D30012B79
:1085400019D002232078C222C1210BF03FFC95F8FC
:108550002D30012B0FD0A24F03264FF0060808FB49
:1085600006F3DB5B23B1F11E2078C9B200F0BCFF3B
:1085700001360A2EF3D19B4800231A46194600689B
:1085800010F03EFA984800231A461946006810F089
:1085900037FA964B00221A60954B01221A6095F823
:1085A0002D30934205D0204618F004FD207819F0B4
:1085B000D1FB904B04AA03F10806154618685968C8
:1085C000144603C40833B3422246F7D118681B7916
:1085D000206023712846FBF793FD874C0023024659
:1085E0002946184603F0F4FE236843B101F0E8FC85
:1085F00070B101F047FC2368984701F085FC082022
:108600008DE6002159709A701971D970032333E7F0
:1086100023689847F3E7794800231A46194600680B
:1086200010F0EEF9237A0193754B764A7649009360
:10863000002040F28F331AF099FF684B714A72495B
:108640000025DD601D6123880193704B009328464F
:1086500040F267231AF08AFF207801F099F8207819
:108660000BF0DEFA00F030FF694B14221A805F4BEA
:1086700001221A605E4B1D60664B04AA03F11006CE
:10868000154618685968144603C40833B342224695
:10869000F7D12846FBF734FD5F4C002302462946FC
:1086A000184603F095FE236843B101F089FCA8B198
:1086B00001F0E8FB2368984701F026FC574B584A25
:1086C000029340F2AD3300204F49019300924D4A8E
:1086D0001AF04CFFFFF722FD092020E62368984797
:1086E000ECE7504B474A48490093002040F2B5332D
:1086F0001AF03CFF204600F003FF204601F04AF844
:108700007DE5237A0393637A029323790193464BA1
:1087100000933C4A3C4940F2C63300201AF026FF41
:1087200066E5424B374A38490093002040F2CA338D
:108730001AF01CFF17F0F4FB0A20F0E53C4B314A1D
:108740003149009300204FF474731AF00FFF17F0B3
:10875000E7FB207818F03BFC0B20E0E5354B00935D
:108760000020284A284940F2DA331AF0FFFE0C2094
:10877000D5E5314B234A24490093002040F2DF33F2
:108780001AF0F4FE207818F022FC0D20C7E52B4BE0
:108790001C4A1D49009300204FF47A731AF0E6FE3C
:1087A000274830F0A9FD0423ADF81000000C8DF827
:1087B0001200A370207804AA032117F045FB17E5E7
:1087C000204B00930F4A104940F2FE3300201AF06C
:1087D000CDFE201D17F0ACFB0AE500BF402E0010B7
:1087E000582E00104008021028080210805F001068
:1087F000845F0010DCA90400805300102C080210D4
:10880000A8A80400ACA60400D4A20400CEA80400CA
:10881000562E0010E9A9040084530010C8AB0400D0
:10882000E7A80400F9A8040000A904002DA9040089
:108830003DA904004AA9040058A904006DA9040038
:10884000BA2E00107DA90400144B0093144A154958
:1088500040F2044300201AF089FE204618F0AAFBDB
:10886000C6E4E3780193104B00930D4A0D4940F2A2
:10887000094300201AF07AFEBAE40C4B0093002062
:10888000074A084940F20D431AF070FE1B2046E5E6
:10889000074B009340F21343D8E400BF85A90400BE
:1088A000ACA60400D4A204008DA90400B0A9040061
:1088B000C0A90400174B184A10B51870174B1A605E
:1088C000174B184A1A60184B184A1A60184B194A65
:1088D0001A60194B194A1A60194B1A4A1A60044651
:1088E00018F0ECFB18F062FE18F0D6FC18F00CFB48
:1088F0002046154900F0C4FE204614490BF070F9DB
:108900002046134900F0CAFDBDE81040114817F099
:10891000C5BA00BF440802101A2F0010447D02108F
:10892000F07D0210E0AB04005C7D02109853001053
:108930003C7D0210222F0010587D0210C82E00101E
:10894000A0470010282F0010C4AB0400DCAB0400CB
:10895000C0AB0400FE2E00101A4908B5084616F0F8
:10896000ADFE1849032016F073FC174813F09CFF66
:10897000164813F0B3FF164B164A1878164914F030
:10898000A9FC1649164819F0A3FD16481E2119F036
:1089900071FD154843890289C188808819F07CFDE2
:1089A00019F088FD1149124800F032FE00F02AFE4D
:1089B000104900200BF042FA0BF03AFABDE80840EB
:1089C00016F048BEED800100A580010031110300C2
:1089D000C42E001021800100582E001055240300E1
:1089E00035240300952E0010C82E00109596010026
:1089F000FD960100813C020013B519F0C5FE19F087
:108A0000F3FF364B364904224FF4386019F06CFD01
:108A1000B0F5386F0BD9334B0093A0F53860019057
:108A2000314A32494FF49D6300201AF09FFD13F044
:108A300001FE13F02DFC13F00BFD13F077FD2C4815
:108A400019F096FE17F0C6FA2A4819F091FE04466E
:108A5000002016F015FE16F04FF917F02BF916F05E
:108A6000E3FB16F071FD17F009FA17F099FA16F00A
:108A7000C7FF204616F054FE1F4819F079FE17F084
:108A800025FC17F02DFB17F0CBFB1C4819F070FEEE
:108A900013F0E0FE14F06EFF14F0EEFD14F070F928
:108AA000174819F065FE17F0C7FF18F019FA18F00B
:108AB0000DFAFB2012F002FB124819F059FE18F0D3
:108AC00051FA114819F054FE11F08CFA0F4819F0C0
:108AD0004FFE02B0BDE81040FFF7ECBEEE2E0010D6
:108AE000DC530010F9A90400ACA60400D4A20400D1
:108AF000E9FF020039F70200DD0203008DC8020021
:108B00009D0A0300710F0300B5A002002D81010032
:108B100011F07ABA07B5084B0093084A084940F2A9
:108B20004B5300201AF022FD064B802283F80C23C1
:108B300003B05DF804FB00BF18AA0400ACA6040053
:108B4000D4A2040000E100E0024B4FF0FF311868AE
:108B500010F00EB934080210F0B5054685B024486F
:108B60000F4603F080FD234B234A244900241C7048
:108B7000234B019006460093204640F291531AF091
:108B8000F5FC204B00931C4A1C49019740F292537C
:108B900020461AF0EBFCB74215D91B4B0093CDE9E8
:108BA00001672046144A154940F29F531AF0DEFC33
:108BB0002C467719BC4215D1324607E0295D0320C7
:108BC0000AF0FAFB0134A742F8DC3A462946084885
:108BD00003F04FFD0D480AF0CFFC05B0BDE8F040B2
:108BE00001F030B914F8011B03200AF0E5FBE1E7BE
:108BF000402E00105C370210ACA60400D4A2040082
:108C000029AA04003BAA04005BAA0400102F00104C
:108C1000014803F01FBD00BF402E00100A46014668
:108C2000014803F073BD00BF402E00102DE9FF473F
:108C30002F4EDFF8D0803788DFF8CC90DFF8CCA05B
:108C400005460C463388A34215D32246294640F2F6
:108C5000047000F0E3FC002838D125440446FFF7F7
:108C600053F998B9B9F80610D8F8000001EB4101A2
:108C700010F07EF81BE03A46294640F2047000F0FE
:108C8000CDFC18BBE41B3D44A4B2E8E7D8F80000D3
:108C900003AA002110F010F948B1039B3BB14FF03B
:108CA0008053CAF80030BFF34F8FBFF36F8F002C93
:108CB000C8D100240F4B009320460F4A0F4901945E
:108CC00040F2EA531AF052FC20460DE0002CF0D09E
:108CD0000B4B00930020084A0849019440F2E653E8
:108CE0001AF044FC6FF0060004B0BDE8F08700BF46
:108CF000562E001097AA0400ACA60400D4A20400CB
:108D000082AA04003C080210C82E001004ED00E006
:108D100070477047704770477047000037B5344C54
:108D20002378002B62D1334D296821B90322012019
:108D30000FF03EFE2860304D296821B90322012042
:108D40000FF036FE28602D4D296821B9032201203D
:108D50000FF02EFE28602A4D296821B90322012038
:108D60000FF026FE2860274D296821B90322012033
:108D70000FF01EFE2860244D296821B9032201202E
:108D80000FF016FE2860214D296821B90322012029
:108D90000FF00EFE28601E4D2A6822B927210A20F6
:108DA0000FF006FE28601B4D296821B9032201201F
:108DB0000FF0FEFD2860184A136843B901920222A1
:108DC0000092164916484FF4807210F04FF9FFF7E1
:108DD000A1FE144B0193032300931349134800236E
:108DE0004FF4007210F042F90123237003B030BD3C
:108DF0005C5F001040080210280802102C080210C6
:108E000038080210240802103C080210340802102E
:108E10008C5300109053001094530010AFAA04001C
:108E2000457F010030080210BFAA04002993010009
:108E3000114B1B68012B13B51BD0104C2268012A63
:108E40000AD119F079F8FFF75FF80D4B58B118689F
:108E500001AA002110F030F80A4B0020D8602060F1
:108E6000186102B010BD18684FF47A710FF080FFDE
:108E7000F2E76FF00600F4E7845F0010805F0010F7
:108E800040080210402E001037B50020FFF7D0FF39
:108E9000574B93F82430002B30D1564B564A03F1F0
:108EA000140153F8040B42F8040B8B42F9D11B78E0
:108EB000524D534C137015214F4A2970022019F05E
:108EC00003F8504A2178032018F0FEFF4A4A297817
:108ED000002018F0F9FF4B4A2178012018F0F4FF28
:108EE000002019F039F8484B009340F26F63474A6D
:108EF000474900201AF03AFB03B030BD012B40D1A6
:108F0000444B1B78FBB9444A3B4B116819605168CC
:108F1000127A1A72414A5960093302F1140152F867
:108F2000040B43F8040B8A42F9D112781A70334BC0
:108F300037491E221A703A4B0093344A40F2796343
:108F400000201AF013FB2D4D2D4C2B4A29780220BE
:108F500018F0BAFF2B4A2178032018F0B5FF264AF3
:108F60002978002018F0B0FF264A2178012018F057
:108F7000ABFF032018F0F0FF2A4B009340F2876309
:108F8000B5E7032BB8D1284B284A03F1100153F859
:108F9000040B42F8040B8B42F9D1254B164A03F11E
:108FA000140153F8040B42F8040B8B42F9D11B78DF
:108FB000124D134C137015210F4A2970022018F01E
:108FC00083FF104A2178032018F07EFF0A4A29788F
:108FD000002018F079FF0B4A2178012018F074FF67
:108FE000002018F0B9FF134B009340F2A1637EE715
:108FF000942E0010402F0010A4530010542E001087
:10900000182F00105D5F0010C9AA0400ACA6040070
:10901000D4A20400C3530010A09F0400C453001046
:10902000DAAA0400DBAA040088080210DD2E001072
:10903000D82E0010EEAA04007FB5484B1B68012B08
:1090400004460AD0B4280BD9454B0093454A4649FB
:1090500040F21C7300201AF089FA6FF0060059E004
:10906000424E0020FFF7E4FEFFF758F896F8245030
:10907000DDB93F4B3B4A01940093284640F22573EB
:1090800039491AF073FAC4EB44103A4B326A5D80E6
:1090900004EB8004E4001C809D80DA801D815D81EA
:1090A000012018F051FE012019E0012D34D1324B7E
:1090B0002C4A2D490093002040F2347301941AF099
:1090C00055FA316A2B4B64294FF0000238BF6421F6
:1090D0001A805A809A80D9801A815A81022018F009
:1090E00009FFFEF711FF254B002830D0186803AAAE
:1090F00000210FF0E1FE48B1039B3BB1204B4FF044
:1091000080521A60BFF34F8FBFF36F8F1D4B012248
:109110001A60002004B070BD032DE2D11A4B114A31
:1091200011490194009300204FF4E9631AF01EFAEC
:10913000C4EB44100F4B316AD98004EB8004002249
:10914000E4001C805A809A801A815A81A8E7186826
:109150004FF47A710FF00CFED8E700BF845F001067
:10916000FEAA0400ACA60400D4A20400942E0010B1
:1091700021AB04009853001033AB04002808021000
:1091800004ED00E0805F001048AB040070B58AB0C9
:1091900002AB0C4605460146184630F071F9254BE6
:1091A000254A264901900093002040F2C7731AF027
:1091B000DDF9234B204A2149009300204FF4F96345
:1091C00001941AF0D3F91F481F4E631C0370092342
:1091D0004370224629460230FEF724F81B4BA21C9E
:1091E0001A7000211E223046FEF788FD22462946CD
:1091F0003046FEF717F81E21304619F03BF9144BA4
:1092000000930D4A0D49019640F2D27300201AF0E6
:10921000ADF9104B1B6853B10020FFF709FEFFF7B3
:1092200033FE0020FFF708FF00200AB070BDFFF7F3
:109230002BFEF9E75AAB0400ACA60400D4A204004C
:1092400076AB04005D5F0010952E0010182F001003
:1092500060AB0400805F00102DE9FF41054611F06E
:10926000FFFF014602A819F06DFC0DF10D064FF04D
:1092700000086F1C15F81800A0F13004092C03D960
:1092800030F046FAA0F1370417F81800A0F13003C7
:10929000092B4FEA04142BD81C4408F10108B8F13B
:1092A000060F06F80149E5D1194B1B682BB30020C6
:1092B000FFF7BEFD02A810F0D1FE164802A919F072
:1092C00041FC10F0DFFFFFF7DFFD134B93F82500A3
:1092D000FFF7B2FE114B0093114A1249019540F677
:1092E0002A0300201AF042F9002004B0BDE8F08102
:1092F00030F00EFA37380444CFE702A810F0AEFE83
:10930000044802A919F01EFC10F0BCFFE2E700BF00
:10931000805F001054780210942E00108DAB040072
:10932000ACA60400D4A2040000B589B0134B144AC3
:1093300014490093002040F25C531AF017F9012001
:1093400010F052FDFFF758FB00230C2102A8CDE9D5
:109350000533079308F066FA0C2205A902A82FF03E
:10936000D7FF10B102A8FFF777FF074816F0A6F95C
:10937000FFF7F2FA19F01AFAFCE700BFA6AB0400F7
:10938000ACA60400D4A204001D7F01007047704702
:109390007047084691B2FFF749BC08461146FFF7EF
:1093A0003DBC6FF0060070477047FFF731BC00000E
:1093B0002DE9F041184B86B01F6806464D08002481
:1093C0000DF10808A54219DC144C002138460BF0B9
:1093D00055FE134BD4F820221A600021C4F8201245
:1093E0000723424638460BF0B1F9D4F8103443F065
:1093F0000203C4F8103406B0BDE8F08136F814302A
:10940000ADF804301022002101A830F0EFF808F880
:1094100004000134D6E700BF906F021000C0005076
:10942000200802102DE9F041164B174ED3F80080AA
:10943000C0B007460D466424D6F80C331B0615D57C
:109440002A46694640460BF079FB0446B0B92A68C3
:1094500069463846FDF7E6FE0C4B1B68C6F8283215
:109460002046C6F8203240B0BDE8F081013C03D070
:1094700001201AF04FF8DFE70548F4E76FF0060027
:10948000F1E700BF906F021000C0005020080210EA
:1094900004000008C0B210F0D3BD0000084A002349
:1094A00010B5C2E90033107106481A4603EBC30138
:1094B00044180133072B6270A2704254F6D110BDDC
:1094C000186000104508021010B5002305481A4620
:1094D00003EBC30144180133072B6270A27042549E
:1094E000F6D110BD45080210044B01EBC1015A181A
:1094F000A2F8010001225A54704700BF450802102B
:1095000007B58378272B0AD10B4B00930B4A0C49E4
:10951000522300201AF02AF803B05DF804FB292B2F
:10952000FAD103790193074B0093044A04496B2352
:1095300000201AF01BF8EFE700AD0400E1AB0400D7
:10954000D4A2040012AD04002DE9F3411546D2B2B5
:10955000D300274F274C3E681344012804EB030235
:1095600020D1C9B2E054A2F80110002E3CD0224B09
:109570001B68012B38D100F023FD204B142101FB87
:109580000531EE0038B30191354400F07BFC3B68B7
:1095900001992C44B4F80500984702B0BDE8F041A9
:1095A00000F0B2BC4FF0000804F8038082F801809C
:1095B00082F80280C6B1104B1B68012B14D100F059
:1095C000FFFCEE00014630B1354400F05BFC2C445A
:1095D0003B684146DEE735442C443B68B4F805005F
:1095E00002B0BDE8F041184702B0BDE8F08100BF0D
:1095F0009808021045080210845F00108C5F00106C
:1096000019F088BF014814F04BBA00BF582F001062
:10961000014BC3E902017047582F00102DE9F341B7
:10962000134C05460F4616460323227904F104081D
:109630000AB1617951B9013B13F0FF0304F102044F
:10964000F3D14FF0FF3002B0BDE8F081094B0A4979
:1096500001920093094AAF23002019F087FF98F880
:1096600000003B463246294614F032F80020EAE773
:109670002460001081AE0400D4A20400F4AD040004
:10968000034B00229A60C3E9002298721A81704746
:109690002460001013B5134B0193134B00930C4639
:1096A000D923124A1249002019F060FF40F20273D8
:1096B0009C420FD10F4B0093E1230C4A0C49002030
:1096C00019F054FF0598BDF81010FFF745FA002077
:1096D00002B010BD40F204739C42F3D1064B0093DC
:1096E000E323EAE7CFAE040069AC0400F4AD040064
:1096F000D4A2040095AE0400A4AE040037B5144B08
:109700000193144B00930C46F023134A1349069D12
:10971000002019F02BFF40F202739C4210D1104B35
:109720000093F9230C4A0D49002019F01FFFD5E9D9
:1097300001232046198814F0CFF9002003B030BD72
:1097400040F204739C42F2D1064B0093FB23E9E7FD
:10975000E9AE040069AC0400F4AD0400D4A2040036
:10976000B3AE0400C1AE0400034B421E03EB420340
:10977000012218715A71704724600010034B0138A0
:1097800003EB400000238380704700BF246000107B
:10979000FFF7F4BF07B58378272B0AD10B4B009353
:1097A0000B4A0C496823002019F0E0FE03B05DF875
:1097B00004FB292BFAD103790193074B0093044A48
:1097C00004498123002019F0D1FEEFE700AD040029
:1097D000F4AD0400D4A2040012AD0400034B586899
:1097E000C0F30800003818BF0120704700ED00E00A
:1097F00073B50D4C26680546084656B901F0E5FBE1
:109800000A4B0093024633460948012110F07CF9C7
:109810002060084B1D602368002B0CBF6FF0060012
:10982000002002B070BD00BF50600010019D01001B
:1098300002AF040044600010F0B5474E2DED028BDE
:10984000356808EE100A85B03746002D7ED0002816
:109850007CD0424B1960FFF7C1FF044600284CD072
:10986000002300931A4608212846039310F068F954
:1098700001286BD1039B3BB1394B4FF080521A60EA
:10988000BFF34F8FBFF36F8FDFED367AB8EE488AA4
:10989000002328EE278A0093FCEEC87A386817EE7A
:1098A000902A03AB092110F04BF901284ED1039BFC
:1098B0003BB12B4B4FF080521A60BFF34F8FBFF379
:1098C0006F8F3C680FF02CFD0023024600930621A9
:1098D00003AB204610F034F9012837D1039B3BB18C
:1098E0001F4B4FF080521A60BFF34F8FBFF36F8F43
:1098F000002005B0BDEC028BF0BD64270346024694
:1099000000970321284610F01BF901281ED1DFED36
:10991000157A0097B8EE488A306828EE278A2346E1
:10992000FCEEC87A042117EE902A10F009F90128FC
:1099300005460BD136680FF0EDFC00970246234632
:109940002946304610F0FCF8012802D06FF00600DE
:10995000CFE72046CDE700BF506000103860001010
:1099600004ED00E06F12833F0D4B13B51C6874B11A
:10997000FFF734FF70B1002300931A4608212046F8
:1099800010F0DEF8012802D1002002B010BD6FF007
:109990000600FAE764230093024603460321EEE73C
:1099A0005060001070B52DED028B08EE100A86B0E5
:1099B00028B96FF0060006B0BDEC028B70BD07F051
:1099C000C5FD20B9474B1B78002B40F08780464CE3
:1099D00023683BB9454A009245481A46012110F0D8
:1099E00093F82060FFF7FAFE03462068002B4BD067
:1099F000002300931A460821059310F0A1F80128CE
:109A0000D7D1059B3BB13B4B4FF080521A60BFF35F
:109A10004F8FBFF36F8FDFED387AB8EE488A00239F
:109A200028EE278A0093FCEEC87A206817EE902A69
:109A300005AB092110F084F80128BAD1059B3BB190
:109A40002C4B4FF080521A60BFF34F8FBFF36F8FD4
:109A500024680FF065FC002302460093062105AB45
:109A6000204610F06DF80128A3D1059B3BB1214B96
:109A70004FF080521A60BFF34F8FBFF36F8F1F4BB1
:109A800001221A70002096E7642600961A460321E8
:109A9000039310F055F801288BD1DFED177A00966B
:109AA000B8EE488A039B206828EE278A0421FCEE42
:109AB000C87A17EE902A10F043F8012805467FF483
:109AC00078AF24680FF026FC039B009602462946D7
:109AD000204610F035F80128D1D06AE76FF0050074
