:020000021000EC
:10400000002B0010A188010099880100C95C010003
:104010009B8801009B8801009B8801000000000034
:10402000000000000000000000000000E18E02001F
:104030009D88010000000000518F0200B58F020032
:104040009D8801009D8801009D8801009D880100D8
:104050009D8801009D8801009D8801009D880100C8
:1040600035BF01009D8801009D8801009D880100E9
:1040700011950100CD1C0400F1AC01006DCB0100D5
:1040800075CC01009D8801001D1804009D88010069
:104090009D8801009D88010035AD0100519102000D
:1040A000719102009D8801009D8801009D8801009A
:1040B0009D8801009D8801009D8801009D88010068
:1040C00000000000000000000000000000000000F0
:1040D00000000000000000000000000000000000E0
:1040E00000000000000000000000000000000000D0
:1040F00000000000000000000000000000000000C0
:10410000034613F8012B002AFBD1181A0138704717
:1041100001F0FF01102A2BDB10F0070F08D010F878
:10412000013B013A8B422DD010F0070F42B3F6D17C
:10413000F0B441EA012141EA014122F007047FF095
:1041400000070023F0E80256083C85EA010586EAEC
:10415000010685FA47F5A3FA87F586FA47F6A5FA28
:1041600087F68EB9EED1F0BC01F0FF0102F0070234
:1041700032B110F8013B013A83EA010313B1F8D1DF
:104180000020704701387047002D06BF35460338C0
:10419000073815F0010F07D1013015F4807F02BFF9
:1041A000013015F4C03F0130F0BC0138704700BF4A
:1041B00010F8012B11F8013B012A28BF9A42F7D0D1
:1041C000D01A704781F0004102E000BF83F0004345
:1041D00030B54FEA41044FEA430594EA050F08BFA2
:1041E00090EA020F1FBF54EA000C55EA020C7FEA66
:1041F000645C7FEA655C00F0E2804FEA5454D4EBE3
:104200005555B8BF6D420CDD2C4480EA020281EAAC
:10421000030382EA000083EA010180EA020281EAE4
:104220000303362D88BF30BD11F0004F4FEA013136
:104230004FF4801C4CEA113102D0404261EB410145
:1042400013F0004F4FEA03334CEA133302D05242CB
:1042500063EB430394EA050F00F0A780A4F1010487
:10426000D5F1200E0DDB02FA0EFC22FA05F28018C1
:1042700041F1000103FA0EF2801843FA05F35941A7
:104280000EE0A5F120050EF1200E012A03FA0EFC26
:1042900028BF4CF0020C43FA05F3C01851EBE37150
:1042A00001F0004507D54FF0000EDCF1000C7EEB6D
:1042B00000006EEB0101B1F5801F1BD3B1F5001FAB
:1042C0000CD349085FEA30004FEA3C0C04F10104CA
:1042D0004FEA445212F5800F80F09A80BCF1004FF3
:1042E00008BF5FEA500C50F1000041EB045141EA75
:1042F000050130BD5FEA4C0C404141EB0101013C3E
:1043000028BFB1F5801FE9D291F0000F04BF01462C
:104310000020B1FA81F308BF2033A3F10B03B3F1FE
:1043200020020CDA0C3208DD02F1140CC2F10C028E
:1043300001FA0CF021FA02F10CE002F11402D8BFEC
:10434000C2F1200C01FA02F120FA0CFCDCBF41EAB8
:104350000C019040E41AA2BF01EB0451294330BD87
:104360006FEA04041F3C1CDA0C340EDC04F1140464
:10437000C4F1200220FA04F001FA02F340EA03003B
:1043800021FA04F345EA030130BDC4F10C04C4F181
:10439000200220FA02F001FA04F340EA0300294661
:1043A00030BD21FA04F0294630BD94F0000F83F4AB
:1043B000801306BF81F480110134013D4EE77FEA8E
:1043C000645C18BF7FEA655C29D094EA050F08BFDA
:1043D00090EA020F05D054EA000C04BF19461046BB
:1043E00030BD91EA030F1EBF0021002030BD5FEAFF
:1043F000545C05D14000494128BF41F0004130BD27
:1044000014F580043CBF01F5801130BD01F000457A
:1044100045F0FE4141F470014FF0000030BD7FEAED
:10442000645C1ABF194610467FEA655C1CBF0B46E8
:10443000024650EA013406BF52EA033591EA030FFF
:1044400041F4002130BD00BF90F0000F04BF0021F7
:10445000704730B54FF4806404F132044FF000052A
:104460004FF0000150E700BF90F0000F04BF0021A3
:10447000704730B54FF4806404F1320410F0004509
:1044800048BF40424FF000013EE700BF42004FEA04
:10449000E2014FEA31014FEA02701FBF12F07F4381
:1044A00093F07F4F81F06051704732F07F4208BF38
:1044B000704793F07F4F04BF41F40021704730B53F
:1044C0004FF4607401F0004521F000411CE700BF8B
:1044D00050EA010208BF704730B54FF000050AE00E
:1044E00050EA010208BF704730B511F0004502D50F
:1044F000404261EB41014FF4806404F132045FEA11
:10450000915C3FF4D8AE4FF003025FEADC0C18BFB9
:1045100003325FEADC0C18BF033202EBDC02C2F1AB
:10452000200300FA03FC20FA02F001FA03FE40EA3D
:104530000E0021FA02F11444BDE600BF70B54FF041
:10454000FF0C4CF4E06C1CEA11541DBF1CEA13551F
:1045500094EA0C0F95EA0C0F00F0DEF82C4481EA87
:10456000030621EA4C5123EA4C5350EA013518BFA7
:1045700052EA033541F4801143F4801338D0A0FB94
:1045800002CE4FF00005E1FB02E506F00042E0FB41
:1045900003E54FF00006E1FB03569CF0000F18BF47
:1045A0004EF0010EA4F1FF04B6F5007F64F54074EF
:1045B00004D25FEA4E0E6D4146EB060642EAC62182
:1045C00041EA55514FEAC52040EA5E504FEACE2EEF
:1045D000B4F1FD0C88BFBCF5E06F1ED8BEF1004FF2
:1045E00008BF5FEA500E50F1000041EB045170BD6E
:1045F00006F0004646EA010140EA020081EA0301B2
:10460000B4EB5C04C2BFD4EB0C0541EA045170BDAD
:1046100041F480114FF0000E013C00F3AB8014F127
:10462000360FDEBF002001F0004170BDC4F1000470
:10463000203C35DA0C341BDC04F11404C4F12005F1
:1046400000FA05F320FA04F001FA05F240EA02004C
:1046500001F0004221F0004110EBD37021FA04F682
:1046600042EB06015EEA430E08BF20EAD37070BD3C
:10467000C4F10C04C4F1200500FA04F320FA05F09B
:1046800001FA04F240EA020001F0004110EBD3709D
:1046900041F100015EEA430E08BF20EAD37070BD0D
:1046A000C4F1200500FA05F24EEA020E20FA04F3E6
:1046B00001FA05F243EA020321FA04F001F0004195
:1046C00021FA04F220EA020000EBD3705EEA430E06
:1046D00008BF20EAD37070BD94F0000F0FD101F035
:1046E0000046400041EB010111F4801F08BF013C6E
:1046F000F7D041EA060195F0000F18BF704703F0AC
:104700000046520043EB030313F4801F08BF013D32
:10471000F7D043EA0603704794EA0C0F0CEA1355EE
:1047200018BF95EA0C0F0CD050EA410618BF52EAA8
:104730004306D1D181EA030101F000414FF00000AE
:1047400070BD50EA410606BF1046194652EA4306BC
:1047500019D094EA0C0F02D150EA013613D195EA30
:104760000C0F05D152EA03361CBF104619460AD178
:1047700081EA030101F0004141F0FE4141F4700182
:104780004FF0000070BD41F0FE4141F4780170BD72
:1047900070B54FF0FF0C4CF4E06C1CEA11541DBFD7
:1047A0001CEA135594EA0C0F95EA0C0F00F0A7F8D9
:1047B000A4EB050481EA030E52EA03354FEA013106
:1047C00000F088804FEA03334FF0805545EA131319
:1047D00043EA12634FEA022245EA111545EA1065E1
:1047E0004FEA00260EF000419D4208BF964244F178
:1047F000FD0404F5407402D25B084FEA3202B61A97
:1048000065EB03055B084FEA32024FF480104FF46A
:10481000002CB6EB020E75EB030E22BFB61A7546DE
:1048200040EA0C005B084FEA3202B6EB020E75EB71
:10483000030E22BFB61A754640EA5C005B084FEAD9
:104840003202B6EB020E75EB030E22BFB61A7546A6
:1048500040EA9C005B084FEA3202B6EB020E75EBB1
:10486000030E22BFB61A754640EADC0055EA060E72
:1048700018D04FEA051545EA16754FEA06164FEAB5
:10488000C30343EA52734FEAC2025FEA1C1CC0D161
:1048900011F4801F0BD141EA00014FF000004FF0EE
:1048A000004CB6E711F4801F04BF01430020B4F1AF
:1048B000FD0C88BFBCF5E06F3FF6AFAEB5EB030C67
:1048C00004BFB6EB020C5FEA500C50F1000041EB64
:1048D000045170BD0EF0004E4EEA113114EB5C0431
:1048E000C2BFD4EB0C0541EA045170BD41F4801104
:1048F0004FF0000E013C90E645EA060E8DE60CEA0C
:10490000135594EA0C0F08BF95EA0C0F3FF43BAF28
:1049100094EA0C0F0AD150EA01347FF434AF95EADF
:104920000C0F7FF425AF104619462CE795EA0C0FC3
:1049300006D152EA03353FF4FDAE1046194622E790
:1049400050EA410618BF52EA43067FF4C5AE50EA6A
:1049500041047FF40DAF52EA43057FF4EBAE12E75A
:104960004FF0FF3C06E000BF4FF0010C02E000BF3B
:104970004FF0010C4DF804CD4FEA410C7FEA6C5C1E
:104980004FEA430C18BF7FEA6C5C1BD001B050EAC1
:10499000410C0CBF52EA430C91EA030F02BF90EAAC
:1049A000020F0020704710F1000F91EA030F58BF6B
:1049B000994208BF90422CBFD8176FEAE37040F0CD
:1049C000010070474FEA410C7FEA6C5C02D150EA6B
:1049D000013C07D14FEA430C7FEA6C5CD6D152EA26
:1049E000033CD3D05DF8040B704700BF84461046EB
:1049F00062468C461946634600E000BF01B5FFF7EA
:104A0000B7FF002848BF10F1000F01BD4DF808EDB9
:104A1000FFF7F4FF0CBF012000205DF808FB00BF8A
:104A20004DF808EDFFF7EAFF34BF012000205DF8E4
:104A300008FB00BF4DF808EDFFF7E0FF94BF012031
:104A400000205DF808FB00BF4DF808EDFFF7CEFF32
:104A500094BF012000205DF808FB00BF4DF808ED71
:104A6000FFF7C4FF34BF012000205DF808FB00BF42
:104A70004FEA410C7FEA6C5C02D150EA013C0AD15A
:104A80004FEA430C7FEA6C5C02D152EA033C02D14C
:104A90004FF0000070474FF0010070474FEA4102AD
:104AA00012F5001215D211D56FF47873B3EB625280
:104AB00012D94FEAC12343F0004343EA505311F0A7
:104AC000004F23FA02F018BF404270474FF0000039
:104AD000704750EA013005D111F0004008BF6FF077
:104AE000004070474FF00000704700BF53B94AB90B
:104AF000002908BF00281CBF4FF0FF314FF0FF30E6
:104B000000F06EB9ADF1080C6DE904CE00F006F8C6
:104B1000DDF804E0DDE9022304B070472DE9F04739
:104B2000089D04468C46002B40F083808A4217463D
:104B300047D9B2FA82F242B1C2F1200024FA00F061
:104B40009140974040EA010C94404FEA1748230CEB
:104B5000BCFBF8F61FFA87FE08FB16C143EA0143C7
:104B600006FB0EF1994209D9FB1806F1FF3080F0DF
:104B70001981994240F21681023E3B445B1AA4B26D
:104B8000B3FBF8F008FB103344EA034400FB0EFECD
:104B9000A64509D93C1900F1FF3380F00581A645EF
:104BA00040F2028102383C4440EA0640A4EB0E0485
:104BB00000261DB1D4400023C5E900433146BDE8BD
:104BC000F08702B9FFDEB2FA82F2002A50D1CB1B85
:104BD0004FEA174E1FFA87F80126B3FBFEFC210CA3
:104BE0000EFB1C3341EA034108FB0CF38B4207D94F
:104BF00079180CF1FF3002D28B4200F2E980844632
:104C0000C91AA3B2B1FBFEF00EFB101143EA014436
:104C100008FB00F8A04507D93C1900F1FF3302D288
:104C2000A04500F2D9801846A4EB080440EA0C40E5
:104C3000BFE78B4209D9002D00F0B1800026C5E9FD
:104C4000000130463146BDE8F087B3FA83F6002E06
:104C50004AD18B4202D3824200F2B880841A61EBBF
:104C6000030101208C46002DA8D0C5E9004CA5E722
:104C7000C2F1200320FA03F6974001FA02F04FEA4E
:104C8000174ED9403043030CB1FBFEF61FFA87F8EC
:104C90000EFB161143EA014306FB08F1994204FAA0
:104CA00002F409D9FB1806F1FF3C80F08D8099428F
:104CB00040F28A80023E3B445B1A81B2B3FBFEF0B5
:104CC0000EFB103341EA034100FB08F38B4207D986
:104CD000791800F1FF3C73D28B4271D90238394404
:104CE000CB1A40EA064678E7C6F1200C03FA06F430
:104CF00022FA0CF31C4320FA0CF701FA06F34FEAF0
:104D0000144E21FA0CF11F433B0CB1FBFEF91FFAC4
:104D100084F80EFB191143EA014109FB08FA8A45A0
:104D200002FA06F200FA06F308D9611809F1FF3019
:104D300048D28A4546D9A9F102092144A1EB0A01CA
:104D4000BFB2B1FBFEF00EFB101147EA014700FBBA
:104D500008F8B84507D9E71900F1FF312ED2B84558
:104D60002CD90238274440EA0940A7EB0807A0FBEA
:104D700002894F45C64649461AD317D05DB1B3EBF9
:104D80000E0267EB010707FA0CFCF2404CEA020244
:104D9000F740C5E9002700263146BDE8F0872E46DA
:104DA00028460BE70646E9E61846FDE64345E5D208
:104DB000B8EB020E69EB04010138DFE70846D2E7E1
:104DC00060468DE78146B9E7664675E730464AE7B3
:104DD000ACF1020C394413E702383C4424E700BF2D
:104DE000704700BF284B294870B593E8060008F0CB
:104DF0009BFA0021012008F07CFC9F21234808F049
:104E0000D4FA0021214808F0D0FA002106461F48B4
:104E100008F0CBFA002105461C4808F0C6FA01212B
:104E20000446084608F065FC184808F0ACFA184932
:104E3000184808F0B3FB1849164808F08CFB1022FC
:104E40003146144808F02AFC1449124808F083FB44
:104E5000102229460F4808F021FC11490D4808F09E
:104E60007AFB0C481022214608F018FC682E09D164
:104E7000402D07D1182C05D10A490648BDE87040DD
:104E800008F08CBB0849F8E75052001080730010FE
:104E900074AC04001C73001088AC04009CAC0400CB
:104EA000AFAC0400C2AC0400D7AC040008B51C4889
:104EB00008F0DAFA062202234FF4E131194808F02B
:104EC000BBF94FF4FA600EF0F3FA1749154808F0F1
:104ED00065FB1649134808F061FB154B0121187852
:104EE00008F0F0FB134B0121187808F0EBFB0121CF
:104EF000084608F0E7FB0121084608F0FAFB0E48D7
:104F000008F004FAFFF76EFF0C4800F093F928B997
:104F1000BDE808400A49034808F040BB08BD00BF8F
:104F2000847300101C730010FFAC040029AD040052
:104F3000002B0010012B001080730010485200104D
:104F400060AD04002DE9F041494B4A4F1878DFF875
:104F50006481494D002108F0CCFB1F2008F0A8FB1C
:104F6000464B014618600A22434808F081FB444939
:104F7000414808F013FB002601242146384608F07A
:104F8000ABFA0121384608F0B3FA10F0FF0056D111
:104F90003C49284608F0DFFA0F2C03D83A49284646
:104FA00008F0D9FA10222146284608F075FB374947
:104FB000284608F0F3FA01360134E4B27F2CDCD144
:104FC000002E4ED132492C48324C08F0E7FA324BD1
:104FD00018782368002B46D1012108F08AFB0123B1
:104FE0002360FFF7FFFE2D4800F07EF808B32B4842
:104FF00000F082F80446C8B129491F4808F0ABFA0E
:1050000021461D4808F0D4FA244800F03DF925490E
:10501000194808F0A0FA214800F03BF9224A234938
:10502000002818BF1146144808F0B8FA1B4800F0D1
:1050300087F8BDE8F04141F288300EF039BA042813
:10504000BAD14146284608F086FA0F2C03D80E49FB
:10505000284608F080FA10222146284608F01EFB58
:10506000AAE71349AFE7002108F043FB0023B7E7A5
:10507000012B0010847300101C7300105C52001090
:105080008AAD0400A2AD0400A2CC0400C1AD0400AE
:10509000E1AD040058520010002B001048520010DF
:1050A000FDAD04000BAE040087AD0400E52605004D
:1050B000F7AD0400C5AD0400044B054A1A604FF477
:1050C000807204489A8000F007B800BF5052001068
:1050D00040420F004852001010B5044600F0DBF8C3
:1050E0000023A380204610BD08B500F0EEF800387C
:1050F00018BF012008BD000010B50446FFF7F4FFFB
:1051000008B9002010BD204600F0E6F80306F8D5E7
:1051100000F07F03013BDBB2272B0DD80A22B3FB43
:10512000F2F102FB1133DBB2032B05D8034A02EB89
:105130008102D05C2071E5E73F20FBE79FAE0400D1
:105140002DE9F8430446FFF7CFFF002856D020464C
:1051500000F0C2F82A494FFA80F9074600F07F05AF
:10516000284808F0F8F9013D10223946254808F092
:1051700093FA0A2624492348EDB2B5FBF6F45FFA08
:1051800084F808F0E8F906FB1454324641461D48FD
:1051900008F082FAE4B21D491A4808F0DCF93246F8
:1051A0002146184808F078FA1949164808F0D3F94A
:1051B000184B1949134811EA290138BF194608F05C
:1051C000CAF9B9F1000F12DA14490E4808F0C3F910
:1051D000272D11D8032C0FD8114901EB8801095D47
:1051E000084808F0C8F90F49064808F0B4F9BDE8C6
:1051F000F843044808F0CCB93F21F1E7BDE8F88353
:105200002AAE04001C73001038AE040041AE040046
:1052100048AE040021AE040019AE04004EAE0400F6
:105220009FAE0400D62D05000A464171072100F00B
:10523000F4B8000038B5104A3421044600F062F892
:10524000054628B90D490E4808F0A8F9284638BD8A
:105250000C490B4808F0A2F904221146204600F040
:10526000A6F801220721204600F0F6F8002120468A
:10527000FFF7DAFFEAE700BF8473001051AE0400C5
:105280001C73001076AE0400417981F00101FFF734
:10529000CBBF4079704700220260704730B50124CF
:1052A0008BB00025CDE900540A462346016803A8C7
:1052B00000F007F9224602A903A88DF8085000F073
:1052C00076F99DF808000BB030BD08B50321FFF753
:1052D000E5FF00F00F0008BD0421FFF7DFBF30B588
:1052E00001238BB00025CDE9005314460A4601681E
:1052F00003A800F0E6F82A46214603A800F039F991
:105300000BB030BDF8B5044600680E46174608B12C
:1053100003F0A2FA102003F0A1FA3A4605463146FE
:1053200000F0ABF925602846012100F0C3F90546DD
:10533000D8B3002223212046FFF7D1FF00222421E9
:105340002046FFF7CCFF002225212046FFF7C7FFAC
:10535000FF2220212046FFF7C2FFFF222121204605
:10536000FFF7BDFFFF2222212046FFF7B8FF0022F2
:1053700026212046FFF7B3FF002227212046FFF712
:10538000AEFF002228212046FFF7A9FFFF221A21A5
:105390002046FFF7A4FFFF221B212046FFF79FFFB7
:1053A000FF221C212046FFF79AFF2846F8BD082956
:1053B00013B514462FD80A2A2DD811B9012002B0EE
:1053C00010BD002AFAD000231A4652000133D2B28F
:1053D000994242F00102F8DC1D210190FFF77FFFA6
:1053E000002301981A4652000133D2B29C4242F087
:1053F000010201DD082BF6D11E210190FFF76FFF9E
:10540000082C0198DAD9092C0CBF012203221F2194
:10541000FFF765FFD2E70020D1E7112973B50B46EE
:105420000446164616D8C908173103F007030125AC
:1054300001919D40FFF732FF019946B920EA05022C
:105440002046D2B2FFF74BFF012002B070BD40EA08
:105450000502F5E70020F8E711292DE9F34105469B
:10546000884617462BD8CE0806F12301012208F002
:10547000070802FA08F80191FFF710FF5FFA88F4B5
:10548000012F0CBF44EA000320EA0803DAB20199B5
:105490002846FFF724FF06F12C0128460191FFF76B
:1054A000FDFE022F0CBF20EA08002043C2B2019982
:1054B0002846FFF714FF012002B0BDE8F08100206C
:1054C000FAE730B50025C0E90015C2819DF810103B
:1054D0009DF80C20856141748274037430BDF0B571
:1054E000044685B0C089ADF80C004FEA102C206846
:1054F000A37B0D46164640B1637C019303AB00933A
:10550000012300F0E6F805B0F0BD606838B3277BF2
:10551000647C032F0BD12CF0010C01348DF80D307D
:105520008DF80CC0009403AB00F031FAEBE747B9FB
:1055300003F07F038DF80C30009403AB324629460C
:10554000F2E7022F02D163F07F03F3E7012FF3D1DB
:105550009DF80C3003F07F0343F04003EAE7A068B6
:105560000028D0D000920B46627C03A900F076F8A8
:10557000C9E7F0B40B4602B9027C042A14D800F142
:105580001305836184182946844209D0877CDEB2E2
:1055900027B92E701B0A0135013CF5E7A674F9E71F
:1055A0002046F0BCFFF79BBF0020F0BC70477FB5E2
:1055B000857B04460B46C1890068ADF80C100E0AC5
:1055C00040B10021CDE9002103A9627C00F0EDF893
:1055D00004B070BD606848B3217B647C03290DD1A1
:1055E00046F00106FF21CDE900218DF80C608DF811
:1055F0000D50621C03A900F0ECF9E9E741B965F030
:105600007F058DF80C50FF21CDE900212246F1E7FE
:10561000022902D105F07F05F3E7012902BF9DF8B9
:105620000C1061F03F018DF80C10ECE7A068002829
:10563000CED00092627C03A900F001F8C8E730B434
:10564000047CBDF8085034B1846824B10295A446A6
:10565000406930BC6047002030BC704730B4047CE7
:10566000BDF8085034B1C46824B10295A44640691D
:1056700030BC6047002030BC70474260002202729C
:1056800020220170C2607047037A10B504465BB1F6
:105690002178606807F020FF6068012107F028FF8B
:1056A000B0FA80F0400910BD012100F003F8002895
:1056B000EED1F8E738B5044640680D4607F0D4FE51
:1056C0000120207225B12046BDE83840FFF7DCBF3D
:1056D00038BD2DE9F843DDE908961F46C368154635
:1056E00032449A420446884602D90020BDE8F88335
:1056F0000178406807F0F0FE7EB9606803682A46CA
:105700005B68414698478542EFD16068394607F0AB
:10571000EFFEB0FA80F04009E8E7B9F1000FECD0F5
:105720006068036832465B6849469847B042DCD1FE
:10573000E3E72DE9F041154604460F46D2B2017861
:10574000406807F0BFFE85420BD10026B54206F146
:10575000010809D9606803685B699847B8554646EF
:10576000F4E70020BDE8F0810120FBE72DE9F843D4
:1057700007468846164699460025B54212D2FA6871
:10578000741B944228BF1446331BAB4294BF4B4654
:105790000023224608EB05013846FFF7CAFF10B187
:1057A0002544EAE70120BDE8F88373B51D460023D0
:1057B000CDE900339DF81C30069E0446FFF789FFB3
:1057C00040B1012332462946204602B0BDE8704070
:1057D000FFF7CCBF02B070BD2DE9F74F044600685B
:1057E0000E46134620B103B0BDE8F04F07F0D9BD17
:1057F000227BA068494FB7FBF0F7002A0A780CBF5C
:105800004FF0010B4FF0800B1BEA020F0B440CBF53
:105810004FF001094FF00009FFB20193019BB34221
:1058200079D096F800A05D464FF0000817B13846D1
:105830000DF053FE637BA26913F0FD0F42D194F982
:105840001030591C11D01AEA050014BF012300239F
:105850004B450AD06369D4F824C0196800282CD0BD
:1058600041EA0C0119604FF001091168E36A0B432A
:10587000136017B138460DF030FE94F91130013342
:1058800006D0E3691A68A36A1A4218BF45EA0808F5
:10589000A169E36A0A6822EA03030B6094F91130F4
:1058A000013318BF86F80080237B002B31D16D00B7
:1058B000EDB2002DBAD10136B0E721EA0C01196032
:1058C0008146D2E71168E36A0B43136017B138468B
:1058D0000DF003FE94F91030013308D06369616A5A
:1058E0001A681AEA050F14BF0A438A431A60A169AD
:1058F000E36A0A6822EA03030B6094F9113001336A
:10590000CCD0E3691A68A36A1A4218BF45EA0808AE
:10591000C4E76D08CDE703B0BDE8F08F20A1070014
:1059200007B501228DF807100DF10701FFF754FFAD
:105930009DF8070003B05DF804FB036823B14268DB
:10594000184606CA07F0F0BC7047006808B107F0B7
:105950001ABD704790F90E00431C03D0C9B2C0B203
:1059600007F0C7BE704710B50446FFF7E6FF2046B4
:105970000021BDE81040FFF7EDBF10B5012104463E
:10598000FFF7E8FF2046BDE81040FFF7DEBF2DE936
:10599000F0411C4606460D461746FFF7E4FF069BFE
:1059A00004EB0308444508D12F44BD420BD015F841
:1059B000011B3046FFF7B4FFF7E714F8011B304630
:1059C000FFF7AEFFEEE73046FFF7D7FF0120BDE857
:1059D000F0812DE9F0410D4617469DF81C800646E2
:1059E0001C46FFF7C0FF2F44BD420AD1069BE518B5
:1059F000AC420CD041463046FFF792FF04F8010B51
:105A0000F6E715F8011B3046FFF78AFFECE7304652
:105A1000FFF7B3FF0120BDE8F08105F0C5BE05F03A
:105A2000C8BE000013B50B4C23780BB900F090F8FA
:105A300008230B22CDE90032074809230A2200215E
:105A400000F052FB00F090FB23780BB90123237088
:105A500002B010BD6052001064820210BFF34F8F7D
:105A60000549064BCA6802F4E0621343CB60BFF3FA
:105A70004F8F00BFFDE700BF00ED00E00400FA0516
:105A8000292070470DF04DBDF8B50C462F2C9DF820
:105A90001850079F0646114605DC631C047002D0AF
:105AA00012B1012A12D0F8BD012D0DD0022D01D066
:105AB00025B9022120460DF089FEB572204600214D
:105AC000BDE8F8400DF080BE2946F3E720460DF012
:105AD0007BFE391E204618BF0121BDE8F8400DF0BD
:105AE00077BE38B5044690F900002F281D4615DC16
:105AF000A3B1022923610DD003290DD001290DD1B5
:105B000003210DF069FE94F900002946BDE83840F4
:105B10000DF064BE0521F4E70621F2E738BD90F9E7
:105B200000002F2806DC431C04D0003918BF0121D7
:105B30000DF04EBE704708B590F900002F2804DC28
:105B4000431C02D00DF046FE08BD0020FCE700001B
:105B500010B5054C23782BB9044902200DF04CFFF9
:105B60000123237010BD00BF61520010ED15040029
:105B700010B502200DF048FF064B1A681860044665
:105B800000219442596002D205F0ECF90444204609
:105B900010BD00BF68520010014B1868704700BF6D
:105BA000685200100A2070470DF024BF0DF020BF8E
:105BB00002200DF027BF000007B50190022005F07C
:105BC00099F9044A0199022003B05DF804EB0DF045
:105BD00017BF00BF68520010FFF7EEBF022005F0AC
:105BE0009FB9000008B5034B02201A6800230DF08E
:105BF0000FFF08BD6852001070B5064602200DF078
:105C000005FF4FF47A72002305460C46FEF76EFF3F
:105C10000023328028464FF47A722146FEF766FF51
:105C200070BD10B50C460CF02FFA2046BDE81040B0
:105C30000CF03CBA38B50C4605460CF01FFA28604B
:105C40000CF02EFA206038BD704708B5012012F024
:105C5000EBFC002008BD704700BEFDE7FEE700003A
:105C6000BFF34F8F0549064BCA6802F4E062134345
:105C7000CB60BFF34F8F00BFFDE700BF00ED00E03A
:105C80000400FA0570B50C4D0C4C641BA4100026E2
:105C9000A64207D10A4D0B4C641BA4100026A64255
:105CA00005D170BD55F8043B98470136F0E755F82B
:105CB000043B98470136F2E70000000000000000B6
:105CC0002CAB04003CAB040008B5FFF7C9FF08B5D6
:105CD000FFF7C6FF13B50378092B11D8DFE803F0EF
:105CE000126A909910A1A105A5A9047920460CF08B
:105CF00025F920460CF0CAF8002120460CF026F9C0
:105D000002B010BD01200CF019F9012823D10020A8
:105D10000CF014F90128F3D0484B1B781BB142F268
:105D2000107004F041FB00200EF092F80028E7DD2F
:105D3000012201A900200DF051FF00200CF0FEF817
:105D400004460028EFD10EF061F858BB9DF804100E
:105D50000CF008F8E7E7394B1B781BB142F21070E2
:105D600004F022FB01200EF073F80028CFDD0122A1
:105D700001A910460DF032FF01200CF0DFF80028D9
:105D8000F0D101200EF042F828B99DF8041001204E
:105D90000BF0E8FFE6E70128E4D19DF804100DF0D0
:105DA0008BFFDFE70128BED19DF8041020460DF0DF
:105DB00083FFB8E703200CF0C1F80128A0D003202E
:105DC0000EF046F800289BDD012201A903200DF00A
:105DD00005FF03200CF0B2F80028F0D103200EF0EC
:105DE00015F828B99DF8041003200BF0BBFFE6E777
:105DF0000128E4D19DF8041003200DF05DFFDEE7DB
:105E00000F4B1B6E03B1984720F000FE07F08EFC8D
:105E100076E70C4B1B68002B3FF472AF4068984745
:105E20006EE740680EF028F96AE700200DF0FAFDF1
:105E300066E740680DF0D8FC62E700BF74520010BE
:105E40001C110500C828021030B5474B474A1B6893
:105E5000474999B000240193464B0093204640F2F5
:105E6000CD13CDE903441EF0F1F80EF0F9F80DF072
:105E70005BFB0DF063FA0CF039F923460146054649
:105E800003222046CDE900440DF0CEFD23462946ED
:105E9000CDE90044032201200DF0C6FD36494FF440
:105EA00078231A68501C0ED002F00300012810D08D
:105EB00022F00302B2F5801F0BD204338B42F0D1E3
:105EC0001B68013305D108AA08214FF4782012F08D
:105ED0001FFB0DF08BFA03F037FB0DF0BDFA082124
:105EE00003A807F04DFE9DF813309DF811202349BB
:105EF000009308A89DF8123000F0E2FF08A8FEF712
:105F0000FFF8C1B208A80DF07BFA0C2105A80CF02F
:105F1000C5F905A80DF076FA002103200CF016F85B
:105F200000240322234629461046CDE900440DF003
:105F30007BFD0BF0CFFF0CF0C1F909F079FBE5B266
:105F400028460BF0FBFF10B928460BF09FFF0134E9
:105F5000042CF4D10EF068F80CF0B8FE012801D141
:105F600009F0D2FE19B030BD6C2C0010D0AE040088
:105F700050AF040058AF040024800F0068AF040045
:105F800008B5044B1B6E03B19847BDE808400EF0FE
:105F900059B800BF1C110500F8B5FFF755FF02F016
:105FA00077FC1D480DF0DEFD07F0D0FE012822D061
:105FB000022822D010B919480DF0D4FD184F194D00
:105FC000194EFFF7DDFF3C78CCB92B7883B142F254
:105FD00010700DF06DFA23460722314620462C70D2
:105FE00006F0EAFE234607223146012006F0E4FED1
:105FF00002F050FCE5E70D48DEE70D48DCE70BF06A
:10600000E1FF0028DDD02B7803F0FF00002BD8D172
:106010000DF0AEFCD5E700BF79AF04008DAF0400F2
:106020007452001054600010B0AF040099AF040027
:10603000A4AF040007B5FFF725FE1DF0FBFF234BBF
:10604000234A2449009300204FF421731DF0FEFFE2
:10605000002108460FF01CFF024620B11C4940F207
:106060008E201EF01BF81C480FF042FE024620B1A5
:1060700017494FF425701EF011F80FF05BFE024631
:1060800020B1134940F296201EF008F812F02CFBC4
:10609000012012F031FB12F015F9024620B10C4933
:1060A00040F2A7201DF0FAFF12F0CCF90B4B019340
:1060B00001230B4900934FF480520023094813F049
:1060C00045FD13F04DFEFFF7CBFD00BFB8AF040058
:1060D000D0AE040050AF040038F20400705200103B
:1060E000D1AF0400995F01002DE9F3410C46002572
:1060F000064600F8044B02249DF9208011461F46F5
:1061000022462B46CDE900452BF070F82B4622465F
:10611000394606F11800CDE900452BF067F806F185
:106120002C00CDE900452B46224641462BF05EF877
:10613000012002B0BDE8F0410DF0FABE7FB50122AA
:106140000023ADF80E108DF81730019300920DF179
:1061500017030DF10E0110460DF04EFF9DF81700CC
:1061600007B05DF804FB000073B5174E002401254D
:1061700023462A463046CDE900450B212BF036F860
:1061800023462A46A6F1A400CDE9004511212BF0B3
:106190002DF823462246A6F19000CDE900441021B7
:1061A0002BF024F823462246A6F17C00CDE90044DA
:1061B0000F212BF01BF82B4602222946122002B099
:1061C000BDE870400DF0FEBAA4820210034603221F
:1061D000014801212BF012B8288202104FF42071DF
:1061E00001202AF02DBE0A20704701202AF01CBE93
:1061F000014B1878704700BF75520010014B1870A2
:10620000704700BF7552001010B50A4C0A202AF0E2
:10621000EBFF002120462AF0F3FF14202AF0E4FFD0
:10622000204601212AF0ECFFBDE810400A202AF0A8
:10623000DBBF00BF0082021010B5034C20462AF0DD
:10624000E1FF0128FAD010BD1482021038B50C4CC1
:1062500000212046A4F140052AF0D2FFC0212846A3
:10626000FFF76CFF00212846FFF768FF0121204659
:106270002AF0C6FFFFF7E0FF024B01221A7038BD7B
:10628000A482021075520010F8B5154606460C4659
:106290002AF0BEFB0E480F4F00212AF0B1FF0D4837
:1062A0003146FFF74BFF2544AC4209D10848012194
:1062B0002AF0A6FF842E09D0BDE8F840FFF7BCBF46
:1062C00014F8011B3846FFF739FFEDE7F8BD00BFB2
:1062D000A482021064820210F8B5154606460C46E8
:1062E0002AF096FB0F48104F00212AF089FF314613
:1062F0000D48FFF723FF0C480021FFF71FFF25443F
:10630000C6B2AC4207D1074801212AF079FFFFF756
:1063100093FF3046F8BD00213846FFF70FFF04F821
:10632000010BEEE7A48202106482021070B51546DC
:1063300006460C462AF06CFB104800212AF060FF4C
:106340000D210F48FFF7FAFE310A0D48FFF7F6FE60
:10635000F1B20B480A4EFFF7F1FE2544AC4207D1DB
:10636000064801212AF04CFFBDE87040FFF764BFEA
:1063700014F8011B3046FFF7E1FEEFE7A48202109C
:106380006482021007B501228DF807100DF1070194
:10639000FFF7CCFF03B05DF804FB000070B51546B5
:1063A00006460C462AF034FB134800212AF028FF49
:1063B0001D211248FFF7C2FE310A1048FFF7BEFE4A
:1063C000F1B20E480D4EFFF7B9FE0C480021FFF761
:1063D000B5FE2544AC4207D1074801212AF010FF41
:1063E000BDE87040FFF728BF00213046FFF7A6FE4A
:1063F00004F8010BEEE700BFA482021064820210D1
:1064000007B501220DF10701FFF7C8FF9DF807004E
:1064100003B05DF804FB0000F8B5144605460E46CF
:106420002AF0F6FA0F48104F00212AF0E9FE0E215B
:106430000D48FFF783FE29460B48FFF77FFE002536
:10644000A4B2ABB29C4207D8064801212AF0D8FE7C
:10645000BDE8F840FFF7F0BE715D3846FFF76EFE0D
:106460000135EEE7A482021064820210F8B51446EA
:1064700005460E462AF0CCFA1248134F00212AF0A6
:10648000BFFE1E211048FFF759FE29460E48FFF7B0
:1064900055FE0D480021FFF751FE0025A4B2ABB216
:1064A0009C4207D8074801212AF0AAFEBDE8F8401F
:1064B000FFF7C2BE00213846FFF740FE7055013598
:1064C000EDE700BFA48202106482021002212AF0CC
:1064D00005BD70477047704701482AF093BE00BF62
:1064E00028820210074B0849186843F2390201FB61
:1064F000002018606FF00043B0FBF3F3C3EBC373ED
:10650000C01A70474C2C00106D4EC641014B1860EC
:10651000704700BF4C2C001038B505460C46FFF7FD
:10652000E1FF611B013190FBF1F303FB11002844F3
:1065300038BD01380A44914200D1704711F8013B3F
:1065400000F8013FF7E710440A44914200D1704738
:1065500011F8013B00F8013DF7E70244904200D1F9
:10656000704700F8011BF9E730B530B10A4D01441E
:106570004FF0FF33814201D1D84330BD10F8012BD9
:106580005340082243F30004013A2C4092B284EABB
:106590005303002AF6D1EDE72083B8ED4FF0FF302A
:1065A0007047000030B591B10A4D0A44914200D1C4
:1065B00030BD11F8013B5840082340F30004013B73
:1065C0002C409BB284EA5000002BF6D1EEE708463F
:1065D000EEE700BF2083B8EDC04370470244034696
:1065E000934200D1704703F8011BF9E72DE9FF47FB
:1065F00055EC104B002D0E4619462B46BBBF05F13E
:1066000000431D4600232D230B700D9BDDF830A0A9
:10661000914623F02008BCBF22461446B8F1460F2D
:1066200005D0B8F1450F00D10136022100E0032169
:1066300003AB019302AB009345EC104B534632463B
:1066400000F0EAFCB8F1470F074602D119F0010F3C
:1066500022D0B8F1460F07EB060910D13B78302B5A
:106660000AD10022002320462946FEF7CFF918B9A7
:10667000C6F10106CAF80060DAF800309944002239
:10668000002320462946FEF7C1F908B1CDF80C9049
:106690003022039B4B4507D3039B0E9ADB1B3846E6
:1066A000136004B0BDE8F087591C03911A70F0E73D
:1066B000F7B503460029B8BF494203F8022BB4BF1F
:1066C0002D222B22092942702ADD0DF10704A44650
:1066D0000A27A6460A4691FBF7F607FB1615303542
:1066E000632A04F1FF340EF8015C3146F1DC3031ED
:1066F000AEF1020504F8011C441C294661450AD389
:106700000DF10902A2EB0E02654588BF0022134479
:10671000181A03B0F0BD11F8012B04F8012FEDE7B2
:10672000302330318370C170031DF1E72DE9F04F44
:106730002DED028B8DB00C46DDF8608016461F46AD
:10674000054601F047FAD0F800A05046FDF7D8FC06
:1067500000230A9323680593D8F8003094F818B002
:10676000073323F0070303F10802C8F80020D3E938
:106770000023C4E91223D4E9128929F000430793C6
:10678000CDF8188008EE100A9F4BDDE906014FF0A6
:10679000FF32FEF76DF988BBDDE906019A4B4FF039
:1067A000FF32FEF747F948BB002200234046494626
:1067B000FEF736F910B12D2384F84330934B9448FB
:1067C000BBF1470F94BF9846804603232361059B86
:1067D00023F0040222604FF00009009733460BAA11
:1067E0002146284600F0D8F9013040F090804FF063
:1067F000FF300DB0BDEC028BBDE8F08F42464B463A
:1068000040464946FEF734F940B14B46002BBCBF29
:106810002D2384F843307F487F4BD1E763680BF02A
:10682000DF0206925A1C3FD106236360059B616814
:1068300043F48062002303930AABCDE901B309ABB3
:1068400049EC108B009322600DF123032846FFF7DB
:10685000CDFE069B0999472B804608D1C81C02DB58
:106860006368994241DDABF1020B5FFA8BFBBBF130
:10687000650F20D801395A4604F150000991FFF7FD
:1068800017FF0A9A1318012A8146236102DC226845
:10689000D20701D5013323619DF82330002B9CD012
:1068A0002D2384F8433098E7069A472ABED1002B5F
:1068B000BCD10123B9E7BBF1660F18D10029636889
:1068C0000BDD216113B92268D00702D501330B44D7
:1068D0002361A1654FF00009DEE713B92268D207F2
:1068E00001D50233F4E70123F2E74FF0670B0A9B6F
:1068F000994205DB23682161D807EAD54B1CE7E7FD
:106900000029D4BFC1F1020201221344E0E7236849
:106910005A0507D42369424631462846B847013014
:106920002CD164E7BBF1650F40F2E080D4E912019D
:1069300000220023FEF76AF8002834D0374A0123EA
:1069400031462846B84701303FF451AFDDE909230D
:106950009A4202DB2368D80710D518EE103A524647
:1069600031462846B84701303FF441AF4FF00008A8
:1069700004F11A090A9B013B434509DC23689B0784
:1069800000F10581E0680B9B9842B8BF184630E7DC
:1069900001234A4631462846B84701303FF427AF25
:1069A00008F10108E6E7099B002B39DC1B4A0123AB
:1069B00031462846B84701303FF419AFDDE90923D5
:1069C000134302D12368D907D8D518EE103A52469E
:1069D00031462846B84701303FF409AF4FF000096F
:1069E00004F11A0A099B5B424B4501DC0A9B92E7C2
:1069F0000123524631462846B84701303FF4F7AEEE
:106A000009F10109EEE700BFFFFFEF7FD5B00400F9
:106A1000D9B00400E1B00400DDB00400A2CC040051
:106A20000A9AA36D9A42A8BF1A46002A914637DCFB
:106A30004FF0000B29EAE97904F11A02A36D0593DE
:106A4000A3EB09035B4533DCDDE909239A423BDB19
:106A50002368DA0738D40A9A059B0999D31AA2EB5E
:106A600001099945A8BF9946B9F1000F35DC4FF0EF
:106A7000000829EAE97904F11A0ADDE909239B1AD9
:106A8000A3EB090343457FF779AF01235246314613
:106A90002846B84701303FF4AAAE08F10108ECE7F8
:106AA0001346314642462846B8470130C0D19EE6DB
:106AB0000123314628460592B84701303FF497AE8E
:106AC000059A0BF1010BB9E718EE103A5246314620
:106AD0002846B8470130BED189E6059A4B46424464
:106AE00031462846B8470130C1D180E60A9A012ACA
:106AF00001DCDB0738D50123424631462846B8473A
:106B000001303FF474AE18EE103A52463146284632
:106B1000B84701303FF46BAED4E9120100220023E4
:106B2000FDF774FFD8B90A9B08F10102013B314619
:106B30002846B84701300ED159E601235246314666
:106B40002846B84701303FF452AE08F101080A9BCD
:106B5000013B4345F1DC4B4604F15002DCE64FF0CB
:106B6000000804F11A0AF2E701234246DFE7012395
:106B70004A4631462846B84701303FF438AE08F15E
:106B80000108E3680B995B1A4345F0DCFAE64FF025
:106B9000000804F11909F4E72DE9F0471646994673
:106BA0008A680B69DDF820809342B8BF13463360D2
:106BB00091F8432007460C460AB10133336023683D
:106BC000990642BF336802333360256815F0060525
:106BD00006D104F1190AE36832689B1AAB4226DC3D
:106BE00094F84320131E226818BF012392062BD469
:106BF00004F1430249463846C04701301ED023689D
:106C0000E568326803F00603042B08BFAD1AA368D9
:106C100022690CBF25EAE57500259342C4BF9B1A83
:106C2000ED1800261A34B5421AD1002008E00123DD
:106C3000524649463846C047013003D14FF0FF3035
:106C4000BDE8F0870135C6E7E1185A1C302081F80D
:106C50004300224494F8451082F843100233C7E7FA
:106C60000123224649463846C0470130E6D0013666
:106C7000D9E700002DE9FF470C469146277E0C9985
:106C8000782F80469A4604F1430207D8622F0AD82B
:106C9000002F00F0D880582F00F0A38004F14206A6
:106CA00084F842703AE0A7F16303152BF6D801A0EF
:106CB00050F823F00D6D0100216D01009D6C010065
:106CC0009D6C01009D6C01009D6C0100216D010017
:106CD0009D6C01009D6C01009D6C01009D6C01008C
:106CE0002D6E0100516D01000F6E01009D6C0100C1
:106CF0009D6C01004F6E01009D6C0100516D010003
:106D00009D6C01009D6C0100176E01000B681A1D3F
:106D10001B680A6004F1420684F842300123A3E0B4
:106D2000256808682E0600F104030AD505680B6083
:106D3000002D03DA2D236D4284F843305E480A2388
:106D400019E015F0400F05680B6018BF2DB2EFE792
:106D50000B682568181D0860280601D51D6802E02B
:106D60006906FBD51D8854486F2F0CBF08230A23E2
:106D7000002184F843106668A660002EA2BF216837
:106D800021F0040121600DB9002E4DD01646B5FB4F
:106D9000F3F103FB1157C75D06F8017D2F46BB4297
:106DA0000D46F4D9082B0BD12368DF0708D52369DA
:106DB00061689942DEBF302306F8013C06F1FF36D8
:106DC000921B2261CDF800A04B4603AA2146404603
:106DD000FFF7E2FE01304CD14FF0FF3004B0BDE8C8
:106DE000F087354884F8457023680E681F0656F80A
:106DF000045B0E6014D5D90744BF43F02003236021
:106E00001DB9236823F0200323601023B0E7236813
:106E100043F0200323607823284884F84530E3E7D3
:106E20005E0648BFADB2E6E71646BBE70B682668CC
:106E300060691D1D0D6035061B6801D5186002E0F4
:106E40007106FBD51880002323611646BAE70B684C
:106E50001A1D0A601E68626800213046FDF758F965
:106E600008B1801B606063682361002384F84330AD
:106E7000A8E72369324649464046D0470130ABD0A7
:106E800023689B0713D4E068039B9842B8BF184659
:106E9000A4E70123324649464046D04701309BD003
:106EA0000135E36803995B1AAB42F2DCEBE700259E
:106EB00004F11906F5E700BFE5B00400F6B00400E0
:106EC0000EB400B59CB01DAB029006906FF000416F
:106ED000094807910491094953F8042B059100686A
:106EE000019302A901F0BAFA029B00221A701CB0A9
:106EF0005DF804EB03B07047702C00100802FFFF30
:106F00002DE9F74F03690C69A3420746C0F281805F
:106F1000013C01F1140800F1140505EB8403019311
:106F200058F8243055F8242001339A424FEA840B54
:106F300008EB8409B2FBF3F631D34FF0000E404664
:106F4000AC46F24650F8042B93B206FB03E34FEA3B
:106F5000134E9BB2AAEB0303120CDCF800A006FB55
:106F600002E213FA8AF34FEA124E1FFA82FADCF8B1
:106F70000020CAEB124202EB23429BB243EA0243D7
:106F800081454CF8043B4FEA224ADBD255F80B30DE
:106F90002BB9019B043B9D421A462ED33C613846D7
:106FA00001F065F8002824DB013628464FF0000C7C
:106FB00058F8042BD0F800E093B2ACEB0303120CAA
:106FC00013FA8EF3C2EB1E4202EB23429BB243EA5A
:106FD0000243C14540F8043B4FEA224CE8D255F841
:106FE000242005EB840322B9043B9D421A460AD3B0
:106FF0003C61304603B0BDE8F08F1268043B002AC4
:10700000CCD1013CC7E71268043B002AF0D1013C17
:10701000EBE70020EEE700002DE9F04F2DED028BAD
:1070200057EC106B95B0456ADDF880800591CDE98D
:107030000267044609920F933DB9102000F0CEFD7F
:10704000C0E9015560620560C560636A196851B1A5
:107050005A684A60012393408B60204600F010FE7E
:10706000636A00221A603B1EB9BF23F000430393FA
:107070000023C8F80030DDF80C90B74BBCBF0122EC
:10708000C8F8002033EA09031BD10F9A42F20F73AC
:107090001360C9F31303334300F07585219B63B973
:1070A000AE4B25E0AE4B00930833219A1360009855
:1070B00015B0BDEC028BBDE8F08FA84B00930333F5
:1070C000F3E79DED027B002251EC170B00238DEDC1
:1070D0000A7BFDF79BFC804660B10F9A0123136089
:1070E000219B002B00F04C859E4B219A1360013BA5
:1070F0000093DCE79DED0A0B12AA13A9204601F0CC
:1071000048F8C9F30A558246002D7ED00B9BCDF876
:107110004080C3F31303DDE90A6743F07F5747F468
:107120004017A5F2FF35904B002230463946FDF757
:107130004DF883A3D3E90023FDF700FA82A3D3E936
:107140000023FDF745F8064628460F46FDF78CF963
:107150007FA3D3E90023FDF7F1F902460B46304641
:107160003946FDF735F806460F46FDF797FC002235
:107170008146002330463946FDF752FC48B1484667
:10718000FDF772F932463B46FDF740FC08B909F1BC
:10719000FF39B9F1160F56D8744B03EBC903D3E985
:1071A0000023DDE90A01FDF73BFC00284DD009F181
:1071B000FF3900230E93129B5D1B6B1E049343BF8C
:1071C0000023C5F1010804934FF00008B9F1000F46
:1071D0003DDB049BCDF834904B440493002306938D
:1071E000059B092B00F29A80052BC4BF043B059335
:1071F000059BA3F10203CCBF00250125032B00F260
:107200009980DFE803F02C7D7B89DDE912531D4472
:1072100005F23243202BC1BFC3F1400305F21240F7
:1072200009FA03F326FA00F0DABFC3F1200306FAE5
:1072300003F01843FDF708F901230646A1F1F8779A
:10724000013D10936FE70123B4E70E90B3E7C9F156
:10725000000306930023A8EB09080D93C0E7002361
:107260000893099B002B00F385804FF0010BCDF8AC
:1072700004B05B46CDF824B0666A00227260042236
:1072800002F11400984271687AD9204600F0C4FCDB
:10729000636A30601B680093019B0E2B00F2F5803F
:1072A000002D00F0F280B9F1000F7DDD2F4A09F0CA
:1072B0000F0302EBC30393ED007B19F4807F4FEAC9
:1072C0002917B0EE478AF0EE678A5DD0284BDDE9DA
:1072D0000A01D3E90823FDF75BFACDE9020107F0C3
:1072E0000F070325224E002F50D1DDE9020153EC98
:1072F000182BFDF74DFACDE902016FE00123AFE74E
:1073000000230893099B09EB030B0BF10103012BED
:107310000193B8BF0123AFE70123F2E70125002362
:10732000059308954FF0FF3B0022CDF804B01223DF
:107330000992A1E701230893F4E700BFAFF30080AF
:1073400061436F63A787D23FB3C8608B288AC63F6B
:10735000FB799F501344D33F0000F07F10B104002D
:1073600007B10400A3CC04000000F83F40B10400C2
:1073700018B10400DDF824B0CDF804B05B467BE71B
:107380000131716052007BE70225ABE7F90708D5B0
:1073900051EC180BD6E90023FDF7D0F841EC180B9F
:1073A00001357F1008369EE700F0AB80C9F100067A
:1073B000AA4BAB4F06F00F0203EBC203D3E9002345
:1073C000DDE90A01FDF7BAF8CDE902013611002323
:1073D0000225002E40F08A80002B8CD10E9B002BC2
:1073E00000F09180DDE902679E4B0022304639466D
:1073F000FDF716FB002800F08680019B002B00F0B3
:107400008280BBF1000F3CDD09F1FF3307930022BE
:10741000954B30463946FDF791F8CDE9020101352B
:10742000CDF830B0DDE902672846FDF71DF8324699
:107430003B46FDF783F88D4B0022FCF7C9FEA1F116
:107440005073CDE9020103930C9B002B60D1884B54
:10745000002230463946FCF7B9FEDDE90223064634
:107460000F46FDF7FBFA002840F09982DDE9022182
:10747000304601F100433946FDF7D2FA002840F0CA
:107480008B82DDE90A23CDE90223139B002BC0F296
:107490005B81B9F10E0F00F35781704B03EBC90309
:1074A00093ED007B099BB0EE478AF0EE678A002BD4
:1074B00080F2E280019B002B00F3DE8040F06C82C2
:1074C0006B4B51EC170B0022FDF738F8DDE9022376
:1074D000FDF7BAFA019E3746002840F04282009D2F
:1074E000312305F8013B09F101093EE2F20705D518
:1074F000D7E90023FDF722F801350123761008377C
:1075000067E702256AE7019BCDF81C900C9389E799
:1075100000990C980C9A514B9DED027B014402910D
:107520000899B0EE478AF0EE678A03EBC20353E98D
:107530000223002945D04F490020FDF729F953ECDB
:10754000182BFCF743FE009D41EC180B39463046E2
:10755000FDF7A4FA0C90FCF787FF02460B46304675
:107560003946FCF733FE0C9B303305F8013B53ECF6
:10757000182B06460F46FDF753FA002865D1324610
:107580003B4638490020FCF721FE53EC182BFDF751
:1075900047FA002840F0B880029B9D423FF471AF4B
:1075A000314B51EC180B0022FCF7C8FF2E4B41EC7D
:1075B000180B002230463946FCF7C0FF06460F463E
:1075C000C4E751EC170BFCF7B9FF029B009D0C932D
:1075D00041EC180B39463046FDF760FA1190FCF784
:1075E00043FF02460B4630463946FCF7EFFD119B40
:1075F000303305F8013B029B9D4206460F464FF093
:10760000000225D11B4B51EC180BFCF7E1FD0246A3
:107610000B4630463946FDF721FA002874D153EC69
:10762000182B14490020FCF7D1FD02460B463046CA
:107630003946FDF7F5F900283FF423AF0C9D6B1E8A
:107640000C9315F8013C302BF8D0DDF81C9049E084
:10765000054BFCF773FF06460F46BBE740B104003D
:1076600018B104000000F03F0000244000001C405E
:10767000000014400000E03FDDE90267009D53EC8C
:10768000182B30463946FDF783F8FDF707FA804698
:10769000FCF7EAFE53EC182BFCF750FF02460B46B2
:1076A0003046394608F13006FCF790FD05F8016BCD
:1076B000009E019FAE1BB74202460B4637D1FCF736
:1076C00087FD53EC182B06460F46FDF7C7F9C8B9DE
:1076D00053EC182B30463946FDF798F910B118F0E5
:1076E000010F0FD12046514600F0CAFA00232B703B
:1076F0000F9B09F101001860219B002B3FF4D7ACD0
:107700001D60D4E4CDF81C902B461D4613F8012DC6
:10771000392A08D1009A9A42F7D1079A0099013282
:10772000079230220A701A7801321A708DE79E4B48
:107730000022FCF703FF0022002306460F46FDF758
:1077400065F900289BD0CDE7089A002A00F0C68092
:10775000059A012A00F3AA80109A002A00F0A2805C
:1077600003F23343069E4546049A01211A442046FB
:107770009844049200F029FB0746002D0BDD049B82
:10778000002B08DDAB42049AA8BF2B46A8EB0308E8
:10779000ED1AD31A0493069BFBB1089B002B00F053
:1077A000A180002E11DD39463246204600F0B2FBA2
:1077B000524601460746204600F010FB514607900E
:1077C000204600F05DFA079B9A46069B9A1B04D060
:1077D0005146204600F09EFB82460121204600F0E3
:1077E000F4FA0D9B002B06467EDD1A460146204624
:1077F00000F090FB059B012B064678DD00230693E5
:10780000336906EB8303186900F08FFAC0F120009A
:10781000049B184410F01F0000F08880C0F1200382
:10782000042B40F38180C0F11C00049B034480447E
:1078300005440493B8F1000F05DD51464246204649
:1078400000F0B6FB8246049B002B05DD31461A464C
:10785000204600F0ADFB06460E9B002B68D031465B
:10786000504600F004FC002862DA002351460A2248
:10787000204600F01CFA089B09F1FF398246002BD4
:1078800000F08881394600230A22204600F00FFAD2
:10789000BBF1000F074600F38F80059B022B40F3DE
:1078A0008B804DE0129BC3F136035BE7019B5E1EAC
:1078B000069BB342BFBF069B0696F21A0D9BB6BF4E
:1078C0009B189E1B0D93019BB8BF0026002BB5BFD4
:1078D000A8EB0305019B0023454645E7069E089F4C
:1078E00045464AE7069A73E7059B012B18DC029B85
:1078F000B3B9039BC3F31303A3B9039B23F0004362
:107900001B0D1B052BB1049B0133049308F10108E7
:10791000012306930D9B002B7FF472AF012077E7C4
:107920000023F6E7029BF4E784D018461C307CE77E
:10793000019B002B3ADC059B022B37DDDDF804B000
:10794000BBF1000F0DD131465B460522204600F009
:10795000AEF901460646504600F089FB00283FF785
:10796000BEAD099B009D6FEA03094FF00008314648
:10797000204600F085F9002F3FF4B4AEB8F1000FB7
:1079800005D0B84503D04146204600F079F9394684
:10799000204600F075F9A5E600263746E1E70C9E83
:1079A000DDF81C9037469AE500002440089BDDF87E
:1079B00004B0002B00F0F580002D05DD39462A4685
:1079C000204600F0F5FA0746069B002B55D0796853
:1079D000204600F021F93A6902320546920007F18B
:1079E0000C010C3000F00AF901222946204600F073
:1079F000DFFA009B01330193009B5B440793029BDA
:107A000003F00103B84606930746019B31465046F2
:107A100003F1FF3BFFF774FA03463033029041460F
:107A20005046089300F023FB3A4604903146204626
:107A300000F039FBC268089B054602BB0146504670
:107A400000F015FB089B024629462046CDE9083286
:107A500000F016F9059B099A019D43EA0201069B75
:107A60000B43089B0DD1392B27D0049A002A01DD46
:107A7000029B31338BF8003079E73846B9E70122B1
:107A8000E2E70499002904DB0598014306980143C5
:107A900020D1002AEEDD514601222046019300F05C
:107AA00087FA3146824600F0E2FA0028019B02DCA8
:107AB000E0D1DA07DED5392BDAD139238BF8003063
:107AC0002B461D46013B15F8012C392A50D00132B6
:107AD0001A704CE7002A03DD392BEED00133C9E7D9
:107AE000019A079902F8013C8A422AD051460023A4
:107AF0000A22204600F0DBF8B84582464FF000032A
:107B00004FF00A024146204607D100F0D0F88046E7
:107B10000746019B0133019377E700F0C8F8394627
:107B2000804600230A22204600F0C1F80746F0E70D
:107B3000BBF1000F009ACCBF5D46012515444FF004
:107B40000008514601222046019300F031FA3146E7
:107B5000824600F08CFA0028B2DC02D1019BDB07E0
:107B6000AED42B461D4613F8012D302AFAD0FEE67E
:107B7000009A9A42A5D1312309F101091370F6E662
:107B8000124BFFF7B5BA219B002B7FF48BAA104B49
:107B9000FFF7AEBABBF1000F03DC059B022B3FF7EA
:107BA000CFAE009D31465046FFF7AAF900F13003F1
:107BB00005F8013B009AAA1A9345B9DD5146002306
:107BC0000A22204600F073F88246EBE7A2CC0400BC
:107BD00007B1040000487047C42D0010024B014655
:107BE000186800F085BB00BF702C0010024B0146E6
:107BF000186800F02DBB00BF702C00100A449142A1
:107C000000F1FF3300D1704710B511F8014B03F8B4
:107C1000014F9142F9D110BD70B5466A04460D4638
:107C20003EB91020FFF7DAFFC0E901666062066026
:107C3000C660666AF36883B1636ADB6853F825003F
:107C4000B8B9012101FA05F6721D9200204600F034
:107C5000F0FA60B1C0E901560EE02122042120466D
:107C600000F0E7FA636AF060DB68002BE4D10020E3
:107C700070BD026843F825200023C0E90333F7E70D
:107C800070B5466A05460C463EB91020FFF7A6FFC0
:107C9000C0E9016668620660C6603CB16B6A6268F2
:107CA000DB6853F82210216043F8224070BD2DE9B3
:107CB000F0410E69074698460C4601F11400002376
:107CC0000568A9B202FB01814FEA114C2D0C02FBA1
:107CD00005C589B2013301EB05419E4240F8041B02
:107CE0004FEA1548ECDCB8F1000F1BD0A368B34293
:107CF00012DC616838460131FFF78EFF22690232DB
:107D000004F10C01054692000C30FFF777FF214685
:107D10003846FFF7B5FF2C4604EB86030136C3F85F
:107D2000148026612046BDE8F081030C1B04D3B902
:107D30000004102310F07F4F04BF0002083310F03E
:107D4000704F04BF0001043310F0404F04BF8000A7
:107D50000233002805DB10F0804F03F1010308BF58
:107D60002023184670470023E4E7036813F0070256
:107D700001460BD0DA0724D4980749BF5B089B085B
:107D800001200B605CBF0B600220704798B2B0B955
:107D90001B0C102013F0FF0F04BF1B0A08301A073A
:107DA00004BF1B0904309A0704BF9B080230DA079E
:107DB00003D45B0800F1010005D00B60704710464A
:107DC000E8E7002070472020704710B50C460121DD
:107DD000FFF722FF01224461026110BD2DE9F04F3F
:107DE00015460A692B699A42B8BF0B460C46BCBFC0
:107DF0002C461D462769D5F81090A368616807EBEB
:107E00000906B342B8BF013185B0FFF705FF00F1A5
:107E1000140101EB86080B46002243451DD304F1F3
:107E2000140305F1140203EB870702EB89030293A5
:107E30003B1B153B23F00303043304F11505AF424C
:107E400038BF04230193029B0392934208D8002E6B
:107E50005ADC066105B0BDE8F08F43F8042BDCE77F
:107E6000B2F800A0BAF1000F24D004F1140E894634
:107E70004FF0000C5EF8045BD9F800B0ABB21FFA0B
:107E80008BFB0AFB03B34FEA154BD9F80050634450
:107E90004FEA154C0AFB0BC505EB13459BB243EAB1
:107EA0000543774549F8043B4FEA154CE2D8019B5E
:107EB00041F803C0039BB3F802900432B9F1000FFC
:107EC00020D00B6804F1140C8E464FF0000ABCF869
:107ED0000050BEF802B009FB05B5AA449BB243EAC4
:107EE0000A434EF8043B5CF8043BBEF800501B0C00
:107EF00009FB035303EB1A4367454FEA134AE6D8DD
:107F0000019D4B5104319EE758F8043D002BA0D150
:107F1000013E9CE72DE9F843154612F003020646A0
:107F20000F4607D0214C013A002354F82220FFF7D6
:107F3000BEFE0746AD1035D0746A3CB91020FFF77D
:107F40004DFEC0E9014470620460C460D6F824802C
:107F5000D8F808404CB940F271213046FFF735FFA0
:107F60000023C8F80800044603604FF00009EB073F
:107F70000AD5394622463046FFF730FF394680465B
:107F80003046FFF77DFE47466D100BD0206838B9AC
:107F9000224621463046FFF721FF2060C0F80090BE
:107FA0000446E4E73846BDE8F88300BF08B20400A1
:107FB0002DE9F0470C464968236903EB6218A36872
:107FC000074691464FEA621A08F10106B3423FDBC9
:107FD0003846FFF721FE0023054600F1140100F1A9
:107FE00010021846534536DB20692AEAEA7A04F182
:107FF000140319F01F0901EB8A0103EB800C2ED04A
:10800000C9F1200E8A460022186800FA09F00243DE
:108010004AF8042B53F8042B9C4522FA0EF2F3D8AD
:10802000ACEB0403153B23F00303043304F1150008
:10803000604588BF0423CA500AB108F10206013E18
:1080400038462E612146FFF71BFE2846BDE8F08723
:1080500001315B00BAE742F8040F0133C2E704398B
:1080600053F8042B41F8042F9C45F9D8E7E730B5C5
:1080700002690C69121B0ED100F11403143103EBD9
:10808000840001EB840150F8045D51F8044DA542D1
:1080900003D005D30122104630BD8342F3D3FAE763
:1080A0004FF0FF32F7E72DE9F84F0C460646114630
:1080B00020461746FFF7DBFF051E08D1294630464C
:1080C000FFF7AAFD0123C0E90435BDE8F88FA4BF7E
:1080D0003B46274630467968A6BF1C460025012549
:1080E000FFF79AFD3E69C560256907F1140104F1A7
:1080F000140900F1140E07F1100201EB860C09EBD4
:108100008505F246002759F8043B52F804BF1FFAD0
:1081100083F817FA8BF71B0CA7EB0808C3EB1B437C
:1081200003EB28431FFA88F81F144D4548EA034320
:108130004AF8043BE7D82B1B153B23F00303043319
:108140001534A54238BF0423194473449E460D4696
:1081500065450ED30CF10302521A22F003020339D3
:108160008C4538BF00221A4452F8043D7BB10661A9
:10817000ABE755F8048B17FA88F4221402EB184287
:10818000A4B244EA02444EF8044B1714E0E7013E5F
:10819000EAE72DE9F7438946012157EC106B904639
:1081A000FFF73AFDC7F30A550446C7F3130335BB7F
:1081B000002E019328D068460096FFF7D6FD00995F
:1081C00000B3019AC0F1200302FA03F30B43C2404B
:1081D00063610192019BA361002B14BF0222012263
:1081E0002261D5B1A5F233450544C9F80050C0F16C
:1081F0003500C8F80000204603B0BDE8F08343F422
:108200008013D5E76161E5E701A8FFF7AEFD019BAB
:108210006361012222612030E3E704EB8203A0F2D4
:108220003240C9F800001869FFF77FFDC0EB42102B
:10823000DFE713B54A431146019200F059F80446AE
:1082400018B1019A0021FEF7C9F9204602B010BD0D
:1082500037B5002948D051F8043C0190002BA1F11A
:108260000404B8BFE41800F035FA204A01981368F6
:10827000154633B96360146003B0BDE8304000F0C8
:108280002FBAA3420BD921686218934204BF1A681F
:108290005B68636004BF521822602C60ECE71A46EA
:1082A0005B680BB1A342FAD911685518A5420BD1EE
:1082B000246821445418A3421160DDD11C685B6816
:1082C000536021441160D7E702D90C230360D3E740
:1082D000256861198B4204BF19685B68636004BF3D
:1082E000491921605460C7E703B030BD78520010CF
:1082F000F8B5CD1C25F0030508350C2D38BF0C252D
:10830000002D064601DBA94203D90C23336000206F
:10831000F8BD00F0DFF921490A6814469CB9204FE6
:108320003B6823B92146304600F098F93860294669
:10833000304600F093F9431C23D10C2333603046C0
:1083400000F0CEF9E3E723685B1B17D40B2B03D9AE
:1083500023601C44256004E06368A2420CBF0B60EC
:108360005360304600F0BCF904F10B00231D20F0EF
:108370000700C21ACCD01B1AA350C9E72246646872
:10838000CCE7C41C24F00304A042E3D0211A3046F9
:1083900000F064F90130DDD1CFE700BF7852001062
:1083A0007C5200102DE9F0478E689E4282460C46B2
:1083B00090461F4638D88A8912F4906F32D02568CB
:1083C0000969A5EB0109656905EB450505EBD5755F
:1083D00001334B446D109D4238BF1D46530531D5C6
:1083E0002946FFF785FF064650B90C23CAF800302E
:1083F000A38943F04003A3814FF0FF30BDE8F0872D
:1084000021694A46FFF7FAFBA38923F4906343F0FE
:108410008003A381266165614E44A5EB09052660B2
:10842000A5603E46BE4200D93E46324620684146DF
:1084300000F036F9A36822689B1B3244A3602260D7
:108440000020DBE72A4600F051F906460028E1D17A
:1084500021695046FFF7FCFEC7E700002DE9F04F09
:1084600098468B891B069DB007460D4614460ED5CF
:108470000B6963B94021FFF73BFF2860286120B9F1
:108480000C233B604FF0FF30D1E040236B610023B1
:10849000099320238DF82930CDF80C803023DFF8A4
:1084A000A8818DF82A304FF0010923469A4613F827
:1084B000012B0AB1252AF9D1BAEB040B0BD05B468C
:1084C000224629463846FFF76DFF013000F0AA80AA
:1084D000099A5A4409929AF80030002B00F0A280C1
:1084E00000234FF0FF32CDE905230AF1010A04937E
:1084F00007938DF853301A935446052214F8011B44
:108500005148FBF705FE049AD8B9D00644BF202392
:108510008DF85330110744BF2B238DF853309AF850
:1085200000302A2B15D0079A544600204FF00A0C31
:10853000214611F8013B303B092B4ED9B0B10792CF
:1085400014E0A0EB080309FA03F313430493A246D3
:10855000D2E7039B191D1B680391002BBBBF5B4235
:1085600042F0020207930793B8BF049223782E2BA0
:108570000CD163782A2B35D1039B1A1D1B680392FB
:10858000002BB8BF4FF0FF3302340593DFF8C8A0CB
:10859000217803225046FBF7BBFD40B14023A0EBFE
:1085A0000A0003FA00F0049B03430134049314F817
:1085B000011B26488DF828100622FBF7A9FD00288C
:1085C00038D0234B1BBB039B073323F0070308332F
:1085D0000393099B3344099367E70CFB02320C4673
:1085E0000120A5E700230134059319464FF00A0C3A
:1085F000204610F8012B303A092A03D9002BC5D0A8
:108600000591C3E70CFB012104460123F0E703AB0E
:1086100000932A460F4B04A93846FEF787F8421C00
:108620000646D6D1AB895B063FF52CAF09981DB045
:10863000BDE8F08F03AB00932A46064B04A93846E9
:10864000FEF718FBEBE700BF14B204001EB20400F3
:108650002D670100A58301001AB2040038B5064D4C
:108660000023044608462B6000F0E8F8431C02D1C2
:108670002B6803B1236038BD2008021082B001B915
:1086800001A942B14BB113780B601278101E18BFCC
:10869000012002B070471046FBE76FF00100F8E7D9
:1086A000884210B501EB020402D98442234607D860
:1086B000431EA14208D011F8012B03F8012FF8E75F
:1086C000024401468A4200D110BD13F8014D02F860
:1086D000014DF7E7014800F0A6B800BF24080210DA
:1086E000014800F0A1B800BF24080210F8B5074601
:1086F00014460E4621B9BDE8F8401146FFF7F8BD13
:1087000022B9FFF7A5FD25462846F8BD00F08DF8F3
:10871000A0420FD221463846FFF7EAFD0546002861
:10872000F2D031462246FFF769FA31463846FFF764
:108730008FFDE9E73546E7E738B50C460968054699
:1087400009B1FFF7F9FF21462846BDE83840FFF799
:108750007FBD00002C4B1B68834270B5044651D08E
:10876000436A43B1DB68002B4AD1636A196811B1CF
:108770002046FFF76DFD616911B12046FFF768FDE6
:10878000616A11B12046FFF763FDA16B11B120466C
:10879000FFF75EFDE16B11B12046FFF759FD216C3B
:1087A00011B12046FFF754FDE16D11B12046FFF7EE
:1087B0004FFDA16D11B12046FFF74AFD616B11B16C
:1087C0002046FFF745FDA369E3B1A36A2046984719
:1087D000A16CB9B12046BDE87040FFF7ADBF495963
:1087E00041B90435636A802DD968F8D12046FFF776
:1087F0002FFDBAE70E682046FFF72AFD3146EFE766
:108800000025EFE770BD00BF702C001049B1FF2AB2
:1088100085BF8A2303600A704FF0FF3098BF0120A4
:108820007047084670477047704751F8043C181F5E
:10883000002BBCBF0B58C01870470000044A054904
:108840001368002B08BF0B46184410601846704789
:1088500080520010588B0210FFF7C8B9012838BFAA
:10886000012010B504462046FFF7B8F930B900F0F2
:1088700007F808B931F0B0FA8047F4E710BD0000FE
:10888000024B1868BFF35B8F704700BF8452001023
:10889000FCF70CBBFCF756BBFEE7FEE7FEE700006B
:1088A000114812490160D1F800D01148016841F423
:1088B00070010160BFF34F8FBFF36F8F0D480E49FA
:1088C0000E4A50F8043B41F8043B9142F9DB0C4856
:1088D0000C494FF000028842B8BF40F8042BFADB85
:1088E000FDF7A8FB00BE000008ED00E0004001001D
:1088F00088ED00E0E8330500002B00104452001022
:1089000048520010588B0210034B5868C0F30800FF
:10891000003818BF0120704700ED00E007B5064B96
:108920000093064A064940F2415300201BF08EFB9B
:1089300003B05DF804FB00BFB4B304002CB3040023
:1089400050AF04002DE9F043DFF8D0802D4E8DB0FC
:108950004FF0FF31D8F800002B4D10F079FF02F0F6
:1089600031F8044648B301F08FFF286811F053F83E
:10897000264B00931FFA80F9254A2649CDF804902A
:1089800040F2852300201BF061FB0027BBB2994514
:1089900002D801F0BBFFDBE74FF0FF3202A92868E5
:1089A00010F0CEFE34689DF827309DF9280002AA09
:1089B0000DF12901A0470137E8E7286811F02BF8ED
:1089C000154B00931FFA80F9114A1249CDF8049013
:1089D00040F2932320461BF039FBA3B29945B7D947
:1089E0004FF0FF3202A9286810F0AAFE37689DF800
:1089F00027309DF9280002AA0DF12901B84701345A
:108A0000EBE700BF9453001098530010C7B3040065
:108A10002CB3040050AF0400E4B304009C530010D6
:108A20007FB5027A1A49062353430446CE5A1949A0
:108A3000CDE90262C3880193174B0093174A40F2B5
:108A4000062300201BF002FB6EB1207819F040F8DD
:108A5000054640B1207818F0EBFF20B1E288217A7A
:108A600028461AF0C8F90A201AF04AFB014668B1F4
:108A7000236803606368436023890381084B868011
:108A8000187804B0BDE870401AF04FBB04B070BD58
:108A9000582E001050AF0400FBB304002CB30400A8
:108AA0005408021038B505460089103080B21AF01B
:108AB00027FB0446B8B12B46024605F1100153F8D6
:108AC000040B42F8040B8B42F9D104F110006060F2
:108AD00069682A89FFF792F8034B21461878BDE8A8
:108AE00038401AF022BB38BD5408021013B501906B
:108AF00064201AF005FB044658B101996422FFF77F
:108B00007DF8054B1878214602B0BDE810401AF0F8
:108B10000CBB02B010BD00BF54080210024A13681B
:108B20000BB1013B13607047885F00102DE9F041E5
:108B30000C468EB000295BD08B789A1E102A46D83E
:108B4000084619F00FF9A378482B4AD80E2B4FD9B5
:108B50000F3B392B4CD8DFE813F056007F004B0059
:108B6000BD004B004B004B004B004B004B004B003B
:108B70004B004B004B004B004B004B00CD00FB006B
:108B800010014B0024013501440176015E02C4024C
:108B9000E402F10201030C031A034B004B004B00EB
:108BA0004B004B00330377034B004B004B004B0053
:108BB0004B004B0084034B004B004B004B004B0021
:108BC0004B004B004B004B00D402E500F000203B73
:108BD000482BB8D8084619F079FA204619F0CEFC8F
:108BE000B1E7682B00F0548305D8662B00F045836D
:108BF0000EB0BDE8F0813F33DBB2012BF8D8204640
:108C00000BF070FEF4E79D4B9D4A00939D4940F2A6
:108C1000B92300201BF01AFA628940F204739A42C9
:108C200010D1994B964A9749009300204FF4307326
:108C30001BF00CFA002395481A461946006810F0FC
:108C40004FFCD5E7924B009340F2C5238C4A8D49E7
:108C500000201BF0FBF9CBE78E4B894A8949009332
:108C6000002040F2CA231BF0F1F9237A0393A38872
:108C70000293E3880193884B0093814A814940F233
:108C8000272300201BF0E2F9237A012B0CD0022BC2
:108C900014D0227A022AABD9033AA3882188E0882B
:108CA00092B201F051F9A3E7E1882078012902D1BD
:108CB00001F05CFAEDE701F063FAEAE7E288207878
:108CC000012A04D1C222C1210BF0F4FDE1E70BF02F
:108CD00001FEDEE7E3890193704B694A009369491D
:108CE00040F2CF2300201BF0B1F9E3896C4A033B2B
:108CF00013807DE76B4B624A6249009300204FF47A
:108D000035731BF0A3F915F0CBFB17F079FE66481D
:108D1000002300681A46194610F0E2FB01201AF001
:108D2000B9F865E7614B00930020554A554940F278
:108D3000DD231BF08BF91220F1E75D4B009300203F
:108D40004F4A504940F2E2231BF080F91320E6E736
:108D5000584B4B4A4B490093002040F2E7231BF04D
:108D600075F9554B554801221A60002300681A46D0
:108D7000194610F0B5FB0320D1E7514B404A414959
:108D80000093002040F2EF231BF060F94A4A4D485F
:108D90000023136000681A46194610F0A1FB042056
:108DA000BDE7494B364A37490093002040F2F7238C
:108DB0001BF04CF9454B464801221A6000231A4625
:108DC00019463BE7414B434800241C60006823469A
:108DD0002246214610F084FB3F4B009340F20133C2
:108DE00034E73E4B1B68002B3FF402AF257A002D81
:108DF0003FF4FEAE61682A4604A8FEF7FFFE234654
:108E0000374853F80C2FCDF831209B88ADF835301A
:108E1000637A8DF8303000688DF82F5000230A22D5
:108E200004A910F05DFB012808D02E4B0093144AD2
:108E3000144940F2123300201BF008F900232A489D
:108E40001A461946FAE6294B294D0E49009300208F
:108E500040F21B330A4A1BF0F9F895F82D10254B08
:108E6000254803294AD105221A7002225A7001228C
:108E700099701A71DA700023037149E027B4040075
:108E80002CB3040050AF04003DB404004C080210A1
:108E900041B4040047B404005AB4040082B404008E
:108EA000562E001094B4040044080210A6B4040026
:108EB000BBB40400CFB404008C5F0010380802106B
:108EC000DCB4040050080210E9B40400945F001000
:108ED0004808021034080210F5B40400945300103E
:108EE0009853001000B504009C53001017B50400FF
:108EF000942E0010222F0010282F0010012202298A
:108F00001A707ED15970032199701A71DA7001714B
:108F1000B24B00222046DA601A6101F03DF920468A
:108F20000BF0E0FC204600F0EBFF95F82D30012B14
:108F300021D02078012101F019F995F82D30012B6D
:108F400019D002232078C222C1210BF0B3FC95F87E
:108F50002D30012B0FD0A24F03264FF0060808FB3F
:108F600006F3DB5B23B1F11E2078C9B200F0BCFF31
:108F700001360A2EF3D19B4800231A461946006891
:108F800010F0AEFA984800231A461946006810F00F
:108F9000A7FA964B00221A60954B01221A6095F8A9
:108FA0002D30934205D0204618F074FD207819F03A
:108FB00041FC904B04AA03F108061546186859684D
:108FC000144603C40833B3422246F7D118681B790C
:108FD000206023712846FBF793F8874C0023024654
:108FE0002946184603F0F6FE236843B101F0EAFC77
:108FF00070B101F049FC2368984701F087FC082014
:109000008DE6002159709A701971D970032333E7E6
:1090100023689847F3E7794800231A461946006801
:1090200010F05EFA237A0193754B764A76490093E5
:10903000002040F28F331BF009F8684B714A7249E7
:109040000025DD601D6123880193704B0093284645
:1090500040F267231AF0FAFF207801F09BF820789D
:109060000BF052FB00F030FF694B14221A805F4B6B
:1090700001221A605E4B1D60664B04AA03F11006C4
:10908000154618685968144603C40833B34222468B
:10909000F7D12846FBF734F85F4C002302462946F7
:1090A000184603F097FE236843B101F08BFCA8B18A
:1090B00001F0EAFB2368984701F028FC574B584A17
:1090C000029340F2AD3300204F49019300924D4A84
:1090D0001AF0BCFFFFF722FD092020E6236898471D
:1090E000ECE7504B474A48490093002040F2B53323
:1090F0001AF0ACFF204600F003FF204601F04CF8C8
:109100007DE5237A0393637A029323790193464B97
:1091100000933C4A3C4940F2C63300201AF096FFC7
:1091200066E5424B374A38490093002040F2CA3383
:109130001AF08CFF17F064FC0A20F0E53C4B314A32
:109140003149009300204FF474731AF07FFF17F039
:1091500057FC207818F0ABFC0B20E0E5354B009372
:109160000020284A284940F2DA331AF06FFF0C2019
:10917000D5E5314B234A24490093002040F2DF33E8
:109180001AF064FF207818F092FC0D20C7E52B4BF5
:109190001C4A1D49009300204FF47A731AF056FFC1
:1091A000274830F020FE0423ADF81000000C8DF8A5
:1091B0001200A370207804AA032117F0B5FB17E56D
:1091C000204B00930F4A104940F2FE3300201AF062
:1091D0003DFF201D17F01CFC0AE500BF402E0010CB
:1091E000582E001050080210380802108C5F001032
:1091F000905F00105CB604008C5300103C08021015
:1092000028B504002CB3040050AF04004EB5040090
:10921000562E001069B604009053001048B80400A0
:1092200067B5040079B5040080B50400ADB504004D
:10923000BDB50400CAB50400D8B50400EDB50400FE
:10924000BA2E0010FDB50400144B0093144A1549C2
:1092500040F2044300201AF0F9FE204618F01AFCF0
:10926000C6E4E3780193104B00930D4A0D4940F298
:10927000094300201AF0EAFEBAE40C4B00930020E8
:10928000074A084940F20D431AF0E0FE1B2046E56C
:10929000074B009340F21343D8E400BF05B6040027
:1092A0002CB3040050AF04000DB6040030B6040027
:1092B00040B60400174B184A10B51870174B1A60C7
:1092C000174B184A1A60184B184A1A60184B194A5B
:1092D0001A60194B194A1A60194B1A4A1A60044647
:1092E00018F05CFC18F0D2FE18F046FD18F07CFB7C
:1092F0002046154900F0C6FE204614490BF0E4F95B
:109300002046134900F0CAFDBDE81040114817F08F
:1093100035BB00BF540802101A2F0010547D0210F4
:10932000007E021060B804006C7D0210A45300108F
:109330004C7D0210222F0010687D0210C82E0010F4
:10934000A0470010282F001044B804005CB80400A7
:1093500040B80400FE2E00101A4908B5084616F061
:109360001DFF1849032016F0E3FC174814F00CF811
:10937000164814F023F8164B164A1878164914F0BC
:1093800019FD1649164819F013FE16481E2119F04A
:10939000E1FD154843890289C188808819F0ECFDF8
:1093A00019F0F8FD1149124800F034FE00F02CFECF
:1093B000104900200BF0B6FA0BF0AEFABDE80840F9
:1093C00016F0B8BEED8A0100A58A0100111C030049
:1093D000C42E0010218A0100582E0010352F0300E2
:1093E000152F0300952E0010C82E001099A0010023
:1093F00001A101006947020013B519F035FF1AF009
:1094000063F8364B364904224FF4386019F0DCFD1E
:10941000B0F5386F0BD9334B0093A0F5386001904D
:10942000314A32494FF49D6300201AF00FFE13F0C9
:1094300071FE13F09DFC13F07BFD13F0E7FD2C484B
:1094400019F006FF17F036FB2A4819F001FF044611
:10945000002016F085FE16F0BFF917F09BF916F004
:1094600053FC16F0E1FD17F079FA17F009FB17F03D
:1094700037F8204616F0C4FE1F4819F0E9FE17F031
:1094800095FC17F09DFB17F03BFC1C4819F0E0FE23
:1094900013F050FF14F0DEFF14F05EFE14F0E0F95C
:1094A000174819F0D5FE18F037F818F089FA18F0B7
:1094B0007DFAFB2012F072FB124819F0C9FE18F079
:1094C000C1FA114819F0C4FE11F0FCFA0F4819F066
:1094D000BFFE02B0BDE81040FFF7ECBEEE2E00105C
:1094E000E853001079B604002CB3040050AF040018
:1094F000C90A030019020300BD0D03006DD3020069
:109500007D150300511A030095AB02002D8B01005D
:1095100011F0EABA07B5084B0093084A084940F22F
:109520004B5300201AF092FD064B802283F80C2347
:1095300003B05DF804FB00BF98B604002CB3040030
:1095400050AF040000E100E0024B4FF0FF3118681B
:1095500010F07EB944080210F0B5054685B02448E5
:109560000F4603F082FD234B234A244900241C703C
:10957000234B019006460093204640F291531AF087
:1095800065FD204B00931C4A1C49019740F2925301
:1095900020461AF05BFDB74215D91B4B0093CDE96D
:1095A00001672046144A154940F29F531AF04EFDB8
:1095B0002C467719BC4215D1324607E0295D0320BD
:1095C0000AF05AFC0134A742F8DC3A46294608481A
:1095D00003F051FD0D480AF02FFD05B0BDE8F04045
:1095E00001F032B914F8011B03200AF045FCE1E751
:1095F000402E00106C3702102CB3040050AF040052
:10960000A9B60400BBB60400DBB60400102F00109E
:10961000014803F021BD00BF402E00100A4601465C
:10962000014803F075BD00BF402E00102DE9FF4733
:109630002F4EDFF8D0803788DFF8CC90DFF8CCA051
:1096400005460C463388A34215D32246294640F2EC
:10965000047000F0E5FC002838D125440446FFF7EB
:1096600053F998B9B9F80610D8F8000001EB410198
:1096700010F0EEF81BE03A46294640F2047000F084
:10968000CFFC18BBE41B3D44A4B2E8E7D8F80000C7
:1096900003AA002110F080F948B1039B3BB14FF0C1
:1096A0008053CAF80030BFF34F8FBFF36F8F002C89
:1096B000C8D100240F4B009320460F4A0F49019454
:1096C00040F2EA531AF0C2FC20460DE0002CF0D024
:1096D0000B4B00930020084A0849019440F2E653DE
:1096E0001AF0B4FC6FF0060004B0BDE8F08700BFCC
:1096F000562E001017B704002CB3040050AF04001E
:1097000002B704004C080210C82E001004ED00E05F
:1097100070477047704770477047000037B5344C4A
:109720002378002B62D1334D296821B9032201200F
:109730000FF0AEFE2860304D296821B903220120C8
:109740000FF0A6FE28602D4D296821B903220120C3
:109750000FF09EFE28602A4D296821B903220120BE
:109760000FF096FE2860274D296821B903220120B9
:109770000FF08EFE2860244D296821B903220120B4
:109780000FF086FE2860214D296821B903220120AF
:109790000FF07EFE28601E4D2A6822B927210A207C
:1097A0000FF076FE28601B4D296821B903220120A5
:1097B0000FF06EFE2860184A136843B90192022226
:1097C0000092164916484FF4807210F0BFF9FFF767
:1097D000A1FE144B01930323009313491348002364
:1097E0004FF4007210F0B2F90123237003B030BDC2
:1097F000685F001050080210380802103C08021080
:1098000048080210340802104C08021044080210E4
:10981000985300109C530010A05300102FB7040061
:1098200045890100400802103FB70400299D01004E
:10983000114B1B68012B13B51BD0104C2268012A59
:109840000AD119F0E9F8FFF75FF80D4B58B1186825
:1098500001AA002110F0A0F80A4B0020D860206077
:10986000186102B010BD18684FF47A710FF0F0FF64
:10987000F2E76FF00600F4E7905F00108C5F0010D5
:1098800050080210402E001037B50020FFF7D0FF1F
:10989000574B93F82430002B30D1564B564A03F1E6
:1098A000140153F8040B42F8040B8B42F9D11B78D6
:1098B000524D534C137015214F4A2970022019F054
:1098C00073F8504A2178032019F06EF84A4A297833
:1098D000002019F069F84B4A2178012019F064F84A
:1098E000002019F0A9F8484B009340F26F63474AF3
:1098F000474900201AF0AAFB03B030BD012B40D12C
:10990000444B1B78FBB9444A3B4B116819605168C2
:10991000127A1A72414A5960093302F1140152F85D
:10992000040B43F8040B8A42F9D112781A70334BB6
:1099300037491E221A703A4B0093344A40F2796339
:1099400000201AF083FB2D4D2D4C2B4A2978022044
:1099500019F02AF82B4A2178032019F025F8264A15
:109960002978002019F020F8264A2178012019F0E2
:109970001BF8032019F060F82A4B009340F287632C
:10998000B5E7032BB8D1284B284A03F1100153F84F
:10999000040B42F8040B8B42F9D1254B164A03F114
:1099A000140153F8040B42F8040B8B42F9D11B78D5
:1099B000124D134C137015210F4A2970022018F014
:1099C000F3FF104A2178032018F0EEFF0A4A2978A5
:1099D000002018F0E9FF0B4A2178012018F0E4FF7D
:1099E000002019F029F8134B009340F2A1637EE7A1
:1099F000942E0010402F0010B0530010542E001071
:109A0000182F0010695F001049B704002CB3040040
:109A100050AF0400CF5300103CAB0400D0530010F3
:109A20005AB704005BB7040098080210DD2E00103E
:109A3000D82E00106EB704007FB5484B1B68012B71
:109A400004460AD0B4280BD9454B0093454A4649F1
:109A500040F21C7300201AF0F9FA6FF0060059E08A
:109A6000424E0020FFF7E4FEFFF758F896F8245026
:109A7000DDB93F4B3B4A01940093284640F22573E1
:109A800039491AF0E3FAC4EB44103A4B326A5D806C
:109A900004EB8004E4001C809D80DA801D815D81E0
:109AA000012018F0C1FE012019E0012D34D1324B04
:109AB0002C4A2D490093002040F2347301941AF08F
:109AC000C5FA316A2B4B64294FF0000238BF64217C
:109AD0001A805A809A80D9801A815A81022018F0FF
